{
  "contractName": "BuildingFactory",
  "abi": [
    {
      "inputs": [
        {
          "internalType": "address",
          "name": "_nftAddress",
          "type": "address"
        }
      ],
      "stateMutability": "nonpayable",
      "type": "constructor"
    },
    {
      "anonymous": false,
      "inputs": [
        {
          "indexed": true,
          "internalType": "address",
          "name": "previousOwner",
          "type": "address"
        },
        {
          "indexed": true,
          "internalType": "address",
          "name": "newOwner",
          "type": "address"
        }
      ],
      "name": "OwnershipTransferred",
      "type": "event"
    },
    {
      "inputs": [],
      "name": "owner",
      "outputs": [
        {
          "internalType": "address",
          "name": "",
          "type": "address"
        }
      ],
      "stateMutability": "view",
      "type": "function",
      "constant": true
    },
    {
      "inputs": [],
      "name": "renounceOwnership",
      "outputs": [],
      "stateMutability": "nonpayable",
      "type": "function"
    },
    {
      "inputs": [
        {
          "internalType": "address",
          "name": "newOwner",
          "type": "address"
        }
      ],
      "name": "transferOwnership",
      "outputs": [],
      "stateMutability": "nonpayable",
      "type": "function"
    },
    {
      "inputs": [
        {
          "internalType": "uint256",
          "name": "_optionId",
          "type": "uint256"
        },
        {
          "internalType": "address",
          "name": "_to",
          "type": "address"
        },
        {
          "internalType": "uint256",
          "name": "_amount",
          "type": "uint256"
        },
        {
          "internalType": "bytes",
          "name": "",
          "type": "bytes"
        }
      ],
      "name": "mint",
      "outputs": [],
      "stateMutability": "nonpayable",
      "type": "function"
    }
  ],
  "bytecode": "0x608060405234801561001057600080fd5b50604051610b2b380380610b2b833981810160405281019061003291906101c4565b61004e61004361009560201b60201c565b61009d60201b60201c565b80600160006101000a81548173ffffffffffffffffffffffffffffffffffffffff021916908373ffffffffffffffffffffffffffffffffffffffff160217905550506101f1565b600033905090565b60008060009054906101000a900473ffffffffffffffffffffffffffffffffffffffff169050816000806101000a81548173ffffffffffffffffffffffffffffffffffffffff021916908373ffffffffffffffffffffffffffffffffffffffff1602179055508173ffffffffffffffffffffffffffffffffffffffff168173ffffffffffffffffffffffffffffffffffffffff167f8be0079c531659141344cd1fd0a4f28419497f9722a3daafe3b4186f6b6457e060405160405180910390a35050565b600080fd5b600073ffffffffffffffffffffffffffffffffffffffff82169050919050565b600061019182610166565b9050919050565b6101a181610186565b81146101ac57600080fd5b50565b6000815190506101be81610198565b92915050565b6000602082840312156101da576101d9610161565b5b60006101e8848285016101af565b91505092915050565b61092b806102006000396000f3fe608060405234801561001057600080fd5b506004361061004c5760003560e01c8063715018a6146100515780638da5cb5b1461005b578063c77b66c214610079578063f2fde38b14610095575b600080fd5b6100596100b1565b005b610063610139565b60405161007091906104bb565b60405180910390f35b610093600480360381019061008e9190610692565b610162565b005b6100af60048036038101906100aa9190610715565b6102b6565b005b6100b96103ae565b73ffffffffffffffffffffffffffffffffffffffff166100d7610139565b73ffffffffffffffffffffffffffffffffffffffff161461012d576040517f08c379a00000000000000000000000000000000000000000000000000000000081526004016101249061079f565b60405180910390fd5b61013760006103b6565b565b60008060009054906101000a900473ffffffffffffffffffffffffffffffffffffffff16905090565b61016a6103ae565b73ffffffffffffffffffffffffffffffffffffffff16610188610139565b73ffffffffffffffffffffffffffffffffffffffff16146101de576040517f08c379a00000000000000000000000000000000000000000000000000000000081526004016101d59061079f565b60405180910390fd5b60018214610221576040517f08c379a00000000000000000000000000000000000000000000000000000000081526004016102189061080b565b60405180910390fd5b600160009054906101000a900473ffffffffffffffffffffffffffffffffffffffff1673ffffffffffffffffffffffffffffffffffffffff1663a06c13d584866040518363ffffffff1660e01b815260040161027e92919061083a565b600060405180830381600087803b15801561029857600080fd5b505af11580156102ac573d6000803e3d6000fd5b5050505050505050565b6102be6103ae565b73ffffffffffffffffffffffffffffffffffffffff166102dc610139565b73ffffffffffffffffffffffffffffffffffffffff1614610332576040517f08c379a00000000000000000000000000000000000000000000000000000000081526004016103299061079f565b60405180910390fd5b600073ffffffffffffffffffffffffffffffffffffffff168173ffffffffffffffffffffffffffffffffffffffff1614156103a2576040517f08c379a0000000000000000000000000000000000000000000000000000000008152600401610399906108d5565b60405180910390fd5b6103ab816103b6565b50565b600033905090565b60008060009054906101000a900473ffffffffffffffffffffffffffffffffffffffff169050816000806101000a81548173ffffffffffffffffffffffffffffffffffffffff021916908373ffffffffffffffffffffffffffffffffffffffff1602179055508173ffffffffffffffffffffffffffffffffffffffff168173ffffffffffffffffffffffffffffffffffffffff167f8be0079c531659141344cd1fd0a4f28419497f9722a3daafe3b4186f6b6457e060405160405180910390a35050565b600073ffffffffffffffffffffffffffffffffffffffff82169050919050565b60006104a58261047a565b9050919050565b6104b58161049a565b82525050565b60006020820190506104d060008301846104ac565b92915050565b6000604051905090565b600080fd5b600080fd5b6000819050919050565b6104fd816104ea565b811461050857600080fd5b50565b60008135905061051a816104f4565b92915050565b6105298161049a565b811461053457600080fd5b50565b60008135905061054681610520565b92915050565b600080fd5b600080fd5b6000601f19601f8301169050919050565b7f4e487b7100000000000000000000000000000000000000000000000000000000600052604160045260246000fd5b61059f82610556565b810181811067ffffffffffffffff821117156105be576105bd610567565b5b80604052505050565b60006105d16104d6565b90506105dd8282610596565b919050565b600067ffffffffffffffff8211156105fd576105fc610567565b5b61060682610556565b9050602081019050919050565b82818337600083830152505050565b6000610635610630846105e2565b6105c7565b90508281526020810184848401111561065157610650610551565b5b61065c848285610613565b509392505050565b600082601f8301126106795761067861054c565b5b8135610689848260208601610622565b91505092915050565b600080600080608085870312156106ac576106ab6104e0565b5b60006106ba8782880161050b565b94505060206106cb87828801610537565b93505060406106dc8782880161050b565b925050606085013567ffffffffffffffff8111156106fd576106fc6104e5565b5b61070987828801610664565b91505092959194509250565b60006020828403121561072b5761072a6104e0565b5b600061073984828501610537565b91505092915050565b600082825260208201905092915050565b7f4f776e61626c653a2063616c6c6572206973206e6f7420746865206f776e6572600082015250565b6000610789602083610742565b915061079482610753565b602082019050919050565b600060208201905081810360008301526107b88161077c565b9050919050565b7f63616e6e6f74206d696e74206d6f7265207468616e2031000000000000000000600082015250565b60006107f5601783610742565b9150610800826107bf565b602082019050919050565b60006020820190508181036000830152610824816107e8565b9050919050565b610834816104ea565b82525050565b600060408201905061084f60008301856104ac565b61085c602083018461082b565b9392505050565b7f4f776e61626c653a206e6577206f776e657220697320746865207a65726f206160008201527f6464726573730000000000000000000000000000000000000000000000000000602082015250565b60006108bf602683610742565b91506108ca82610863565b604082019050919050565b600060208201905081810360008301526108ee816108b2565b905091905056fea2646970667358221220b6f9496ad8d651650185ed69f7946b4211093a050d6d4d5e9f34fb213196ece864736f6c63430008090033",
  "immutableReferences": {},
  "source": "// SPDX-License-Identifier: MIT\npragma solidity ^0.8.2;\n\nimport \"./interfaces/IERC1155Factory.sol\";\nimport \"./Building.sol\";\nimport \"@openzeppelin/contracts/access/Ownable.sol\";\n\ncontract BuildingFactory is Ownable, IERC1155Factory {\n    // using Counters for Counters.Counter;\n\n    // address private spender;\n    // Counters.Counter private _tokenIdCounter;\n\n    Building private building;\n\n    // event HouseBuilt(address indexed to, uint256 optionId, uint256 tokenId);\n\n    constructor(address _nftAddress) {\n        building = Building(_nftAddress);\n    }\n\n    function mint(\n        uint256 _optionId,\n        address _to,\n        uint256 _amount,\n        bytes memory\n    ) public override onlyOwner {\n        require(_amount == 1, \"cannot mint more than 1\");\n        building.safeMintWithOption(_to, _optionId);\n        // _tokenIdCounter.increment();\n        // building.safeTransferFrom(spender, _to, _tokenIdCounter);\n        // emit HouseBuilt(_to, _optionId, _tokenIdCounter);\n    }\n}\n",
  "sourcePath": "/home/ec2-user/contract-main/legendofbeasts/contracts/BuildingFactory.sol",
  "compiler": {
    "name": "solc",
    "version": "0.8.9+commit.e5eed63a.Emscripten.clang"
  },
  "schemaVersion": "3.4.4",
  "updatedAt": "2022-01-25T03:34:29.512Z",
  "networkType": "ethereum",
  "devdoc": {
    "kind": "dev",
    "methods": {
      "owner()": {
        "details": "Returns the address of the current owner."
      },
      "renounceOwnership()": {
        "details": "Leaves the contract without owner. It will not be possible to call `onlyOwner` functions anymore. Can only be called by the current owner. NOTE: Renouncing ownership will leave the contract without an owner, thereby removing any functionality that is only available to the owner."
      },
      "transferOwnership(address)": {
        "details": "Transfers ownership of the contract to a new account (`newOwner`). Can only be called by the current owner."
      }
    },
    "version": 1
  },
  "userdoc": {
    "kind": "user",
    "methods": {},
    "version": 1
  }
}