{
  "contractName": "Egg",
  "abi": [
    {
      "inputs": [
        {
          "internalType": "address",
          "name": "_nftAddress",
          "type": "address"
        },
        {
          "internalType": "uint256",
          "name": "_delay",
          "type": "uint256"
        }
      ],
      "stateMutability": "nonpayable",
      "type": "constructor"
    },
    {
      "anonymous": false,
      "inputs": [
        {
          "indexed": true,
          "internalType": "address",
          "name": "account",
          "type": "address"
        },
        {
          "indexed": true,
          "internalType": "address",
          "name": "operator",
          "type": "address"
        },
        {
          "indexed": false,
          "internalType": "bool",
          "name": "approved",
          "type": "bool"
        }
      ],
      "name": "ApprovalForAll",
      "type": "event"
    },
    {
      "anonymous": false,
      "inputs": [
        {
          "indexed": true,
          "internalType": "address",
          "name": "to",
          "type": "address"
        },
        {
          "indexed": false,
          "internalType": "uint256",
          "name": "optionId",
          "type": "uint256"
        },
        {
          "indexed": false,
          "internalType": "uint256",
          "name": "readyTimestamp",
          "type": "uint256"
        }
      ],
      "name": "EggHatched",
      "type": "event"
    },
    {
      "anonymous": false,
      "inputs": [
        {
          "indexed": true,
          "internalType": "address",
          "name": "previousOwner",
          "type": "address"
        },
        {
          "indexed": true,
          "internalType": "address",
          "name": "newOwner",
          "type": "address"
        }
      ],
      "name": "OwnershipTransferred",
      "type": "event"
    },
    {
      "anonymous": false,
      "inputs": [
        {
          "indexed": false,
          "internalType": "address",
          "name": "account",
          "type": "address"
        }
      ],
      "name": "Paused",
      "type": "event"
    },
    {
      "anonymous": false,
      "inputs": [
        {
          "indexed": true,
          "internalType": "address",
          "name": "operator",
          "type": "address"
        },
        {
          "indexed": true,
          "internalType": "address",
          "name": "from",
          "type": "address"
        },
        {
          "indexed": true,
          "internalType": "address",
          "name": "to",
          "type": "address"
        },
        {
          "indexed": false,
          "internalType": "uint256[]",
          "name": "ids",
          "type": "uint256[]"
        },
        {
          "indexed": false,
          "internalType": "uint256[]",
          "name": "values",
          "type": "uint256[]"
        }
      ],
      "name": "TransferBatch",
      "type": "event"
    },
    {
      "anonymous": false,
      "inputs": [
        {
          "indexed": true,
          "internalType": "address",
          "name": "operator",
          "type": "address"
        },
        {
          "indexed": true,
          "internalType": "address",
          "name": "from",
          "type": "address"
        },
        {
          "indexed": true,
          "internalType": "address",
          "name": "to",
          "type": "address"
        },
        {
          "indexed": false,
          "internalType": "uint256",
          "name": "id",
          "type": "uint256"
        },
        {
          "indexed": false,
          "internalType": "uint256",
          "name": "value",
          "type": "uint256"
        }
      ],
      "name": "TransferSingle",
      "type": "event"
    },
    {
      "anonymous": false,
      "inputs": [
        {
          "indexed": false,
          "internalType": "string",
          "name": "value",
          "type": "string"
        },
        {
          "indexed": true,
          "internalType": "uint256",
          "name": "id",
          "type": "uint256"
        }
      ],
      "name": "URI",
      "type": "event"
    },
    {
      "anonymous": false,
      "inputs": [
        {
          "indexed": false,
          "internalType": "address",
          "name": "account",
          "type": "address"
        }
      ],
      "name": "Unpaused",
      "type": "event"
    },
    {
      "inputs": [],
      "name": "NUM_OPTIONS",
      "outputs": [
        {
          "internalType": "uint256",
          "name": "",
          "type": "uint256"
        }
      ],
      "stateMutability": "view",
      "type": "function"
    },
    {
      "inputs": [
        {
          "internalType": "address",
          "name": "account",
          "type": "address"
        },
        {
          "internalType": "uint256",
          "name": "id",
          "type": "uint256"
        }
      ],
      "name": "balanceOf",
      "outputs": [
        {
          "internalType": "uint256",
          "name": "",
          "type": "uint256"
        }
      ],
      "stateMutability": "view",
      "type": "function"
    },
    {
      "inputs": [
        {
          "internalType": "address[]",
          "name": "accounts",
          "type": "address[]"
        },
        {
          "internalType": "uint256[]",
          "name": "ids",
          "type": "uint256[]"
        }
      ],
      "name": "balanceOfBatch",
      "outputs": [
        {
          "internalType": "uint256[]",
          "name": "",
          "type": "uint256[]"
        }
      ],
      "stateMutability": "view",
      "type": "function"
    },
    {
      "inputs": [
        {
          "internalType": "address",
          "name": "account",
          "type": "address"
        },
        {
          "internalType": "uint256",
          "name": "id",
          "type": "uint256"
        },
        {
          "internalType": "uint256",
          "name": "value",
          "type": "uint256"
        }
      ],
      "name": "burn",
      "outputs": [],
      "stateMutability": "nonpayable",
      "type": "function"
    },
    {
      "inputs": [
        {
          "internalType": "address",
          "name": "account",
          "type": "address"
        },
        {
          "internalType": "uint256[]",
          "name": "ids",
          "type": "uint256[]"
        },
        {
          "internalType": "uint256[]",
          "name": "values",
          "type": "uint256[]"
        }
      ],
      "name": "burnBatch",
      "outputs": [],
      "stateMutability": "nonpayable",
      "type": "function"
    },
    {
      "inputs": [
        {
          "internalType": "address",
          "name": "account",
          "type": "address"
        },
        {
          "internalType": "address",
          "name": "operator",
          "type": "address"
        }
      ],
      "name": "isApprovedForAll",
      "outputs": [
        {
          "internalType": "bool",
          "name": "",
          "type": "bool"
        }
      ],
      "stateMutability": "view",
      "type": "function"
    },
    {
      "inputs": [],
      "name": "nftAddress",
      "outputs": [
        {
          "internalType": "address",
          "name": "",
          "type": "address"
        }
      ],
      "stateMutability": "view",
      "type": "function"
    },
    {
      "inputs": [],
      "name": "owner",
      "outputs": [
        {
          "internalType": "address",
          "name": "",
          "type": "address"
        }
      ],
      "stateMutability": "view",
      "type": "function"
    },
    {
      "inputs": [],
      "name": "paused",
      "outputs": [
        {
          "internalType": "bool",
          "name": "",
          "type": "bool"
        }
      ],
      "stateMutability": "view",
      "type": "function"
    },
    {
      "inputs": [],
      "name": "renounceOwnership",
      "outputs": [],
      "stateMutability": "nonpayable",
      "type": "function"
    },
    {
      "inputs": [
        {
          "internalType": "address",
          "name": "from",
          "type": "address"
        },
        {
          "internalType": "address",
          "name": "to",
          "type": "address"
        },
        {
          "internalType": "uint256[]",
          "name": "ids",
          "type": "uint256[]"
        },
        {
          "internalType": "uint256[]",
          "name": "amounts",
          "type": "uint256[]"
        },
        {
          "internalType": "bytes",
          "name": "data",
          "type": "bytes"
        }
      ],
      "name": "safeBatchTransferFrom",
      "outputs": [],
      "stateMutability": "nonpayable",
      "type": "function"
    },
    {
      "inputs": [
        {
          "internalType": "address",
          "name": "from",
          "type": "address"
        },
        {
          "internalType": "address",
          "name": "to",
          "type": "address"
        },
        {
          "internalType": "uint256",
          "name": "id",
          "type": "uint256"
        },
        {
          "internalType": "uint256",
          "name": "amount",
          "type": "uint256"
        },
        {
          "internalType": "bytes",
          "name": "data",
          "type": "bytes"
        }
      ],
      "name": "safeTransferFrom",
      "outputs": [],
      "stateMutability": "nonpayable",
      "type": "function"
    },
    {
      "inputs": [
        {
          "internalType": "address",
          "name": "operator",
          "type": "address"
        },
        {
          "internalType": "bool",
          "name": "approved",
          "type": "bool"
        }
      ],
      "name": "setApprovalForAll",
      "outputs": [],
      "stateMutability": "nonpayable",
      "type": "function"
    },
    {
      "inputs": [
        {
          "internalType": "bytes4",
          "name": "interfaceId",
          "type": "bytes4"
        }
      ],
      "name": "supportsInterface",
      "outputs": [
        {
          "internalType": "bool",
          "name": "",
          "type": "bool"
        }
      ],
      "stateMutability": "view",
      "type": "function"
    },
    {
      "inputs": [
        {
          "internalType": "address",
          "name": "newOwner",
          "type": "address"
        }
      ],
      "name": "transferOwnership",
      "outputs": [],
      "stateMutability": "nonpayable",
      "type": "function"
    },
    {
      "inputs": [
        {
          "internalType": "string",
          "name": "newuri",
          "type": "string"
        }
      ],
      "name": "setURI",
      "outputs": [],
      "stateMutability": "nonpayable",
      "type": "function"
    },
    {
      "inputs": [],
      "name": "pause",
      "outputs": [],
      "stateMutability": "nonpayable",
      "type": "function"
    },
    {
      "inputs": [],
      "name": "unpause",
      "outputs": [],
      "stateMutability": "nonpayable",
      "type": "function"
    },
    {
      "inputs": [
        {
          "internalType": "address",
          "name": "_owner",
          "type": "address"
        }
      ],
      "name": "supplyForOwner",
      "outputs": [
        {
          "internalType": "uint256",
          "name": "",
          "type": "uint256"
        }
      ],
      "stateMutability": "view",
      "type": "function"
    },
    {
      "inputs": [
        {
          "internalType": "uint256",
          "name": "_optionId",
          "type": "uint256"
        }
      ],
      "name": "hatch",
      "outputs": [],
      "stateMutability": "nonpayable",
      "type": "function"
    },
    {
      "inputs": [
        {
          "internalType": "address",
          "name": "account",
          "type": "address"
        },
        {
          "internalType": "uint256",
          "name": "id",
          "type": "uint256"
        },
        {
          "internalType": "uint256",
          "name": "amount",
          "type": "uint256"
        },
        {
          "internalType": "bytes",
          "name": "data",
          "type": "bytes"
        }
      ],
      "name": "mint",
      "outputs": [],
      "stateMutability": "nonpayable",
      "type": "function"
    },
    {
      "inputs": [
        {
          "internalType": "address",
          "name": "to",
          "type": "address"
        },
        {
          "internalType": "uint256[]",
          "name": "ids",
          "type": "uint256[]"
        },
        {
          "internalType": "uint256[]",
          "name": "amounts",
          "type": "uint256[]"
        },
        {
          "internalType": "bytes",
          "name": "data",
          "type": "bytes"
        }
      ],
      "name": "mintBatch",
      "outputs": [],
      "stateMutability": "nonpayable",
      "type": "function"
    },
    {
      "inputs": [
        {
          "internalType": "uint256",
          "name": "tokenId",
          "type": "uint256"
        }
      ],
      "name": "uri",
      "outputs": [
        {
          "internalType": "string",
          "name": "",
          "type": "string"
        }
      ],
      "stateMutability": "view",
      "type": "function"
    }
  ],
  "bytecode": "0x60806040523480156200001157600080fd5b50604051620049f9380380620049f983398181016040528101906200003791906200032d565b604051806060016040528060228152602001620049d7602291396200006281620000ee60201b60201c565b5062000083620000776200010a60201b60201c565b6200011260201b60201c565b6000600360146101000a81548160ff02191690831515021790555081600460006101000a81548173ffffffffffffffffffffffffffffffffffffffff021916908373ffffffffffffffffffffffffffffffffffffffff160217905550806005819055505050620003d9565b806002908051906020019062000106929190620001d8565b5050565b600033905090565b6000600360009054906101000a900473ffffffffffffffffffffffffffffffffffffffff16905081600360006101000a81548173ffffffffffffffffffffffffffffffffffffffff021916908373ffffffffffffffffffffffffffffffffffffffff1602179055508173ffffffffffffffffffffffffffffffffffffffff168173ffffffffffffffffffffffffffffffffffffffff167f8be0079c531659141344cd1fd0a4f28419497f9722a3daafe3b4186f6b6457e060405160405180910390a35050565b828054620001e690620003a3565b90600052602060002090601f0160209004810192826200020a576000855562000256565b82601f106200022557805160ff191683800117855562000256565b8280016001018555821562000256579182015b828111156200025557825182559160200191906001019062000238565b5b50905062000265919062000269565b5090565b5b80821115620002845760008160009055506001016200026a565b5090565b600080fd5b600073ffffffffffffffffffffffffffffffffffffffff82169050919050565b6000620002ba826200028d565b9050919050565b620002cc81620002ad565b8114620002d857600080fd5b50565b600081519050620002ec81620002c1565b92915050565b6000819050919050565b6200030781620002f2565b81146200031357600080fd5b50565b6000815190506200032781620002fc565b92915050565b6000806040838503121562000347576200034662000288565b5b60006200035785828601620002db565b92505060206200036a8582860162000316565b9150509250929050565b7f4e487b7100000000000000000000000000000000000000000000000000000000600052602260045260246000fd5b60006002820490506001821680620003bc57607f821691505b60208210811415620003d357620003d262000374565b5b50919050565b6145ee80620003e96000396000f3fe608060405234801561001057600080fd5b506004361061014c5760003560e01c80636b20c454116100c3578063c8c188421161007c578063c8c188421461034f578063cf39bb5a1461036b578063e985e9c51461039b578063f242432a146103cb578063f2fde38b146103e7578063f5298aca146104035761014c565b80636b20c454146102c9578063715018a6146102e5578063731133e9146102ef5780638456cb591461030b5780638da5cb5b14610315578063a22cb465146103335761014c565b80632eb2c2d6116101155780632eb2c2d6146102195780633db62e2c146102355780633f4ba83a146102535780634e1273f41461025d5780635bf8633a1461028d5780635c975abb146102ab5761014c565b8062fdd58e1461015157806301ffc9a71461018157806302fe5305146101b15780630e89341c146101cd5780631f7fdffa146101fd575b600080fd5b61016b600480360381019061016691906129fb565b61041f565b6040516101789190612a4a565b60405180910390f35b61019b60048036038101906101969190612abd565b6104e8565b6040516101a89190612b05565b60405180910390f35b6101cb60048036038101906101c69190612c66565b6105ca565b005b6101e760048036038101906101e29190612caf565b610652565b6040516101f49190612d64565b60405180910390f35b61021760048036038101906102129190612eef565b610683565b005b610233600480360381019061022e9190612faa565b610711565b005b61023d6107b2565b60405161024a9190612a4a565b60405180910390f35b61025b6107b7565b005b6102776004803603810190610272919061313c565b61083d565b6040516102849190613272565b60405180910390f35b610295610956565b6040516102a291906132a3565b60405180910390f35b6102b361097c565b6040516102c09190612b05565b60405180910390f35b6102e360048036038101906102de91906132be565b610993565b005b6102ed610a30565b005b61030960048036038101906103049190613349565b610ab8565b005b610313610b89565b005b61031d610c0f565b60405161032a91906132a3565b60405180910390f35b61034d600480360381019061034891906133f8565b610c39565b005b61036960048036038101906103649190612caf565b610c4f565b005b61038560048036038101906103809190613438565b610d53565b6040516103929190612a4a565b60405180910390f35b6103b560048036038101906103b09190613465565b610d67565b6040516103c29190612b05565b60405180910390f35b6103e560048036038101906103e091906134a5565b610dfb565b005b61040160048036038101906103fc9190613438565b610e9c565b005b61041d6004803603810190610418919061353c565b610f94565b005b60008073ffffffffffffffffffffffffffffffffffffffff168373ffffffffffffffffffffffffffffffffffffffff161415610490576040517f08c379a000000000000000000000000000000000000000000000000000000000815260040161048790613601565b60405180910390fd5b60008083815260200190815260200160002060008473ffffffffffffffffffffffffffffffffffffffff1673ffffffffffffffffffffffffffffffffffffffff16815260200190815260200160002054905092915050565b60007fd9b67a26000000000000000000000000000000000000000000000000000000007bffffffffffffffffffffffffffffffffffffffffffffffffffffffff1916827bffffffffffffffffffffffffffffffffffffffffffffffffffffffff191614806105b357507f0e89341c000000000000000000000000000000000000000000000000000000007bffffffffffffffffffffffffffffffffffffffffffffffffffffffff1916827bffffffffffffffffffffffffffffffffffffffffffffffffffffffff1916145b806105c357506105c282611031565b5b9050919050565b6105d261109b565b73ffffffffffffffffffffffffffffffffffffffff166105f0610c0f565b73ffffffffffffffffffffffffffffffffffffffff1614610646576040517f08c379a000000000000000000000000000000000000000000000000000000000815260040161063d9061366d565b60405180910390fd5b61064f816110a3565b50565b606061065d826110bd565b60405160200161066d9190613761565b6040516020818303038152906040529050919050565b61068b61109b565b73ffffffffffffffffffffffffffffffffffffffff166106a9610c0f565b73ffffffffffffffffffffffffffffffffffffffff16146106ff576040517f08c379a00000000000000000000000000000000000000000000000000000000081526004016106f69061366d565b60405180910390fd5b61070b8484848461121e565b50505050565b61071961109b565b73ffffffffffffffffffffffffffffffffffffffff168573ffffffffffffffffffffffffffffffffffffffff16148061075f575061075e8561075961109b565b610d67565b5b61079e576040517f08c379a000000000000000000000000000000000000000000000000000000000815260040161079590613800565b60405180910390fd5b6107ab858585858561143c565b5050505050565b600481565b6107bf61109b565b73ffffffffffffffffffffffffffffffffffffffff166107dd610c0f565b73ffffffffffffffffffffffffffffffffffffffff1614610833576040517f08c379a000000000000000000000000000000000000000000000000000000000815260040161082a9061366d565b60405180910390fd5b61083b611750565b565b60608151835114610883576040517f08c379a000000000000000000000000000000000000000000000000000000000815260040161087a90613892565b60405180910390fd5b6000835167ffffffffffffffff8111156108a05761089f612b3b565b5b6040519080825280602002602001820160405280156108ce5781602001602082028036833780820191505090505b50905060005b845181101561094b5761091b8582815181106108f3576108f26138b2565b5b602002602001015185838151811061090e5761090d6138b2565b5b602002602001015161041f565b82828151811061092e5761092d6138b2565b5b6020026020010181815250508061094490613910565b90506108d4565b508091505092915050565b600460009054906101000a900473ffffffffffffffffffffffffffffffffffffffff1681565b6000600360149054906101000a900460ff16905090565b61099b61109b565b73ffffffffffffffffffffffffffffffffffffffff168373ffffffffffffffffffffffffffffffffffffffff1614806109e157506109e0836109db61109b565b610d67565b5b610a20576040517f08c379a0000000000000000000000000000000000000000000000000000000008152600401610a17906139cb565b60405180910390fd5b610a2b8383836117f2565b505050565b610a3861109b565b73ffffffffffffffffffffffffffffffffffffffff16610a56610c0f565b73ffffffffffffffffffffffffffffffffffffffff1614610aac576040517f08c379a0000000000000000000000000000000000000000000000000000000008152600401610aa39061366d565b60405180910390fd5b610ab66000611aa3565b565b610ac061109b565b73ffffffffffffffffffffffffffffffffffffffff16610ade610c0f565b73ffffffffffffffffffffffffffffffffffffffff1614610b34576040517f08c379a0000000000000000000000000000000000000000000000000000000008152600401610b2b9061366d565b60405180910390fd5b60048310610b77576040517f08c379a0000000000000000000000000000000000000000000000000000000008152600401610b6e90613a37565b60405180910390fd5b610b8384848484611b69565b50505050565b610b9161109b565b73ffffffffffffffffffffffffffffffffffffffff16610baf610c0f565b73ffffffffffffffffffffffffffffffffffffffff1614610c05576040517f08c379a0000000000000000000000000000000000000000000000000000000008152600401610bfc9061366d565b60405180910390fd5b610c0d611cff565b565b6000600360009054906101000a900473ffffffffffffffffffffffffffffffffffffffff16905090565b610c4b610c4461109b565b8383611da2565b5050565b610c5b33826001611f0f565b6000600460009054906101000a900473ffffffffffffffffffffffffffffffffffffffff1690508073ffffffffffffffffffffffffffffffffffffffff1663731133e9338460016040518463ffffffff1660e01b8152600401610cc093929190613af9565b600060405180830381600087803b158015610cda57600080fd5b505af1158015610cee573d6000803e3d6000fd5b505050503373ffffffffffffffffffffffffffffffffffffffff167ffb5524208c13c35801d6a771c1506a0a169687ef04692d793cd26722df18e7ce8360055442610d399190613b43565b604051610d47929190613b99565b60405180910390a25050565b6000610d6082600461212c565b9050919050565b6000600160008473ffffffffffffffffffffffffffffffffffffffff1673ffffffffffffffffffffffffffffffffffffffff16815260200190815260200160002060008373ffffffffffffffffffffffffffffffffffffffff1673ffffffffffffffffffffffffffffffffffffffff16815260200190815260200160002060009054906101000a900460ff16905092915050565b610e0361109b565b73ffffffffffffffffffffffffffffffffffffffff168573ffffffffffffffffffffffffffffffffffffffff161480610e495750610e4885610e4361109b565b610d67565b5b610e88576040517f08c379a0000000000000000000000000000000000000000000000000000000008152600401610e7f906139cb565b60405180910390fd5b610e95858585858561216d565b5050505050565b610ea461109b565b73ffffffffffffffffffffffffffffffffffffffff16610ec2610c0f565b73ffffffffffffffffffffffffffffffffffffffff1614610f18576040517f08c379a0000000000000000000000000000000000000000000000000000000008152600401610f0f9061366d565b60405180910390fd5b600073ffffffffffffffffffffffffffffffffffffffff168173ffffffffffffffffffffffffffffffffffffffff161415610f88576040517f08c379a0000000000000000000000000000000000000000000000000000000008152600401610f7f90613c34565b60405180910390fd5b610f9181611aa3565b50565b610f9c61109b565b73ffffffffffffffffffffffffffffffffffffffff168373ffffffffffffffffffffffffffffffffffffffff161480610fe25750610fe183610fdc61109b565b610d67565b5b611021576040517f08c379a0000000000000000000000000000000000000000000000000000000008152600401611018906139cb565b60405180910390fd5b61102c838383611f0f565b505050565b60007f01ffc9a7000000000000000000000000000000000000000000000000000000007bffffffffffffffffffffffffffffffffffffffffffffffffffffffff1916827bffffffffffffffffffffffffffffffffffffffffffffffffffffffff1916149050919050565b600033905090565b80600290805190602001906110b99291906128b0565b5050565b60606000821415611105576040518060400160405280600181526020017f30000000000000000000000000000000000000000000000000000000000000008152509050611219565b600082905060005b6000821461113757808061112090613910565b915050600a826111309190613c83565b915061110d565b60008167ffffffffffffffff81111561115357611152612b3b565b5b6040519080825280601f01601f1916602001820160405280156111855781602001600182028036833780820191505090505b5090505b600085146112125760018261119e9190613cb4565b9150600a856111ad9190613ce8565b60306111b99190613b43565b60f81b8183815181106111cf576111ce6138b2565b5b60200101907effffffffffffffffffffffffffffffffffffffffffffffffffffffffffffff1916908160001a905350600a8561120b9190613c83565b9450611189565b8093505050505b919050565b600073ffffffffffffffffffffffffffffffffffffffff168473ffffffffffffffffffffffffffffffffffffffff16141561128e576040517f08c379a000000000000000000000000000000000000000000000000000000000815260040161128590613d8b565b60405180910390fd5b81518351146112d2576040517f08c379a00000000000000000000000000000000000000000000000000000000081526004016112c990613e1d565b60405180910390fd5b60006112dc61109b565b90506112ed816000878787876123ef565b60005b84518110156113a65783818151811061130c5761130b6138b2565b5b602002602001015160008087848151811061132a576113296138b2565b5b6020026020010151815260200190815260200160002060008873ffffffffffffffffffffffffffffffffffffffff1673ffffffffffffffffffffffffffffffffffffffff168152602001908152602001600020600082825461138c9190613b43565b92505081905550808061139e90613910565b9150506112f0565b508473ffffffffffffffffffffffffffffffffffffffff16600073ffffffffffffffffffffffffffffffffffffffff168273ffffffffffffffffffffffffffffffffffffffff167f4a39dc06d4c0dbc64b70af90fd698a233a518aa5d07e595d983b8c0526c8f7fb878760405161141e929190613e3d565b60405180910390a46114358160008787878761244d565b5050505050565b8151835114611480576040517f08c379a000000000000000000000000000000000000000000000000000000000815260040161147790613e1d565b60405180910390fd5b600073ffffffffffffffffffffffffffffffffffffffff168473ffffffffffffffffffffffffffffffffffffffff1614156114f0576040517f08c379a00000000000000000000000000000000000000000000000000000000081526004016114e790613ee6565b60405180910390fd5b60006114fa61109b565b905061150a8187878787876123ef565b60005b84518110156116bb57600085828151811061152b5761152a6138b2565b5b60200260200101519050600085838151811061154a576115496138b2565b5b60200260200101519050600080600084815260200190815260200160002060008b73ffffffffffffffffffffffffffffffffffffffff1673ffffffffffffffffffffffffffffffffffffffff168152602001908152602001600020549050818110156115eb576040517f08c379a00000000000000000000000000000000000000000000000000000000081526004016115e290613f78565b60405180910390fd5b81810360008085815260200190815260200160002060008c73ffffffffffffffffffffffffffffffffffffffff1673ffffffffffffffffffffffffffffffffffffffff168152602001908152602001600020819055508160008085815260200190815260200160002060008b73ffffffffffffffffffffffffffffffffffffffff1673ffffffffffffffffffffffffffffffffffffffff16815260200190815260200160002060008282546116a09190613b43565b92505081905550505050806116b490613910565b905061150d565b508473ffffffffffffffffffffffffffffffffffffffff168673ffffffffffffffffffffffffffffffffffffffff168273ffffffffffffffffffffffffffffffffffffffff167f4a39dc06d4c0dbc64b70af90fd698a233a518aa5d07e595d983b8c0526c8f7fb8787604051611732929190613e3d565b60405180910390a461174881878787878761244d565b505050505050565b61175861097c565b611797576040517f08c379a000000000000000000000000000000000000000000000000000000000815260040161178e90613fe4565b60405180910390fd5b6000600360146101000a81548160ff0219169083151502179055507f5db9ee0a495bf2e6ff9c91a7834c1ba4fdd244a5e8aa4e537bd38aeae4b073aa6117db61109b565b6040516117e891906132a3565b60405180910390a1565b600073ffffffffffffffffffffffffffffffffffffffff168373ffffffffffffffffffffffffffffffffffffffff161415611862576040517f08c379a000000000000000000000000000000000000000000000000000000000815260040161185990614076565b60405180910390fd5b80518251146118a6576040517f08c379a000000000000000000000000000000000000000000000000000000000815260040161189d90613e1d565b60405180910390fd5b60006118b061109b565b90506118d0818560008686604051806020016040528060008152506123ef565b60005b8351811015611a1d5760008482815181106118f1576118f06138b2565b5b6020026020010151905060008483815181106119105761190f6138b2565b5b60200260200101519050600080600084815260200190815260200160002060008973ffffffffffffffffffffffffffffffffffffffff1673ffffffffffffffffffffffffffffffffffffffff168152602001908152602001600020549050818110156119b1576040517f08c379a00000000000000000000000000000000000000000000000000000000081526004016119a890614108565b60405180910390fd5b81810360008085815260200190815260200160002060008a73ffffffffffffffffffffffffffffffffffffffff1673ffffffffffffffffffffffffffffffffffffffff168152602001908152602001600020819055505050508080611a1590613910565b9150506118d3565b50600073ffffffffffffffffffffffffffffffffffffffff168473ffffffffffffffffffffffffffffffffffffffff168273ffffffffffffffffffffffffffffffffffffffff167f4a39dc06d4c0dbc64b70af90fd698a233a518aa5d07e595d983b8c0526c8f7fb8686604051611a95929190613e3d565b60405180910390a450505050565b6000600360009054906101000a900473ffffffffffffffffffffffffffffffffffffffff16905081600360006101000a81548173ffffffffffffffffffffffffffffffffffffffff021916908373ffffffffffffffffffffffffffffffffffffffff1602179055508173ffffffffffffffffffffffffffffffffffffffff168173ffffffffffffffffffffffffffffffffffffffff167f8be0079c531659141344cd1fd0a4f28419497f9722a3daafe3b4186f6b6457e060405160405180910390a35050565b600073ffffffffffffffffffffffffffffffffffffffff168473ffffffffffffffffffffffffffffffffffffffff161415611bd9576040517f08c379a0000000000000000000000000000000000000000000000000000000008152600401611bd090613d8b565b60405180910390fd5b6000611be361109b565b9050611c0481600087611bf588612634565b611bfe88612634565b876123ef565b8260008086815260200190815260200160002060008773ffffffffffffffffffffffffffffffffffffffff1673ffffffffffffffffffffffffffffffffffffffff1681526020019081526020016000206000828254611c639190613b43565b925050819055508473ffffffffffffffffffffffffffffffffffffffff16600073ffffffffffffffffffffffffffffffffffffffff168273ffffffffffffffffffffffffffffffffffffffff167fc3d58168c5ae7397731d063d5bbf3d657854427343f4c083240f7aacaa2d0f628787604051611ce1929190613b99565b60405180910390a4611cf8816000878787876126ae565b5050505050565b611d0761097c565b15611d47576040517f08c379a0000000000000000000000000000000000000000000000000000000008152600401611d3e90614174565b60405180910390fd5b6001600360146101000a81548160ff0219169083151502179055507f62e78cea01bee320cd4e420270b5ea74000d11b0c9f74754ebdbfc544b05a258611d8b61109b565b604051611d9891906132a3565b60405180910390a1565b8173ffffffffffffffffffffffffffffffffffffffff168373ffffffffffffffffffffffffffffffffffffffff161415611e11576040517f08c379a0000000000000000000000000000000000000000000000000000000008152600401611e0890614206565b60405180910390fd5b80600160008573ffffffffffffffffffffffffffffffffffffffff1673ffffffffffffffffffffffffffffffffffffffff16815260200190815260200160002060008473ffffffffffffffffffffffffffffffffffffffff1673ffffffffffffffffffffffffffffffffffffffff16815260200190815260200160002060006101000a81548160ff0219169083151502179055508173ffffffffffffffffffffffffffffffffffffffff168373ffffffffffffffffffffffffffffffffffffffff167f17307eab39ab6107e8899845ad3d59bd9653f200f220920489ca2b5937696c3183604051611f029190612b05565b60405180910390a3505050565b600073ffffffffffffffffffffffffffffffffffffffff168373ffffffffffffffffffffffffffffffffffffffff161415611f7f576040517f08c379a0000000000000000000000000000000000000000000000000000000008152600401611f7690614076565b60405180910390fd5b6000611f8961109b565b9050611fb981856000611f9b87612634565b611fa487612634565b604051806020016040528060008152506123ef565b600080600085815260200190815260200160002060008673ffffffffffffffffffffffffffffffffffffffff1673ffffffffffffffffffffffffffffffffffffffff16815260200190815260200160002054905082811015612050576040517f08c379a000000000000000000000000000000000000000000000000000000000815260040161204790614108565b60405180910390fd5b82810360008086815260200190815260200160002060008773ffffffffffffffffffffffffffffffffffffffff1673ffffffffffffffffffffffffffffffffffffffff16815260200190815260200160002081905550600073ffffffffffffffffffffffffffffffffffffffff168573ffffffffffffffffffffffffffffffffffffffff168373ffffffffffffffffffffffffffffffffffffffff167fc3d58168c5ae7397731d063d5bbf3d657854427343f4c083240f7aacaa2d0f62878760405161211d929190613b99565b60405180910390a45050505050565b600080600090505b8281101561216657612146848261041f565b826121519190613b43565b9150808061215e90613910565b915050612134565b5092915050565b600073ffffffffffffffffffffffffffffffffffffffff168473ffffffffffffffffffffffffffffffffffffffff1614156121dd576040517f08c379a00000000000000000000000000000000000000000000000000000000081526004016121d490613ee6565b60405180910390fd5b60006121e761109b565b90506122078187876121f888612634565b61220188612634565b876123ef565b600080600086815260200190815260200160002060008873ffffffffffffffffffffffffffffffffffffffff1673ffffffffffffffffffffffffffffffffffffffff1681526020019081526020016000205490508381101561229e576040517f08c379a000000000000000000000000000000000000000000000000000000000815260040161229590613f78565b60405180910390fd5b83810360008087815260200190815260200160002060008973ffffffffffffffffffffffffffffffffffffffff1673ffffffffffffffffffffffffffffffffffffffff168152602001908152602001600020819055508360008087815260200190815260200160002060008873ffffffffffffffffffffffffffffffffffffffff1673ffffffffffffffffffffffffffffffffffffffff16815260200190815260200160002060008282546123539190613b43565b925050819055508573ffffffffffffffffffffffffffffffffffffffff168773ffffffffffffffffffffffffffffffffffffffff168373ffffffffffffffffffffffffffffffffffffffff167fc3d58168c5ae7397731d063d5bbf3d657854427343f4c083240f7aacaa2d0f6288886040516123d0929190613b99565b60405180910390a46123e68288888888886126ae565b50505050505050565b6123f761097c565b15612437576040517f08c379a000000000000000000000000000000000000000000000000000000000815260040161242e90614174565b60405180910390fd5b612445868686868686612895565b505050505050565b61246c8473ffffffffffffffffffffffffffffffffffffffff1661289d565b1561262c578373ffffffffffffffffffffffffffffffffffffffff1663bc197c8187878686866040518663ffffffff1660e01b81526004016124b295949392919061426a565b602060405180830381600087803b1580156124cc57600080fd5b505af19250505080156124fd57506040513d601f19601f820116820180604052508101906124fa91906142e7565b60015b6125a357612509614321565b806308c379a01415612566575061251e614343565b806125295750612568565b806040517f08c379a000000000000000000000000000000000000000000000000000000000815260040161255d9190612d64565b60405180910390fd5b505b6040517f08c379a000000000000000000000000000000000000000000000000000000000815260040161259a9061444b565b60405180910390fd5b63bc197c8160e01b7bffffffffffffffffffffffffffffffffffffffffffffffffffffffff1916817bffffffffffffffffffffffffffffffffffffffffffffffffffffffff19161461262a576040517f08c379a0000000000000000000000000000000000000000000000000000000008152600401612621906144dd565b60405180910390fd5b505b505050505050565b60606000600167ffffffffffffffff81111561265357612652612b3b565b5b6040519080825280602002602001820160405280156126815781602001602082028036833780820191505090505b5090508281600081518110612699576126986138b2565b5b60200260200101818152505080915050919050565b6126cd8473ffffffffffffffffffffffffffffffffffffffff1661289d565b1561288d578373ffffffffffffffffffffffffffffffffffffffff1663f23a6e6187878686866040518663ffffffff1660e01b81526004016127139594939291906144fd565b602060405180830381600087803b15801561272d57600080fd5b505af192505050801561275e57506040513d601f19601f8201168201806040525081019061275b91906142e7565b60015b6128045761276a614321565b806308c379a014156127c7575061277f614343565b8061278a57506127c9565b806040517f08c379a00000000000000000000000000000000000000000000000000000000081526004016127be9190612d64565b60405180910390fd5b505b6040517f08c379a00000000000000000000000000000000000000000000000000000000081526004016127fb9061444b565b60405180910390fd5b63f23a6e6160e01b7bffffffffffffffffffffffffffffffffffffffffffffffffffffffff1916817bffffffffffffffffffffffffffffffffffffffffffffffffffffffff19161461288b576040517f08c379a0000000000000000000000000000000000000000000000000000000008152600401612882906144dd565b60405180910390fd5b505b505050505050565b505050505050565b600080823b905060008111915050919050565b8280546128bc90614586565b90600052602060002090601f0160209004810192826128de5760008555612925565b82601f106128f757805160ff1916838001178555612925565b82800160010185558215612925579182015b82811115612924578251825591602001919060010190612909565b5b5090506129329190612936565b5090565b5b8082111561294f576000816000905550600101612937565b5090565b6000604051905090565b600080fd5b600080fd5b600073ffffffffffffffffffffffffffffffffffffffff82169050919050565b600061299282612967565b9050919050565b6129a281612987565b81146129ad57600080fd5b50565b6000813590506129bf81612999565b92915050565b6000819050919050565b6129d8816129c5565b81146129e357600080fd5b50565b6000813590506129f5816129cf565b92915050565b60008060408385031215612a1257612a1161295d565b5b6000612a20858286016129b0565b9250506020612a31858286016129e6565b9150509250929050565b612a44816129c5565b82525050565b6000602082019050612a5f6000830184612a3b565b92915050565b60007fffffffff0000000000000000000000000000000000000000000000000000000082169050919050565b612a9a81612a65565b8114612aa557600080fd5b50565b600081359050612ab781612a91565b92915050565b600060208284031215612ad357612ad261295d565b5b6000612ae184828501612aa8565b91505092915050565b60008115159050919050565b612aff81612aea565b82525050565b6000602082019050612b1a6000830184612af6565b92915050565b600080fd5b600080fd5b6000601f19601f8301169050919050565b7f4e487b7100000000000000000000000000000000000000000000000000000000600052604160045260246000fd5b612b7382612b2a565b810181811067ffffffffffffffff82111715612b9257612b91612b3b565b5b80604052505050565b6000612ba5612953565b9050612bb18282612b6a565b919050565b600067ffffffffffffffff821115612bd157612bd0612b3b565b5b612bda82612b2a565b9050602081019050919050565b82818337600083830152505050565b6000612c09612c0484612bb6565b612b9b565b905082815260208101848484011115612c2557612c24612b25565b5b612c30848285612be7565b509392505050565b600082601f830112612c4d57612c4c612b20565b5b8135612c5d848260208601612bf6565b91505092915050565b600060208284031215612c7c57612c7b61295d565b5b600082013567ffffffffffffffff811115612c9a57612c99612962565b5b612ca684828501612c38565b91505092915050565b600060208284031215612cc557612cc461295d565b5b6000612cd3848285016129e6565b91505092915050565b600081519050919050565b600082825260208201905092915050565b60005b83811015612d16578082015181840152602081019050612cfb565b83811115612d25576000848401525b50505050565b6000612d3682612cdc565b612d408185612ce7565b9350612d50818560208601612cf8565b612d5981612b2a565b840191505092915050565b60006020820190508181036000830152612d7e8184612d2b565b905092915050565b600067ffffffffffffffff821115612da157612da0612b3b565b5b602082029050602081019050919050565b600080fd5b6000612dca612dc584612d86565b612b9b565b90508083825260208201905060208402830185811115612ded57612dec612db2565b5b835b81811015612e165780612e0288826129e6565b845260208401935050602081019050612def565b5050509392505050565b600082601f830112612e3557612e34612b20565b5b8135612e45848260208601612db7565b91505092915050565b600067ffffffffffffffff821115612e6957612e68612b3b565b5b612e7282612b2a565b9050602081019050919050565b6000612e92612e8d84612e4e565b612b9b565b905082815260208101848484011115612eae57612ead612b25565b5b612eb9848285612be7565b509392505050565b600082601f830112612ed657612ed5612b20565b5b8135612ee6848260208601612e7f565b91505092915050565b60008060008060808587031215612f0957612f0861295d565b5b6000612f17878288016129b0565b945050602085013567ffffffffffffffff811115612f3857612f37612962565b5b612f4487828801612e20565b935050604085013567ffffffffffffffff811115612f6557612f64612962565b5b612f7187828801612e20565b925050606085013567ffffffffffffffff811115612f9257612f91612962565b5b612f9e87828801612ec1565b91505092959194509250565b600080600080600060a08688031215612fc657612fc561295d565b5b6000612fd4888289016129b0565b9550506020612fe5888289016129b0565b945050604086013567ffffffffffffffff81111561300657613005612962565b5b61301288828901612e20565b935050606086013567ffffffffffffffff81111561303357613032612962565b5b61303f88828901612e20565b925050608086013567ffffffffffffffff8111156130605761305f612962565b5b61306c88828901612ec1565b9150509295509295909350565b600067ffffffffffffffff82111561309457613093612b3b565b5b602082029050602081019050919050565b60006130b86130b384613079565b612b9b565b905080838252602082019050602084028301858111156130db576130da612db2565b5b835b8181101561310457806130f088826129b0565b8452602084019350506020810190506130dd565b5050509392505050565b600082601f83011261312357613122612b20565b5b81356131338482602086016130a5565b91505092915050565b600080604083850312156131535761315261295d565b5b600083013567ffffffffffffffff81111561317157613170612962565b5b61317d8582860161310e565b925050602083013567ffffffffffffffff81111561319e5761319d612962565b5b6131aa85828601612e20565b9150509250929050565b600081519050919050565b600082825260208201905092915050565b6000819050602082019050919050565b6131e9816129c5565b82525050565b60006131fb83836131e0565b60208301905092915050565b6000602082019050919050565b600061321f826131b4565b61322981856131bf565b9350613234836131d0565b8060005b8381101561326557815161324c88826131ef565b975061325783613207565b925050600181019050613238565b5085935050505092915050565b6000602082019050818103600083015261328c8184613214565b905092915050565b61329d81612987565b82525050565b60006020820190506132b86000830184613294565b92915050565b6000806000606084860312156132d7576132d661295d565b5b60006132e5868287016129b0565b935050602084013567ffffffffffffffff81111561330657613305612962565b5b61331286828701612e20565b925050604084013567ffffffffffffffff81111561333357613332612962565b5b61333f86828701612e20565b9150509250925092565b600080600080608085870312156133635761336261295d565b5b6000613371878288016129b0565b9450506020613382878288016129e6565b9350506040613393878288016129e6565b925050606085013567ffffffffffffffff8111156133b4576133b3612962565b5b6133c087828801612ec1565b91505092959194509250565b6133d581612aea565b81146133e057600080fd5b50565b6000813590506133f2816133cc565b92915050565b6000806040838503121561340f5761340e61295d565b5b600061341d858286016129b0565b925050602061342e858286016133e3565b9150509250929050565b60006020828403121561344e5761344d61295d565b5b600061345c848285016129b0565b91505092915050565b6000806040838503121561347c5761347b61295d565b5b600061348a858286016129b0565b925050602061349b858286016129b0565b9150509250929050565b600080600080600060a086880312156134c1576134c061295d565b5b60006134cf888289016129b0565b95505060206134e0888289016129b0565b94505060406134f1888289016129e6565b9350506060613502888289016129e6565b925050608086013567ffffffffffffffff81111561352357613522612962565b5b61352f88828901612ec1565b9150509295509295909350565b6000806000606084860312156135555761355461295d565b5b6000613563868287016129b0565b9350506020613574868287016129e6565b9250506040613585868287016129e6565b9150509250925092565b7f455243313135353a2062616c616e636520717565727920666f7220746865207a60008201527f65726f2061646472657373000000000000000000000000000000000000000000602082015250565b60006135eb602b83612ce7565b91506135f68261358f565b604082019050919050565b6000602082019050818103600083015261361a816135de565b9050919050565b7f4f776e61626c653a2063616c6c6572206973206e6f7420746865206f776e6572600082015250565b6000613657602083612ce7565b915061366282613621565b602082019050919050565b600060208201905081810360008301526136868161364a565b9050919050565b600081905092915050565b7f68747470733a2f2f67616d652e686265617374732e636f6d2f00000000000000600082015250565b60006136ce60198361368d565b91506136d982613698565b601982019050919050565b60006136ef82612cdc565b6136f9818561368d565b9350613709818560208601612cf8565b80840191505092915050565b7f2e6a736f6e000000000000000000000000000000000000000000000000000000600082015250565b600061374b60058361368d565b915061375682613715565b600582019050919050565b600061376c826136c1565b915061377882846136e4565b91506137838261373e565b915081905092915050565b7f455243313135353a207472616e736665722063616c6c6572206973206e6f742060008201527f6f776e6572206e6f7220617070726f7665640000000000000000000000000000602082015250565b60006137ea603283612ce7565b91506137f58261378e565b604082019050919050565b60006020820190508181036000830152613819816137dd565b9050919050565b7f455243313135353a206163636f756e747320616e6420696473206c656e67746860008201527f206d69736d617463680000000000000000000000000000000000000000000000602082015250565b600061387c602983612ce7565b915061388782613820565b604082019050919050565b600060208201905081810360008301526138ab8161386f565b9050919050565b7f4e487b7100000000000000000000000000000000000000000000000000000000600052603260045260246000fd5b7f4e487b7100000000000000000000000000000000000000000000000000000000600052601160045260246000fd5b600061391b826129c5565b91507fffffffffffffffffffffffffffffffffffffffffffffffffffffffffffffffff82141561394e5761394d6138e1565b5b600182019050919050565b7f455243313135353a2063616c6c6572206973206e6f74206f776e6572206e6f7260008201527f20617070726f7665640000000000000000000000000000000000000000000000602082015250565b60006139b5602983612ce7565b91506139c082613959565b604082019050919050565b600060208201905081810360008301526139e4816139a8565b9050919050565b7f556e617661696c61626c65204f7074696f6e0000000000000000000000000000600082015250565b6000613a21601283612ce7565b9150613a2c826139eb565b602082019050919050565b60006020820190508181036000830152613a5081613a14565b9050919050565b6000819050919050565b6000819050919050565b6000613a86613a81613a7c84613a57565b613a61565b6129c5565b9050919050565b613a9681613a6b565b82525050565b600082825260208201905092915050565b7f3078303000000000000000000000000000000000000000000000000000000000600082015250565b6000613ae3600483613a9c565b9150613aee82613aad565b602082019050919050565b6000608082019050613b0e6000830186613294565b613b1b6020830185612a3b565b613b286040830184613a8d565b8181036060830152613b3981613ad6565b9050949350505050565b6000613b4e826129c5565b9150613b59836129c5565b9250827fffffffffffffffffffffffffffffffffffffffffffffffffffffffffffffffff03821115613b8e57613b8d6138e1565b5b828201905092915050565b6000604082019050613bae6000830185612a3b565b613bbb6020830184612a3b565b9392505050565b7f4f776e61626c653a206e6577206f776e657220697320746865207a65726f206160008201527f6464726573730000000000000000000000000000000000000000000000000000602082015250565b6000613c1e602683612ce7565b9150613c2982613bc2565b604082019050919050565b60006020820190508181036000830152613c4d81613c11565b9050919050565b7f4e487b7100000000000000000000000000000000000000000000000000000000600052601260045260246000fd5b6000613c8e826129c5565b9150613c99836129c5565b925082613ca957613ca8613c54565b5b828204905092915050565b6000613cbf826129c5565b9150613cca836129c5565b925082821015613cdd57613cdc6138e1565b5b828203905092915050565b6000613cf3826129c5565b9150613cfe836129c5565b925082613d0e57613d0d613c54565b5b828206905092915050565b7f455243313135353a206d696e7420746f20746865207a65726f2061646472657360008201527f7300000000000000000000000000000000000000000000000000000000000000602082015250565b6000613d75602183612ce7565b9150613d8082613d19565b604082019050919050565b60006020820190508181036000830152613da481613d68565b9050919050565b7f455243313135353a2069647320616e6420616d6f756e7473206c656e6774682060008201527f6d69736d61746368000000000000000000000000000000000000000000000000602082015250565b6000613e07602883612ce7565b9150613e1282613dab565b604082019050919050565b60006020820190508181036000830152613e3681613dfa565b9050919050565b60006040820190508181036000830152613e578185613214565b90508181036020830152613e6b8184613214565b90509392505050565b7f455243313135353a207472616e7366657220746f20746865207a65726f20616460008201527f6472657373000000000000000000000000000000000000000000000000000000602082015250565b6000613ed0602583612ce7565b9150613edb82613e74565b604082019050919050565b60006020820190508181036000830152613eff81613ec3565b9050919050565b7f455243313135353a20696e73756666696369656e742062616c616e636520666f60008201527f72207472616e7366657200000000000000000000000000000000000000000000602082015250565b6000613f62602a83612ce7565b9150613f6d82613f06565b604082019050919050565b60006020820190508181036000830152613f9181613f55565b9050919050565b7f5061757361626c653a206e6f7420706175736564000000000000000000000000600082015250565b6000613fce601483612ce7565b9150613fd982613f98565b602082019050919050565b60006020820190508181036000830152613ffd81613fc1565b9050919050565b7f455243313135353a206275726e2066726f6d20746865207a65726f206164647260008201527f6573730000000000000000000000000000000000000000000000000000000000602082015250565b6000614060602383612ce7565b915061406b82614004565b604082019050919050565b6000602082019050818103600083015261408f81614053565b9050919050565b7f455243313135353a206275726e20616d6f756e7420657863656564732062616c60008201527f616e636500000000000000000000000000000000000000000000000000000000602082015250565b60006140f2602483612ce7565b91506140fd82614096565b604082019050919050565b60006020820190508181036000830152614121816140e5565b9050919050565b7f5061757361626c653a2070617573656400000000000000000000000000000000600082015250565b600061415e601083612ce7565b915061416982614128565b602082019050919050565b6000602082019050818103600083015261418d81614151565b9050919050565b7f455243313135353a2073657474696e6720617070726f76616c2073746174757360008201527f20666f722073656c660000000000000000000000000000000000000000000000602082015250565b60006141f0602983612ce7565b91506141fb82614194565b604082019050919050565b6000602082019050818103600083015261421f816141e3565b9050919050565b600081519050919050565b600061423c82614226565b6142468185613a9c565b9350614256818560208601612cf8565b61425f81612b2a565b840191505092915050565b600060a08201905061427f6000830188613294565b61428c6020830187613294565b818103604083015261429e8186613214565b905081810360608301526142b28185613214565b905081810360808301526142c68184614231565b90509695505050505050565b6000815190506142e181612a91565b92915050565b6000602082840312156142fd576142fc61295d565b5b600061430b848285016142d2565b91505092915050565b60008160e01c9050919050565b600060033d11156143405760046000803e61433d600051614314565b90505b90565b600060443d1015614353576143d6565b61435b612953565b60043d036004823e80513d602482011167ffffffffffffffff821117156143835750506143d6565b808201805167ffffffffffffffff8111156143a157505050506143d6565b80602083010160043d0385018111156143be5750505050506143d6565b6143cd82602001850186612b6a565b82955050505050505b90565b7f455243313135353a207472616e7366657220746f206e6f6e204552433131353560008201527f526563656976657220696d706c656d656e746572000000000000000000000000602082015250565b6000614435603483612ce7565b9150614440826143d9565b604082019050919050565b6000602082019050818103600083015261446481614428565b9050919050565b7f455243313135353a204552433131353552656365697665722072656a6563746560008201527f6420746f6b656e73000000000000000000000000000000000000000000000000602082015250565b60006144c7602883612ce7565b91506144d28261446b565b604082019050919050565b600060208201905081810360008301526144f6816144ba565b9050919050565b600060a0820190506145126000830188613294565b61451f6020830187613294565b61452c6040830186612a3b565b6145396060830185612a3b565b818103608083015261454b8184614231565b90509695505050505050565b7f4e487b7100000000000000000000000000000000000000000000000000000000600052602260045260246000fd5b6000600282049050600182168061459e57607f821691505b602082108114156145b2576145b1614557565b5b5091905056fea26469706673582212204f24512deb70c237286215014136c9bd713afbb814517b86c33e1c65d61c317c64736f6c6343000809003368747470733a2f2f67616d652e686265617374732e636f6d2f656767732f7b69647d",
  "immutableReferences": {},
  "source": "// SPDX-License-Identifier: MIT\n\npragma solidity >=0.4.22 <0.9.0;\n\nimport \"./HatchingEgg.sol\";\nimport \"./ERC1155SupplyForOwner.sol\";\n\nimport \"@openzeppelin/contracts/token/ERC1155/ERC1155.sol\";\nimport \"@openzeppelin/contracts/access/Ownable.sol\";\nimport \"@openzeppelin/contracts/security/Pausable.sol\";\nimport \"@openzeppelin/contracts/token/ERC1155/extensions/ERC1155Burnable.sol\";\n\ncontract Egg is\n    ERC1155,\n    Ownable,\n    Pausable,\n    ERC1155Burnable,\n    ERC1155SupplyForOwner\n{\n    address public nftAddress; // Hatching egg address\n\n    enum Colors {\n        RED,\n        GREEN,\n        YELLOW,\n        BLUE\n    }\n\n    event EggHatched(\n        address indexed to,\n        uint256 optionId,\n        uint256 readyTimestamp\n    );\n\n    uint256 public constant NUM_OPTIONS = 4;\n    uint256 private delay;\n\n    constructor(address _nftAddress, uint256 _delay)\n        ERC1155(\"https://game.hbeasts.com/eggs/{id}\")\n    {\n        nftAddress = _nftAddress;\n        delay = _delay;\n    }\n\n    function setURI(string memory newuri) public onlyOwner {\n        _setURI(newuri);\n    }\n\n    function pause() public onlyOwner {\n        _pause();\n    }\n\n    function unpause() public onlyOwner {\n        _unpause();\n    }\n\n    function supplyForOwner(address _owner) public view returns (uint256) {\n        return _supplyForOwner(_owner, NUM_OPTIONS);\n    }\n\n    function hatch(uint256 _optionId) public {\n        _burn(msg.sender, _optionId, 1);\n        HatchingEgg hatching = HatchingEgg(nftAddress);\n        hatching.mint(msg.sender, _optionId, 1, \"0x00\");\n        emit EggHatched(msg.sender, _optionId, block.timestamp + delay);\n    }\n\n    function mint(\n        address account,\n        uint256 id,\n        uint256 amount,\n        bytes memory data\n    ) public onlyOwner {\n        require(id < NUM_OPTIONS, \"Unavailable Option\");\n        _mint(account, id, amount, data);\n    }\n\n    function mintBatch(\n        address to,\n        uint256[] memory ids,\n        uint256[] memory amounts,\n        bytes memory data\n    ) public onlyOwner {\n        _mintBatch(to, ids, amounts, data);\n    }\n\n    function _beforeTokenTransfer(\n        address operator,\n        address from,\n        address to,\n        uint256[] memory ids,\n        uint256[] memory amounts,\n        bytes memory data\n    ) internal override(ERC1155) whenNotPaused {\n        super._beforeTokenTransfer(operator, from, to, ids, amounts, data);\n    }\n\n    function uri(uint256 tokenId)override public view returns(string memory){\n        return(\n            string(abi.encodePacked(\n                \"https://game.hbeasts.com/\",\n                Strings.toString(tokenId),\n                \".json\"\n            ))\n        );\n    }\n}\n",
  "sourcePath": "C:\\Users\\lfy\\Desktop\\contract-main\\legendofbeasts\\contracts\\Egg.sol",
  "compiler": {
    "name": "solc",
    "version": "0.8.9+commit.e5eed63a.Emscripten.clang"
  },
  "schemaVersion": "3.4.4",
  "updatedAt": "2022-01-05T13:31:34.602Z",
  "devdoc": {
    "kind": "dev",
    "methods": {
      "balanceOf(address,uint256)": {
        "details": "See {IERC1155-balanceOf}. Requirements: - `account` cannot be the zero address."
      },
      "balanceOfBatch(address[],uint256[])": {
        "details": "See {IERC1155-balanceOfBatch}. Requirements: - `accounts` and `ids` must have the same length."
      },
      "isApprovedForAll(address,address)": {
        "details": "See {IERC1155-isApprovedForAll}."
      },
      "owner()": {
        "details": "Returns the address of the current owner."
      },
      "paused()": {
        "details": "Returns true if the contract is paused, and false otherwise."
      },
      "renounceOwnership()": {
        "details": "Leaves the contract without owner. It will not be possible to call `onlyOwner` functions anymore. Can only be called by the current owner. NOTE: Renouncing ownership will leave the contract without an owner, thereby removing any functionality that is only available to the owner."
      },
      "safeBatchTransferFrom(address,address,uint256[],uint256[],bytes)": {
        "details": "See {IERC1155-safeBatchTransferFrom}."
      },
      "safeTransferFrom(address,address,uint256,uint256,bytes)": {
        "details": "See {IERC1155-safeTransferFrom}."
      },
      "setApprovalForAll(address,bool)": {
        "details": "See {IERC1155-setApprovalForAll}."
      },
      "supportsInterface(bytes4)": {
        "details": "See {IERC165-supportsInterface}."
      },
      "transferOwnership(address)": {
        "details": "Transfers ownership of the contract to a new account (`newOwner`). Can only be called by the current owner."
      }
    },
    "version": 1
  },
  "userdoc": {
    "kind": "user",
    "methods": {},
    "version": 1
  }
}