{
  "contractName": "HatchingEgg",
  "abi": [
    {
      "inputs": [
        {
          "internalType": "address",
          "name": "_nftAddress",
          "type": "address"
        },
        {
          "internalType": "uint256",
          "name": "delay",
          "type": "uint256"
        }
      ],
      "stateMutability": "nonpayable",
      "type": "constructor"
    },
    {
      "anonymous": false,
      "inputs": [
        {
          "indexed": true,
          "internalType": "address",
          "name": "account",
          "type": "address"
        },
        {
          "indexed": true,
          "internalType": "address",
          "name": "operator",
          "type": "address"
        },
        {
          "indexed": false,
          "internalType": "bool",
          "name": "approved",
          "type": "bool"
        }
      ],
      "name": "ApprovalForAll",
      "type": "event"
    },
    {
      "anonymous": false,
      "inputs": [
        {
          "indexed": true,
          "internalType": "address",
          "name": "previousOwner",
          "type": "address"
        },
        {
          "indexed": true,
          "internalType": "address",
          "name": "newOwner",
          "type": "address"
        }
      ],
      "name": "OwnershipTransferred",
      "type": "event"
    },
    {
      "anonymous": false,
      "inputs": [
        {
          "indexed": false,
          "internalType": "address",
          "name": "account",
          "type": "address"
        }
      ],
      "name": "Paused",
      "type": "event"
    },
    {
      "anonymous": false,
      "inputs": [
        {
          "indexed": true,
          "internalType": "address",
          "name": "operator",
          "type": "address"
        },
        {
          "indexed": true,
          "internalType": "address",
          "name": "from",
          "type": "address"
        },
        {
          "indexed": true,
          "internalType": "address",
          "name": "to",
          "type": "address"
        },
        {
          "indexed": false,
          "internalType": "uint256[]",
          "name": "ids",
          "type": "uint256[]"
        },
        {
          "indexed": false,
          "internalType": "uint256[]",
          "name": "values",
          "type": "uint256[]"
        }
      ],
      "name": "TransferBatch",
      "type": "event"
    },
    {
      "anonymous": false,
      "inputs": [
        {
          "indexed": true,
          "internalType": "address",
          "name": "operator",
          "type": "address"
        },
        {
          "indexed": true,
          "internalType": "address",
          "name": "from",
          "type": "address"
        },
        {
          "indexed": true,
          "internalType": "address",
          "name": "to",
          "type": "address"
        },
        {
          "indexed": false,
          "internalType": "uint256",
          "name": "id",
          "type": "uint256"
        },
        {
          "indexed": false,
          "internalType": "uint256",
          "name": "value",
          "type": "uint256"
        }
      ],
      "name": "TransferSingle",
      "type": "event"
    },
    {
      "anonymous": false,
      "inputs": [
        {
          "indexed": false,
          "internalType": "string",
          "name": "value",
          "type": "string"
        },
        {
          "indexed": true,
          "internalType": "uint256",
          "name": "id",
          "type": "uint256"
        }
      ],
      "name": "URI",
      "type": "event"
    },
    {
      "anonymous": false,
      "inputs": [
        {
          "indexed": false,
          "internalType": "address",
          "name": "account",
          "type": "address"
        }
      ],
      "name": "Unpaused",
      "type": "event"
    },
    {
      "inputs": [
        {
          "internalType": "address",
          "name": "account",
          "type": "address"
        },
        {
          "internalType": "uint256",
          "name": "id",
          "type": "uint256"
        }
      ],
      "name": "balanceOf",
      "outputs": [
        {
          "internalType": "uint256",
          "name": "",
          "type": "uint256"
        }
      ],
      "stateMutability": "view",
      "type": "function",
      "constant": true
    },
    {
      "inputs": [
        {
          "internalType": "address[]",
          "name": "accounts",
          "type": "address[]"
        },
        {
          "internalType": "uint256[]",
          "name": "ids",
          "type": "uint256[]"
        }
      ],
      "name": "balanceOfBatch",
      "outputs": [
        {
          "internalType": "uint256[]",
          "name": "",
          "type": "uint256[]"
        }
      ],
      "stateMutability": "view",
      "type": "function",
      "constant": true
    },
    {
      "inputs": [
        {
          "internalType": "address",
          "name": "account",
          "type": "address"
        },
        {
          "internalType": "uint256",
          "name": "id",
          "type": "uint256"
        },
        {
          "internalType": "uint256",
          "name": "value",
          "type": "uint256"
        }
      ],
      "name": "burn",
      "outputs": [],
      "stateMutability": "nonpayable",
      "type": "function"
    },
    {
      "inputs": [
        {
          "internalType": "address",
          "name": "account",
          "type": "address"
        },
        {
          "internalType": "uint256[]",
          "name": "ids",
          "type": "uint256[]"
        },
        {
          "internalType": "uint256[]",
          "name": "values",
          "type": "uint256[]"
        }
      ],
      "name": "burnBatch",
      "outputs": [],
      "stateMutability": "nonpayable",
      "type": "function"
    },
    {
      "inputs": [
        {
          "internalType": "address",
          "name": "account",
          "type": "address"
        },
        {
          "internalType": "address",
          "name": "operator",
          "type": "address"
        }
      ],
      "name": "isApprovedForAll",
      "outputs": [
        {
          "internalType": "bool",
          "name": "",
          "type": "bool"
        }
      ],
      "stateMutability": "view",
      "type": "function",
      "constant": true
    },
    {
      "inputs": [],
      "name": "owner",
      "outputs": [
        {
          "internalType": "address",
          "name": "",
          "type": "address"
        }
      ],
      "stateMutability": "view",
      "type": "function",
      "constant": true
    },
    {
      "inputs": [],
      "name": "paused",
      "outputs": [
        {
          "internalType": "bool",
          "name": "",
          "type": "bool"
        }
      ],
      "stateMutability": "view",
      "type": "function",
      "constant": true
    },
    {
      "inputs": [],
      "name": "renounceOwnership",
      "outputs": [],
      "stateMutability": "nonpayable",
      "type": "function"
    },
    {
      "inputs": [
        {
          "internalType": "address",
          "name": "from",
          "type": "address"
        },
        {
          "internalType": "address",
          "name": "to",
          "type": "address"
        },
        {
          "internalType": "uint256[]",
          "name": "ids",
          "type": "uint256[]"
        },
        {
          "internalType": "uint256[]",
          "name": "amounts",
          "type": "uint256[]"
        },
        {
          "internalType": "bytes",
          "name": "data",
          "type": "bytes"
        }
      ],
      "name": "safeBatchTransferFrom",
      "outputs": [],
      "stateMutability": "nonpayable",
      "type": "function"
    },
    {
      "inputs": [
        {
          "internalType": "address",
          "name": "from",
          "type": "address"
        },
        {
          "internalType": "address",
          "name": "to",
          "type": "address"
        },
        {
          "internalType": "uint256",
          "name": "id",
          "type": "uint256"
        },
        {
          "internalType": "uint256",
          "name": "amount",
          "type": "uint256"
        },
        {
          "internalType": "bytes",
          "name": "data",
          "type": "bytes"
        }
      ],
      "name": "safeTransferFrom",
      "outputs": [],
      "stateMutability": "nonpayable",
      "type": "function"
    },
    {
      "inputs": [
        {
          "internalType": "address",
          "name": "operator",
          "type": "address"
        },
        {
          "internalType": "bool",
          "name": "approved",
          "type": "bool"
        }
      ],
      "name": "setApprovalForAll",
      "outputs": [],
      "stateMutability": "nonpayable",
      "type": "function"
    },
    {
      "inputs": [
        {
          "internalType": "bytes4",
          "name": "interfaceId",
          "type": "bytes4"
        }
      ],
      "name": "supportsInterface",
      "outputs": [
        {
          "internalType": "bool",
          "name": "",
          "type": "bool"
        }
      ],
      "stateMutability": "view",
      "type": "function",
      "constant": true
    },
    {
      "inputs": [
        {
          "internalType": "address",
          "name": "newOwner",
          "type": "address"
        }
      ],
      "name": "transferOwnership",
      "outputs": [],
      "stateMutability": "nonpayable",
      "type": "function"
    },
    {
      "inputs": [
        {
          "internalType": "uint256",
          "name": "",
          "type": "uint256"
        }
      ],
      "name": "uri",
      "outputs": [
        {
          "internalType": "string",
          "name": "",
          "type": "string"
        }
      ],
      "stateMutability": "view",
      "type": "function",
      "constant": true
    },
    {
      "inputs": [
        {
          "internalType": "uint256",
          "name": "delay",
          "type": "uint256"
        }
      ],
      "name": "setDelay",
      "outputs": [],
      "stateMutability": "nonpayable",
      "type": "function"
    },
    {
      "inputs": [
        {
          "internalType": "string",
          "name": "newuri",
          "type": "string"
        }
      ],
      "name": "setURI",
      "outputs": [],
      "stateMutability": "nonpayable",
      "type": "function"
    },
    {
      "inputs": [],
      "name": "pause",
      "outputs": [],
      "stateMutability": "nonpayable",
      "type": "function"
    },
    {
      "inputs": [],
      "name": "unpause",
      "outputs": [],
      "stateMutability": "nonpayable",
      "type": "function"
    },
    {
      "inputs": [],
      "name": "numOptions",
      "outputs": [
        {
          "internalType": "uint256",
          "name": "",
          "type": "uint256"
        }
      ],
      "stateMutability": "pure",
      "type": "function",
      "constant": true
    },
    {
      "inputs": [
        {
          "internalType": "uint256",
          "name": "_optionId",
          "type": "uint256"
        }
      ],
      "name": "breakUp",
      "outputs": [],
      "stateMutability": "nonpayable",
      "type": "function"
    },
    {
      "inputs": [
        {
          "internalType": "address",
          "name": "_owner",
          "type": "address"
        }
      ],
      "name": "dueTime",
      "outputs": [
        {
          "internalType": "uint256",
          "name": "",
          "type": "uint256"
        }
      ],
      "stateMutability": "view",
      "type": "function",
      "constant": true
    },
    {
      "inputs": [
        {
          "internalType": "address",
          "name": "_owner",
          "type": "address"
        }
      ],
      "name": "isReady",
      "outputs": [
        {
          "internalType": "bool",
          "name": "",
          "type": "bool"
        }
      ],
      "stateMutability": "view",
      "type": "function",
      "constant": true
    },
    {
      "inputs": [
        {
          "internalType": "address",
          "name": "account",
          "type": "address"
        },
        {
          "internalType": "uint256",
          "name": "id",
          "type": "uint256"
        },
        {
          "internalType": "uint256",
          "name": "amount",
          "type": "uint256"
        },
        {
          "internalType": "bytes",
          "name": "data",
          "type": "bytes"
        }
      ],
      "name": "mint",
      "outputs": [],
      "stateMutability": "nonpayable",
      "type": "function"
    },
    {
      "inputs": [
        {
          "internalType": "address",
          "name": "to",
          "type": "address"
        },
        {
          "internalType": "uint256[]",
          "name": "ids",
          "type": "uint256[]"
        },
        {
          "internalType": "uint256[]",
          "name": "amounts",
          "type": "uint256[]"
        },
        {
          "internalType": "bytes",
          "name": "data",
          "type": "bytes"
        }
      ],
      "name": "mintBatch",
      "outputs": [],
      "stateMutability": "nonpayable",
      "type": "function"
    }
  ],
  "bytecode": "0x60806040523480156200001157600080fd5b5060405162004abf38038062004abf833981810160405281019062000037919062000335565b6040518060600160405280602c815260200162004a93602c91396200006281620000f660201b60201c565b5062000083620000776200011260201b60201c565b6200011a60201b60201c565b6000600360146101000a81548160ff021916908315150217905550600160048190555081600760006101000a81548173ffffffffffffffffffffffffffffffffffffffff021916908373ffffffffffffffffffffffffffffffffffffffff160217905550806006819055505050620003e1565b80600290805190602001906200010e929190620001e0565b5050565b600033905090565b6000600360009054906101000a900473ffffffffffffffffffffffffffffffffffffffff16905081600360006101000a81548173ffffffffffffffffffffffffffffffffffffffff021916908373ffffffffffffffffffffffffffffffffffffffff1602179055508173ffffffffffffffffffffffffffffffffffffffff168173ffffffffffffffffffffffffffffffffffffffff167f8be0079c531659141344cd1fd0a4f28419497f9722a3daafe3b4186f6b6457e060405160405180910390a35050565b828054620001ee90620003ab565b90600052602060002090601f0160209004810192826200021257600085556200025e565b82601f106200022d57805160ff19168380011785556200025e565b828001600101855582156200025e579182015b828111156200025d57825182559160200191906001019062000240565b5b5090506200026d919062000271565b5090565b5b808211156200028c57600081600090555060010162000272565b5090565b600080fd5b600073ffffffffffffffffffffffffffffffffffffffff82169050919050565b6000620002c28262000295565b9050919050565b620002d481620002b5565b8114620002e057600080fd5b50565b600081519050620002f481620002c9565b92915050565b6000819050919050565b6200030f81620002fa565b81146200031b57600080fd5b50565b6000815190506200032f8162000304565b92915050565b600080604083850312156200034f576200034e62000290565b5b60006200035f85828601620002e3565b925050602062000372858286016200031e565b9150509250929050565b7f4e487b7100000000000000000000000000000000000000000000000000000000600052602260045260246000fd5b60006002820490506001821680620003c457607f821691505b60208210811415620003db57620003da6200037c565b5b50919050565b6146a280620003f16000396000f3fe608060405234801561001057600080fd5b50600436106101575760003560e01c80636b20c454116100c3578063d8da96ef1161007c578063d8da96ef1461039c578063e177246e146103b8578063e985e9c5146103d4578063f242432a14610404578063f2fde38b14610420578063f5298aca1461043c57610157565b80636b20c45414610316578063715018a614610332578063731133e91461033c5780638456cb59146103585780638da5cb5b14610362578063a22cb4651461038057610157565b80632eb2c2d6116101155780632eb2c2d6146102545780633552f5a4146102705780633f4ba83a146102a05780634b97aed9146102aa5780634e1273f4146102c85780635c975abb146102f857610157565b8062fdd58e1461015c57806301ffc9a71461018c57806302fe5305146101bc5780630e89341c146101d85780631f7fdffa146102085780632d798d6314610224575b600080fd5b61017660048036038101906101719190612b97565b610458565b6040516101839190612be6565b60405180910390f35b6101a660048036038101906101a19190612c59565b610521565b6040516101b39190612ca1565b60405180910390f35b6101d660048036038101906101d19190612e02565b610603565b005b6101f260048036038101906101ed9190612e4b565b61068b565b6040516101ff9190612f00565b60405180910390f35b610222600480360381019061021d919061308b565b61071f565b005b61023e60048036038101906102399190613146565b6107ad565b60405161024b9190612be6565b60405180910390f35b61026e60048036038101906102699190613173565b6107f6565b005b61028a60048036038101906102859190613146565b610897565b6040516102979190612ca1565b60405180910390f35b6102a86108e2565b005b6102b2610968565b6040516102bf9190612be6565b60405180910390f35b6102e260048036038101906102dd9190613305565b610971565b6040516102ef919061343b565b60405180910390f35b610300610a8a565b60405161030d9190612ca1565b60405180910390f35b610330600480360381019061032b919061345d565b610aa1565b005b61033a610b3e565b005b610356600480360381019061035191906134e8565b610bc6565b005b610360610d4a565b005b61036a610dd0565b604051610377919061357a565b60405180910390f35b61039a600480360381019061039591906135c1565b610dfa565b005b6103b660048036038101906103b19190612e4b565b610e10565b005b6103d260048036038101906103cd9190612e4b565b610f9e565b005b6103ee60048036038101906103e99190613601565b611024565b6040516103fb9190612ca1565b60405180910390f35b61041e60048036038101906104199190613641565b6110b8565b005b61043a60048036038101906104359190613146565b611159565b005b610456600480360381019061045191906136d8565b611251565b005b60008073ffffffffffffffffffffffffffffffffffffffff168373ffffffffffffffffffffffffffffffffffffffff1614156104c9576040517f08c379a00000000000000000000000000000000000000000000000000000000081526004016104c09061379d565b60405180910390fd5b60008083815260200190815260200160002060008473ffffffffffffffffffffffffffffffffffffffff1673ffffffffffffffffffffffffffffffffffffffff16815260200190815260200160002054905092915050565b60007fd9b67a26000000000000000000000000000000000000000000000000000000007bffffffffffffffffffffffffffffffffffffffffffffffffffffffff1916827bffffffffffffffffffffffffffffffffffffffffffffffffffffffff191614806105ec57507f0e89341c000000000000000000000000000000000000000000000000000000007bffffffffffffffffffffffffffffffffffffffffffffffffffffffff1916827bffffffffffffffffffffffffffffffffffffffffffffffffffffffff1916145b806105fc57506105fb826112ee565b5b9050919050565b61060b611358565b73ffffffffffffffffffffffffffffffffffffffff16610629610dd0565b73ffffffffffffffffffffffffffffffffffffffff161461067f576040517f08c379a000000000000000000000000000000000000000000000000000000000815260040161067690613809565b60405180910390fd5b61068881611360565b50565b60606002805461069a90613858565b80601f01602080910402602001604051908101604052809291908181526020018280546106c690613858565b80156107135780601f106106e857610100808354040283529160200191610713565b820191906000526020600020905b8154815290600101906020018083116106f657829003601f168201915b50505050509050919050565b610727611358565b73ffffffffffffffffffffffffffffffffffffffff16610745610dd0565b73ffffffffffffffffffffffffffffffffffffffff161461079b576040517f08c379a000000000000000000000000000000000000000000000000000000000815260040161079290613809565b60405180910390fd5b6107a78484848461137a565b50505050565b6000600560008373ffffffffffffffffffffffffffffffffffffffff1673ffffffffffffffffffffffffffffffffffffffff168152602001908152602001600020549050919050565b6107fe611358565b73ffffffffffffffffffffffffffffffffffffffff168573ffffffffffffffffffffffffffffffffffffffff16148061084457506108438561083e611358565b611024565b5b610883576040517f08c379a000000000000000000000000000000000000000000000000000000000815260040161087a906138fc565b60405180910390fd5b6108908585858585611598565b5050505050565b600042600560008473ffffffffffffffffffffffffffffffffffffffff1673ffffffffffffffffffffffffffffffffffffffff16815260200190815260200160002054109050919050565b6108ea611358565b73ffffffffffffffffffffffffffffffffffffffff16610908610dd0565b73ffffffffffffffffffffffffffffffffffffffff161461095e576040517f08c379a000000000000000000000000000000000000000000000000000000000815260040161095590613809565b60405180910390fd5b6109666118ac565b565b60006004905090565b606081518351146109b7576040517f08c379a00000000000000000000000000000000000000000000000000000000081526004016109ae9061398e565b60405180910390fd5b6000835167ffffffffffffffff8111156109d4576109d3612cd7565b5b604051908082528060200260200182016040528015610a025781602001602082028036833780820191505090505b50905060005b8451811015610a7f57610a4f858281518110610a2757610a266139ae565b5b6020026020010151858381518110610a4257610a416139ae565b5b6020026020010151610458565b828281518110610a6257610a616139ae565b5b60200260200101818152505080610a7890613a0c565b9050610a08565b508091505092915050565b6000600360149054906101000a900460ff16905090565b610aa9611358565b73ffffffffffffffffffffffffffffffffffffffff168373ffffffffffffffffffffffffffffffffffffffff161480610aef5750610aee83610ae9611358565b611024565b5b610b2e576040517f08c379a0000000000000000000000000000000000000000000000000000000008152600401610b2590613ac7565b60405180910390fd5b610b3983838361194e565b505050565b610b46611358565b73ffffffffffffffffffffffffffffffffffffffff16610b64610dd0565b73ffffffffffffffffffffffffffffffffffffffff1614610bba576040517f08c379a0000000000000000000000000000000000000000000000000000000008152600401610bb190613809565b60405180910390fd5b610bc46000611bff565b565b610bce611358565b73ffffffffffffffffffffffffffffffffffffffff16610bec610dd0565b73ffffffffffffffffffffffffffffffffffffffff1614610c42576040517f08c379a0000000000000000000000000000000000000000000000000000000008152600401610c3990613809565b60405180910390fd5b60026004541415610c88576040517f08c379a0000000000000000000000000000000000000000000000000000000008152600401610c7f90613b33565b60405180910390fd5b6002600481905550610ca0610c9b611358565b610897565b610cdf576040517f08c379a0000000000000000000000000000000000000000000000000000000008152600401610cd690613bc5565b60405180910390fd5b610ceb84848484611cc5565b60065442610cf99190613be5565b600560008673ffffffffffffffffffffffffffffffffffffffff1673ffffffffffffffffffffffffffffffffffffffff16815260200190815260200160002081905550600160048190555050505050565b610d52611358565b73ffffffffffffffffffffffffffffffffffffffff16610d70610dd0565b73ffffffffffffffffffffffffffffffffffffffff1614610dc6576040517f08c379a0000000000000000000000000000000000000000000000000000000008152600401610dbd90613809565b60405180910390fd5b610dce611e5b565b565b6000600360009054906101000a900473ffffffffffffffffffffffffffffffffffffffff16905090565b610e0c610e05611358565b8383611efe565b5050565b60026004541415610e56576040517f08c379a0000000000000000000000000000000000000000000000000000000008152600401610e4d90613b33565b60405180910390fd5b6002600481905550610e6e610e69611358565b610897565b610ead576040517f08c379a0000000000000000000000000000000000000000000000000000000008152600401610ea490613cad565b60405180910390fd5b610eb93382600161206b565b6001600560003373ffffffffffffffffffffffffffffffffffffffff1673ffffffffffffffffffffffffffffffffffffffff168152602001908152602001600020819055506000600760009054906101000a900473ffffffffffffffffffffffffffffffffffffffff1690508073ffffffffffffffffffffffffffffffffffffffff1663a06c13d533846040518363ffffffff1660e01b8152600401610f60929190613ccd565b600060405180830381600087803b158015610f7a57600080fd5b505af1158015610f8e573d6000803e3d6000fd5b5050505050600160048190555050565b610fa6611358565b73ffffffffffffffffffffffffffffffffffffffff16610fc4610dd0565b73ffffffffffffffffffffffffffffffffffffffff161461101a576040517f08c379a000000000000000000000000000000000000000000000000000000000815260040161101190613809565b60405180910390fd5b8060068190555050565b6000600160008473ffffffffffffffffffffffffffffffffffffffff1673ffffffffffffffffffffffffffffffffffffffff16815260200190815260200160002060008373ffffffffffffffffffffffffffffffffffffffff1673ffffffffffffffffffffffffffffffffffffffff16815260200190815260200160002060009054906101000a900460ff16905092915050565b6110c0611358565b73ffffffffffffffffffffffffffffffffffffffff168573ffffffffffffffffffffffffffffffffffffffff161480611106575061110585611100611358565b611024565b5b611145576040517f08c379a000000000000000000000000000000000000000000000000000000000815260040161113c90613ac7565b60405180910390fd5b6111528585858585612288565b5050505050565b611161611358565b73ffffffffffffffffffffffffffffffffffffffff1661117f610dd0565b73ffffffffffffffffffffffffffffffffffffffff16146111d5576040517f08c379a00000000000000000000000000000000000000000000000000000000081526004016111cc90613809565b60405180910390fd5b600073ffffffffffffffffffffffffffffffffffffffff168173ffffffffffffffffffffffffffffffffffffffff161415611245576040517f08c379a000000000000000000000000000000000000000000000000000000000815260040161123c90613d68565b60405180910390fd5b61124e81611bff565b50565b611259611358565b73ffffffffffffffffffffffffffffffffffffffff168373ffffffffffffffffffffffffffffffffffffffff16148061129f575061129e83611299611358565b611024565b5b6112de576040517f08c379a00000000000000000000000000000000000000000000000000000000081526004016112d590613ac7565b60405180910390fd5b6112e983838361206b565b505050565b60007f01ffc9a7000000000000000000000000000000000000000000000000000000007bffffffffffffffffffffffffffffffffffffffffffffffffffffffff1916827bffffffffffffffffffffffffffffffffffffffffffffffffffffffff1916149050919050565b600033905090565b8060029080519060200190611376929190612a4c565b5050565b600073ffffffffffffffffffffffffffffffffffffffff168473ffffffffffffffffffffffffffffffffffffffff1614156113ea576040517f08c379a00000000000000000000000000000000000000000000000000000000081526004016113e190613dfa565b60405180910390fd5b815183511461142e576040517f08c379a000000000000000000000000000000000000000000000000000000000815260040161142590613e8c565b60405180910390fd5b6000611438611358565b90506114498160008787878761250a565b60005b845181101561150257838181518110611468576114676139ae565b5b6020026020010151600080878481518110611486576114856139ae565b5b6020026020010151815260200190815260200160002060008873ffffffffffffffffffffffffffffffffffffffff1673ffffffffffffffffffffffffffffffffffffffff16815260200190815260200160002060008282546114e89190613be5565b9250508190555080806114fa90613a0c565b91505061144c565b508473ffffffffffffffffffffffffffffffffffffffff16600073ffffffffffffffffffffffffffffffffffffffff168273ffffffffffffffffffffffffffffffffffffffff167f4a39dc06d4c0dbc64b70af90fd698a233a518aa5d07e595d983b8c0526c8f7fb878760405161157a929190613eac565b60405180910390a4611591816000878787876125e9565b5050505050565b81518351146115dc576040517f08c379a00000000000000000000000000000000000000000000000000000000081526004016115d390613e8c565b60405180910390fd5b600073ffffffffffffffffffffffffffffffffffffffff168473ffffffffffffffffffffffffffffffffffffffff16141561164c576040517f08c379a000000000000000000000000000000000000000000000000000000000815260040161164390613f55565b60405180910390fd5b6000611656611358565b905061166681878787878761250a565b60005b8451811015611817576000858281518110611687576116866139ae565b5b6020026020010151905060008583815181106116a6576116a56139ae565b5b60200260200101519050600080600084815260200190815260200160002060008b73ffffffffffffffffffffffffffffffffffffffff1673ffffffffffffffffffffffffffffffffffffffff16815260200190815260200160002054905081811015611747576040517f08c379a000000000000000000000000000000000000000000000000000000000815260040161173e90613fe7565b60405180910390fd5b81810360008085815260200190815260200160002060008c73ffffffffffffffffffffffffffffffffffffffff1673ffffffffffffffffffffffffffffffffffffffff168152602001908152602001600020819055508160008085815260200190815260200160002060008b73ffffffffffffffffffffffffffffffffffffffff1673ffffffffffffffffffffffffffffffffffffffff16815260200190815260200160002060008282546117fc9190613be5565b925050819055505050508061181090613a0c565b9050611669565b508473ffffffffffffffffffffffffffffffffffffffff168673ffffffffffffffffffffffffffffffffffffffff168273ffffffffffffffffffffffffffffffffffffffff167f4a39dc06d4c0dbc64b70af90fd698a233a518aa5d07e595d983b8c0526c8f7fb878760405161188e929190613eac565b60405180910390a46118a48187878787876125e9565b505050505050565b6118b4610a8a565b6118f3576040517f08c379a00000000000000000000000000000000000000000000000000000000081526004016118ea90614053565b60405180910390fd5b6000600360146101000a81548160ff0219169083151502179055507f5db9ee0a495bf2e6ff9c91a7834c1ba4fdd244a5e8aa4e537bd38aeae4b073aa611937611358565b604051611944919061357a565b60405180910390a1565b600073ffffffffffffffffffffffffffffffffffffffff168373ffffffffffffffffffffffffffffffffffffffff1614156119be576040517f08c379a00000000000000000000000000000000000000000000000000000000081526004016119b5906140e5565b60405180910390fd5b8051825114611a02576040517f08c379a00000000000000000000000000000000000000000000000000000000081526004016119f990613e8c565b60405180910390fd5b6000611a0c611358565b9050611a2c8185600086866040518060200160405280600081525061250a565b60005b8351811015611b79576000848281518110611a4d57611a4c6139ae565b5b602002602001015190506000848381518110611a6c57611a6b6139ae565b5b60200260200101519050600080600084815260200190815260200160002060008973ffffffffffffffffffffffffffffffffffffffff1673ffffffffffffffffffffffffffffffffffffffff16815260200190815260200160002054905081811015611b0d576040517f08c379a0000000000000000000000000000000000000000000000000000000008152600401611b0490614177565b60405180910390fd5b81810360008085815260200190815260200160002060008a73ffffffffffffffffffffffffffffffffffffffff1673ffffffffffffffffffffffffffffffffffffffff168152602001908152602001600020819055505050508080611b7190613a0c565b915050611a2f565b50600073ffffffffffffffffffffffffffffffffffffffff168473ffffffffffffffffffffffffffffffffffffffff168273ffffffffffffffffffffffffffffffffffffffff167f4a39dc06d4c0dbc64b70af90fd698a233a518aa5d07e595d983b8c0526c8f7fb8686604051611bf1929190613eac565b60405180910390a450505050565b6000600360009054906101000a900473ffffffffffffffffffffffffffffffffffffffff16905081600360006101000a81548173ffffffffffffffffffffffffffffffffffffffff021916908373ffffffffffffffffffffffffffffffffffffffff1602179055508173ffffffffffffffffffffffffffffffffffffffff168173ffffffffffffffffffffffffffffffffffffffff167f8be0079c531659141344cd1fd0a4f28419497f9722a3daafe3b4186f6b6457e060405160405180910390a35050565b600073ffffffffffffffffffffffffffffffffffffffff168473ffffffffffffffffffffffffffffffffffffffff161415611d35576040517f08c379a0000000000000000000000000000000000000000000000000000000008152600401611d2c90613dfa565b60405180910390fd5b6000611d3f611358565b9050611d6081600087611d51886127d0565b611d5a886127d0565b8761250a565b8260008086815260200190815260200160002060008773ffffffffffffffffffffffffffffffffffffffff1673ffffffffffffffffffffffffffffffffffffffff1681526020019081526020016000206000828254611dbf9190613be5565b925050819055508473ffffffffffffffffffffffffffffffffffffffff16600073ffffffffffffffffffffffffffffffffffffffff168273ffffffffffffffffffffffffffffffffffffffff167fc3d58168c5ae7397731d063d5bbf3d657854427343f4c083240f7aacaa2d0f628787604051611e3d929190614197565b60405180910390a4611e548160008787878761284a565b5050505050565b611e63610a8a565b15611ea3576040517f08c379a0000000000000000000000000000000000000000000000000000000008152600401611e9a9061420c565b60405180910390fd5b6001600360146101000a81548160ff0219169083151502179055507f62e78cea01bee320cd4e420270b5ea74000d11b0c9f74754ebdbfc544b05a258611ee7611358565b604051611ef4919061357a565b60405180910390a1565b8173ffffffffffffffffffffffffffffffffffffffff168373ffffffffffffffffffffffffffffffffffffffff161415611f6d576040517f08c379a0000000000000000000000000000000000000000000000000000000008152600401611f649061429e565b60405180910390fd5b80600160008573ffffffffffffffffffffffffffffffffffffffff1673ffffffffffffffffffffffffffffffffffffffff16815260200190815260200160002060008473ffffffffffffffffffffffffffffffffffffffff1673ffffffffffffffffffffffffffffffffffffffff16815260200190815260200160002060006101000a81548160ff0219169083151502179055508173ffffffffffffffffffffffffffffffffffffffff168373ffffffffffffffffffffffffffffffffffffffff167f17307eab39ab6107e8899845ad3d59bd9653f200f220920489ca2b5937696c318360405161205e9190612ca1565b60405180910390a3505050565b600073ffffffffffffffffffffffffffffffffffffffff168373ffffffffffffffffffffffffffffffffffffffff1614156120db576040517f08c379a00000000000000000000000000000000000000000000000000000000081526004016120d2906140e5565b60405180910390fd5b60006120e5611358565b9050612115818560006120f7876127d0565b612100876127d0565b6040518060200160405280600081525061250a565b600080600085815260200190815260200160002060008673ffffffffffffffffffffffffffffffffffffffff1673ffffffffffffffffffffffffffffffffffffffff168152602001908152602001600020549050828110156121ac576040517f08c379a00000000000000000000000000000000000000000000000000000000081526004016121a390614177565b60405180910390fd5b82810360008086815260200190815260200160002060008773ffffffffffffffffffffffffffffffffffffffff1673ffffffffffffffffffffffffffffffffffffffff16815260200190815260200160002081905550600073ffffffffffffffffffffffffffffffffffffffff168573ffffffffffffffffffffffffffffffffffffffff168373ffffffffffffffffffffffffffffffffffffffff167fc3d58168c5ae7397731d063d5bbf3d657854427343f4c083240f7aacaa2d0f628787604051612279929190614197565b60405180910390a45050505050565b600073ffffffffffffffffffffffffffffffffffffffff168473ffffffffffffffffffffffffffffffffffffffff1614156122f8576040517f08c379a00000000000000000000000000000000000000000000000000000000081526004016122ef90613f55565b60405180910390fd5b6000612302611358565b9050612322818787612313886127d0565b61231c886127d0565b8761250a565b600080600086815260200190815260200160002060008873ffffffffffffffffffffffffffffffffffffffff1673ffffffffffffffffffffffffffffffffffffffff168152602001908152602001600020549050838110156123b9576040517f08c379a00000000000000000000000000000000000000000000000000000000081526004016123b090613fe7565b60405180910390fd5b83810360008087815260200190815260200160002060008973ffffffffffffffffffffffffffffffffffffffff1673ffffffffffffffffffffffffffffffffffffffff168152602001908152602001600020819055508360008087815260200190815260200160002060008873ffffffffffffffffffffffffffffffffffffffff1673ffffffffffffffffffffffffffffffffffffffff168152602001908152602001600020600082825461246e9190613be5565b925050819055508573ffffffffffffffffffffffffffffffffffffffff168773ffffffffffffffffffffffffffffffffffffffff168373ffffffffffffffffffffffffffffffffffffffff167fc3d58168c5ae7397731d063d5bbf3d657854427343f4c083240f7aacaa2d0f6288886040516124eb929190614197565b60405180910390a461250182888888888861284a565b50505050505050565b612512610a8a565b15612552576040517f08c379a00000000000000000000000000000000000000000000000000000000081526004016125499061420c565b60405180910390fd5b42600560008873ffffffffffffffffffffffffffffffffffffffff1673ffffffffffffffffffffffffffffffffffffffff16815260200190815260200160002054106125d3576040517f08c379a00000000000000000000000000000000000000000000000000000000081526004016125ca9061430a565b60405180910390fd5b6125e1868686868686612a31565b505050505050565b6126088473ffffffffffffffffffffffffffffffffffffffff16612a39565b156127c8578373ffffffffffffffffffffffffffffffffffffffff1663bc197c8187878686866040518663ffffffff1660e01b815260040161264e95949392919061437f565b602060405180830381600087803b15801561266857600080fd5b505af192505050801561269957506040513d601f19601f8201168201806040525081019061269691906143fc565b60015b61273f576126a5614436565b806308c379a0141561270257506126ba614458565b806126c55750612704565b806040517f08c379a00000000000000000000000000000000000000000000000000000000081526004016126f99190612f00565b60405180910390fd5b505b6040517f08c379a000000000000000000000000000000000000000000000000000000000815260040161273690614560565b60405180910390fd5b63bc197c8160e01b7bffffffffffffffffffffffffffffffffffffffffffffffffffffffff1916817bffffffffffffffffffffffffffffffffffffffffffffffffffffffff1916146127c6576040517f08c379a00000000000000000000000000000000000000000000000000000000081526004016127bd906145f2565b60405180910390fd5b505b505050505050565b60606000600167ffffffffffffffff8111156127ef576127ee612cd7565b5b60405190808252806020026020018201604052801561281d5781602001602082028036833780820191505090505b5090508281600081518110612835576128346139ae565b5b60200260200101818152505080915050919050565b6128698473ffffffffffffffffffffffffffffffffffffffff16612a39565b15612a29578373ffffffffffffffffffffffffffffffffffffffff1663f23a6e6187878686866040518663ffffffff1660e01b81526004016128af959493929190614612565b602060405180830381600087803b1580156128c957600080fd5b505af19250505080156128fa57506040513d601f19601f820116820180604052508101906128f791906143fc565b60015b6129a057612906614436565b806308c379a01415612963575061291b614458565b806129265750612965565b806040517f08c379a000000000000000000000000000000000000000000000000000000000815260040161295a9190612f00565b60405180910390fd5b505b6040517f08c379a000000000000000000000000000000000000000000000000000000000815260040161299790614560565b60405180910390fd5b63f23a6e6160e01b7bffffffffffffffffffffffffffffffffffffffffffffffffffffffff1916817bffffffffffffffffffffffffffffffffffffffffffffffffffffffff191614612a27576040517f08c379a0000000000000000000000000000000000000000000000000000000008152600401612a1e906145f2565b60405180910390fd5b505b505050505050565b505050505050565b600080823b905060008111915050919050565b828054612a5890613858565b90600052602060002090601f016020900481019282612a7a5760008555612ac1565b82601f10612a9357805160ff1916838001178555612ac1565b82800160010185558215612ac1579182015b82811115612ac0578251825591602001919060010190612aa5565b5b509050612ace9190612ad2565b5090565b5b80821115612aeb576000816000905550600101612ad3565b5090565b6000604051905090565b600080fd5b600080fd5b600073ffffffffffffffffffffffffffffffffffffffff82169050919050565b6000612b2e82612b03565b9050919050565b612b3e81612b23565b8114612b4957600080fd5b50565b600081359050612b5b81612b35565b92915050565b6000819050919050565b612b7481612b61565b8114612b7f57600080fd5b50565b600081359050612b9181612b6b565b92915050565b60008060408385031215612bae57612bad612af9565b5b6000612bbc85828601612b4c565b9250506020612bcd85828601612b82565b9150509250929050565b612be081612b61565b82525050565b6000602082019050612bfb6000830184612bd7565b92915050565b60007fffffffff0000000000000000000000000000000000000000000000000000000082169050919050565b612c3681612c01565b8114612c4157600080fd5b50565b600081359050612c5381612c2d565b92915050565b600060208284031215612c6f57612c6e612af9565b5b6000612c7d84828501612c44565b91505092915050565b60008115159050919050565b612c9b81612c86565b82525050565b6000602082019050612cb66000830184612c92565b92915050565b600080fd5b600080fd5b6000601f19601f8301169050919050565b7f4e487b7100000000000000000000000000000000000000000000000000000000600052604160045260246000fd5b612d0f82612cc6565b810181811067ffffffffffffffff82111715612d2e57612d2d612cd7565b5b80604052505050565b6000612d41612aef565b9050612d4d8282612d06565b919050565b600067ffffffffffffffff821115612d6d57612d6c612cd7565b5b612d7682612cc6565b9050602081019050919050565b82818337600083830152505050565b6000612da5612da084612d52565b612d37565b905082815260208101848484011115612dc157612dc0612cc1565b5b612dcc848285612d83565b509392505050565b600082601f830112612de957612de8612cbc565b5b8135612df9848260208601612d92565b91505092915050565b600060208284031215612e1857612e17612af9565b5b600082013567ffffffffffffffff811115612e3657612e35612afe565b5b612e4284828501612dd4565b91505092915050565b600060208284031215612e6157612e60612af9565b5b6000612e6f84828501612b82565b91505092915050565b600081519050919050565b600082825260208201905092915050565b60005b83811015612eb2578082015181840152602081019050612e97565b83811115612ec1576000848401525b50505050565b6000612ed282612e78565b612edc8185612e83565b9350612eec818560208601612e94565b612ef581612cc6565b840191505092915050565b60006020820190508181036000830152612f1a8184612ec7565b905092915050565b600067ffffffffffffffff821115612f3d57612f3c612cd7565b5b602082029050602081019050919050565b600080fd5b6000612f66612f6184612f22565b612d37565b90508083825260208201905060208402830185811115612f8957612f88612f4e565b5b835b81811015612fb25780612f9e8882612b82565b845260208401935050602081019050612f8b565b5050509392505050565b600082601f830112612fd157612fd0612cbc565b5b8135612fe1848260208601612f53565b91505092915050565b600067ffffffffffffffff82111561300557613004612cd7565b5b61300e82612cc6565b9050602081019050919050565b600061302e61302984612fea565b612d37565b90508281526020810184848401111561304a57613049612cc1565b5b613055848285612d83565b509392505050565b600082601f83011261307257613071612cbc565b5b813561308284826020860161301b565b91505092915050565b600080600080608085870312156130a5576130a4612af9565b5b60006130b387828801612b4c565b945050602085013567ffffffffffffffff8111156130d4576130d3612afe565b5b6130e087828801612fbc565b935050604085013567ffffffffffffffff81111561310157613100612afe565b5b61310d87828801612fbc565b925050606085013567ffffffffffffffff81111561312e5761312d612afe565b5b61313a8782880161305d565b91505092959194509250565b60006020828403121561315c5761315b612af9565b5b600061316a84828501612b4c565b91505092915050565b600080600080600060a0868803121561318f5761318e612af9565b5b600061319d88828901612b4c565b95505060206131ae88828901612b4c565b945050604086013567ffffffffffffffff8111156131cf576131ce612afe565b5b6131db88828901612fbc565b935050606086013567ffffffffffffffff8111156131fc576131fb612afe565b5b61320888828901612fbc565b925050608086013567ffffffffffffffff81111561322957613228612afe565b5b6132358882890161305d565b9150509295509295909350565b600067ffffffffffffffff82111561325d5761325c612cd7565b5b602082029050602081019050919050565b600061328161327c84613242565b612d37565b905080838252602082019050602084028301858111156132a4576132a3612f4e565b5b835b818110156132cd57806132b98882612b4c565b8452602084019350506020810190506132a6565b5050509392505050565b600082601f8301126132ec576132eb612cbc565b5b81356132fc84826020860161326e565b91505092915050565b6000806040838503121561331c5761331b612af9565b5b600083013567ffffffffffffffff81111561333a57613339612afe565b5b613346858286016132d7565b925050602083013567ffffffffffffffff81111561336757613366612afe565b5b61337385828601612fbc565b9150509250929050565b600081519050919050565b600082825260208201905092915050565b6000819050602082019050919050565b6133b281612b61565b82525050565b60006133c483836133a9565b60208301905092915050565b6000602082019050919050565b60006133e88261337d565b6133f28185613388565b93506133fd83613399565b8060005b8381101561342e57815161341588826133b8565b9750613420836133d0565b925050600181019050613401565b5085935050505092915050565b6000602082019050818103600083015261345581846133dd565b905092915050565b60008060006060848603121561347657613475612af9565b5b600061348486828701612b4c565b935050602084013567ffffffffffffffff8111156134a5576134a4612afe565b5b6134b186828701612fbc565b925050604084013567ffffffffffffffff8111156134d2576134d1612afe565b5b6134de86828701612fbc565b9150509250925092565b6000806000806080858703121561350257613501612af9565b5b600061351087828801612b4c565b945050602061352187828801612b82565b935050604061353287828801612b82565b925050606085013567ffffffffffffffff81111561355357613552612afe565b5b61355f8782880161305d565b91505092959194509250565b61357481612b23565b82525050565b600060208201905061358f600083018461356b565b92915050565b61359e81612c86565b81146135a957600080fd5b50565b6000813590506135bb81613595565b92915050565b600080604083850312156135d8576135d7612af9565b5b60006135e685828601612b4c565b92505060206135f7858286016135ac565b9150509250929050565b6000806040838503121561361857613617612af9565b5b600061362685828601612b4c565b925050602061363785828601612b4c565b9150509250929050565b600080600080600060a0868803121561365d5761365c612af9565b5b600061366b88828901612b4c565b955050602061367c88828901612b4c565b945050604061368d88828901612b82565b935050606061369e88828901612b82565b925050608086013567ffffffffffffffff8111156136bf576136be612afe565b5b6136cb8882890161305d565b9150509295509295909350565b6000806000606084860312156136f1576136f0612af9565b5b60006136ff86828701612b4c565b935050602061371086828701612b82565b925050604061372186828701612b82565b9150509250925092565b7f455243313135353a2062616c616e636520717565727920666f7220746865207a60008201527f65726f2061646472657373000000000000000000000000000000000000000000602082015250565b6000613787602b83612e83565b91506137928261372b565b604082019050919050565b600060208201905081810360008301526137b68161377a565b9050919050565b7f4f776e61626c653a2063616c6c6572206973206e6f7420746865206f776e6572600082015250565b60006137f3602083612e83565b91506137fe826137bd565b602082019050919050565b60006020820190508181036000830152613822816137e6565b9050919050565b7f4e487b7100000000000000000000000000000000000000000000000000000000600052602260045260246000fd5b6000600282049050600182168061387057607f821691505b6020821081141561388457613883613829565b5b50919050565b7f455243313135353a207472616e736665722063616c6c6572206973206e6f742060008201527f6f776e6572206e6f7220617070726f7665640000000000000000000000000000602082015250565b60006138e6603283612e83565b91506138f18261388a565b604082019050919050565b60006020820190508181036000830152613915816138d9565b9050919050565b7f455243313135353a206163636f756e747320616e6420696473206c656e67746860008201527f206d69736d617463680000000000000000000000000000000000000000000000602082015250565b6000613978602983612e83565b91506139838261391c565b604082019050919050565b600060208201905081810360008301526139a78161396b565b9050919050565b7f4e487b7100000000000000000000000000000000000000000000000000000000600052603260045260246000fd5b7f4e487b7100000000000000000000000000000000000000000000000000000000600052601160045260246000fd5b6000613a1782612b61565b91507fffffffffffffffffffffffffffffffffffffffffffffffffffffffffffffffff821415613a4a57613a496139dd565b5b600182019050919050565b7f455243313135353a2063616c6c6572206973206e6f74206f776e6572206e6f7260008201527f20617070726f7665640000000000000000000000000000000000000000000000602082015250565b6000613ab1602983612e83565b9150613abc82613a55565b604082019050919050565b60006020820190508181036000830152613ae081613aa4565b9050919050565b7f5265656e7472616e637947756172643a207265656e7472616e742063616c6c00600082015250565b6000613b1d601f83612e83565b9150613b2882613ae7565b602082019050919050565b60006020820190508181036000830152613b4c81613b10565b9050919050565b7f4861746368696e674567673a204e6f7420726561647920746f2068617463682060008201527f61206e6577206f6e650000000000000000000000000000000000000000000000602082015250565b6000613baf602983612e83565b9150613bba82613b53565b604082019050919050565b60006020820190508181036000830152613bde81613ba2565b9050919050565b6000613bf082612b61565b9150613bfb83612b61565b9250827fffffffffffffffffffffffffffffffffffffffffffffffffffffffffffffffff03821115613c3057613c2f6139dd565b5b828201905092915050565b7f4861746368696e674567673a204e6f7420726561647920746f20627265616b7560008201527f7000000000000000000000000000000000000000000000000000000000000000602082015250565b6000613c97602183612e83565b9150613ca282613c3b565b604082019050919050565b60006020820190508181036000830152613cc681613c8a565b9050919050565b6000604082019050613ce2600083018561356b565b613cef6020830184612bd7565b9392505050565b7f4f776e61626c653a206e6577206f776e657220697320746865207a65726f206160008201527f6464726573730000000000000000000000000000000000000000000000000000602082015250565b6000613d52602683612e83565b9150613d5d82613cf6565b604082019050919050565b60006020820190508181036000830152613d8181613d45565b9050919050565b7f455243313135353a206d696e7420746f20746865207a65726f2061646472657360008201527f7300000000000000000000000000000000000000000000000000000000000000602082015250565b6000613de4602183612e83565b9150613def82613d88565b604082019050919050565b60006020820190508181036000830152613e1381613dd7565b9050919050565b7f455243313135353a2069647320616e6420616d6f756e7473206c656e6774682060008201527f6d69736d61746368000000000000000000000000000000000000000000000000602082015250565b6000613e76602883612e83565b9150613e8182613e1a565b604082019050919050565b60006020820190508181036000830152613ea581613e69565b9050919050565b60006040820190508181036000830152613ec681856133dd565b90508181036020830152613eda81846133dd565b90509392505050565b7f455243313135353a207472616e7366657220746f20746865207a65726f20616460008201527f6472657373000000000000000000000000000000000000000000000000000000602082015250565b6000613f3f602583612e83565b9150613f4a82613ee3565b604082019050919050565b60006020820190508181036000830152613f6e81613f32565b9050919050565b7f455243313135353a20696e73756666696369656e742062616c616e636520666f60008201527f72207472616e7366657200000000000000000000000000000000000000000000602082015250565b6000613fd1602a83612e83565b9150613fdc82613f75565b604082019050919050565b6000602082019050818103600083015261400081613fc4565b9050919050565b7f5061757361626c653a206e6f7420706175736564000000000000000000000000600082015250565b600061403d601483612e83565b915061404882614007565b602082019050919050565b6000602082019050818103600083015261406c81614030565b9050919050565b7f455243313135353a206275726e2066726f6d20746865207a65726f206164647260008201527f6573730000000000000000000000000000000000000000000000000000000000602082015250565b60006140cf602383612e83565b91506140da82614073565b604082019050919050565b600060208201905081810360008301526140fe816140c2565b9050919050565b7f455243313135353a206275726e20616d6f756e7420657863656564732062616c60008201527f616e636500000000000000000000000000000000000000000000000000000000602082015250565b6000614161602483612e83565b915061416c82614105565b604082019050919050565b6000602082019050818103600083015261419081614154565b9050919050565b60006040820190506141ac6000830185612bd7565b6141b96020830184612bd7565b9392505050565b7f5061757361626c653a2070617573656400000000000000000000000000000000600082015250565b60006141f6601083612e83565b9150614201826141c0565b602082019050919050565b60006020820190508181036000830152614225816141e9565b9050919050565b7f455243313135353a2073657474696e6720617070726f76616c2073746174757360008201527f20666f722073656c660000000000000000000000000000000000000000000000602082015250565b6000614288602983612e83565b91506142938261422c565b604082019050919050565b600060208201905081810360008301526142b78161427b565b9050919050565b7f456767206973206e6f7420726561647900000000000000000000000000000000600082015250565b60006142f4601083612e83565b91506142ff826142be565b602082019050919050565b60006020820190508181036000830152614323816142e7565b9050919050565b600081519050919050565b600082825260208201905092915050565b60006143518261432a565b61435b8185614335565b935061436b818560208601612e94565b61437481612cc6565b840191505092915050565b600060a082019050614394600083018861356b565b6143a1602083018761356b565b81810360408301526143b381866133dd565b905081810360608301526143c781856133dd565b905081810360808301526143db8184614346565b90509695505050505050565b6000815190506143f681612c2d565b92915050565b60006020828403121561441257614411612af9565b5b6000614420848285016143e7565b91505092915050565b60008160e01c9050919050565b600060033d11156144555760046000803e614452600051614429565b90505b90565b600060443d1015614468576144eb565b614470612aef565b60043d036004823e80513d602482011167ffffffffffffffff821117156144985750506144eb565b808201805167ffffffffffffffff8111156144b657505050506144eb565b80602083010160043d0385018111156144d35750505050506144eb565b6144e282602001850186612d06565b82955050505050505b90565b7f455243313135353a207472616e7366657220746f206e6f6e204552433131353560008201527f526563656976657220696d706c656d656e746572000000000000000000000000602082015250565b600061454a603483612e83565b9150614555826144ee565b604082019050919050565b600060208201905081810360008301526145798161453d565b9050919050565b7f455243313135353a204552433131353552656365697665722072656a6563746560008201527f6420746f6b656e73000000000000000000000000000000000000000000000000602082015250565b60006145dc602883612e83565b91506145e782614580565b604082019050919050565b6000602082019050818103600083015261460b816145cf565b9050919050565b600060a082019050614627600083018861356b565b614634602083018761356b565b6146416040830186612bd7565b61464e6060830185612bd7565b81810360808301526146608184614346565b9050969550505050505056fea26469706673582212201e02bc2e10ea8b2b812c2f5eb23542b9d70aa3ae5e203597ac743dd3db057b1964736f6c6343000809003368747470733a2f2f6173736574732e686265617374732e636f6d2f6861746368696e67656767732f7b69647d",
  "immutableReferences": {},
  "source": "// SPDX-License-Identifier: MIT\npragma solidity >=0.4.22 <0.9.0;\n\nimport \"./Dragon.sol\";\nimport \"./ERC1155SupplyForOwner.sol\";\nimport \"@openzeppelin/contracts/token/ERC1155/ERC1155.sol\";\nimport \"@openzeppelin/contracts/access/Ownable.sol\";\nimport \"@openzeppelin/contracts/security/Pausable.sol\";\nimport \"@openzeppelin/contracts/security/ReentrancyGuard.sol\";\nimport \"@openzeppelin/contracts/token/ERC1155/extensions/ERC1155Burnable.sol\";\n\n/**\n * @dev Intermediate form between Egg and Dragon, time locked before it can be exchanged to a Dragon\n *      The length of time lock is controlled by `_delay` state.\n */\ncontract HatchingEgg is\n    ERC1155,\n    Ownable,\n    Pausable,\n    ReentrancyGuard,\n    ERC1155Burnable,\n    ERC1155SupplyForOwner\n{\n    uint256 constant NUM_OPTIONS = 4;\n\n    uint256 internal constant _DONE = 1;\n    mapping(address => uint256) private _timestamps;\n    uint256 private _delay;\n    address private nftAddress; // Address of the Dragons\n\n    constructor(address _nftAddress, uint256 delay)\n        ERC1155(\"https://assets.hbeasts.com/hatchingeggs/{id}\")\n    {\n        nftAddress = _nftAddress;\n        _delay = delay;\n    }\n\n    /// @notice Set the length of time lock, in seconds\n    function setDelay(uint256 delay) public onlyOwner {\n        _delay = delay;\n    }\n\n    function setURI(string memory newuri) public onlyOwner {\n        _setURI(newuri);\n    }\n\n    function pause() public onlyOwner {\n        _pause();\n    }\n\n    function unpause() public onlyOwner {\n        _unpause();\n    }\n\n    function numOptions() public pure override returns (uint256) {\n        return NUM_OPTIONS;\n    }\n\n    /// Exchange an egg for a Dragon\n    function breakUp(uint256 _optionId) public nonReentrant {\n        require(isReady(_msgSender()), \"HatchingEgg: Not ready to breakup\");\n        _burn(msg.sender, _optionId, 1);\n        _timestamps[msg.sender] = _DONE;\n        Dragon dragon = Dragon(nftAddress);\n        dragon.safeMintWithOption(msg.sender, _optionId);\n    }\n\n    // Request when the egg is ready to break up\n    function dueTime(address _owner) public view returns (uint256) {\n        return _timestamps[_owner];\n    }\n\n    function isReady(address _owner) public view returns (bool) {\n        return _timestamps[_owner] < block.timestamp;\n    }\n\n    function mint(\n        address account,\n        uint256 id,\n        uint256 amount,\n        bytes memory data\n    ) public onlyOwner nonReentrant {\n        require(\n            isReady(_msgSender()),\n            \"HatchingEgg: Not ready to hatch a new one\"\n        );\n        _mint(account, id, amount, data);\n        _timestamps[account] = block.timestamp + _delay;\n    }\n\n    function mintBatch(\n        address to,\n        uint256[] memory ids,\n        uint256[] memory amounts,\n        bytes memory data\n    ) public onlyOwner {\n        _mintBatch(to, ids, amounts, data);\n    }\n\n    function _beforeTokenTransfer(\n        address operator,\n        address from,\n        address to,\n        uint256[] memory ids,\n        uint256[] memory amounts,\n        bytes memory data\n    ) internal override(ERC1155) whenNotPaused {\n        require(_timestamps[operator] < block.timestamp, \"Egg is not ready\");\n        super._beforeTokenTransfer(operator, from, to, ids, amounts, data);\n    }\n}\n",
  "sourcePath": "/home/ec2-user/contract-main/legendofbeasts/contracts/HatchingEgg.sol",
  "compiler": {
    "name": "solc",
    "version": "0.8.9+commit.e5eed63a.Emscripten.clang"
  },
  "schemaVersion": "3.4.4",
  "updatedAt": "2022-01-25T03:34:29.391Z",
  "networkType": "ethereum",
  "devdoc": {
    "details": "Intermediate form between Egg and Dragon, time locked before it can be exchanged to a Dragon      The length of time lock is controlled by `_delay` state.",
    "kind": "dev",
    "methods": {
      "balanceOf(address,uint256)": {
        "details": "See {IERC1155-balanceOf}. Requirements: - `account` cannot be the zero address."
      },
      "balanceOfBatch(address[],uint256[])": {
        "details": "See {IERC1155-balanceOfBatch}. Requirements: - `accounts` and `ids` must have the same length."
      },
      "isApprovedForAll(address,address)": {
        "details": "See {IERC1155-isApprovedForAll}."
      },
      "owner()": {
        "details": "Returns the address of the current owner."
      },
      "paused()": {
        "details": "Returns true if the contract is paused, and false otherwise."
      },
      "renounceOwnership()": {
        "details": "Leaves the contract without owner. It will not be possible to call `onlyOwner` functions anymore. Can only be called by the current owner. NOTE: Renouncing ownership will leave the contract without an owner, thereby removing any functionality that is only available to the owner."
      },
      "safeBatchTransferFrom(address,address,uint256[],uint256[],bytes)": {
        "details": "See {IERC1155-safeBatchTransferFrom}."
      },
      "safeTransferFrom(address,address,uint256,uint256,bytes)": {
        "details": "See {IERC1155-safeTransferFrom}."
      },
      "setApprovalForAll(address,bool)": {
        "details": "See {IERC1155-setApprovalForAll}."
      },
      "supportsInterface(bytes4)": {
        "details": "See {IERC165-supportsInterface}."
      },
      "transferOwnership(address)": {
        "details": "Transfers ownership of the contract to a new account (`newOwner`). Can only be called by the current owner."
      },
      "uri(uint256)": {
        "details": "See {IERC1155MetadataURI-uri}. This implementation returns the same URI for *all* token types. It relies on the token type ID substitution mechanism https://eips.ethereum.org/EIPS/eip-1155#metadata[defined in the EIP]. Clients calling this function must replace the `\\{id\\}` substring with the actual token type ID."
      }
    },
    "version": 1
  },
  "userdoc": {
    "kind": "user",
    "methods": {
      "breakUp(uint256)": {
        "notice": "Exchange an egg for a Dragon"
      },
      "setDelay(uint256)": {
        "notice": "Set the length of time lock, in seconds"
      }
    },
    "version": 1
  }
}