{
  "contractName": "LOBToken",
  "abi": [
    {
      "inputs": [],
      "stateMutability": "nonpayable",
      "type": "constructor"
    },
    {
      "anonymous": false,
      "inputs": [
        {
          "indexed": true,
          "internalType": "address",
          "name": "owner",
          "type": "address"
        },
        {
          "indexed": true,
          "internalType": "address",
          "name": "spender",
          "type": "address"
        },
        {
          "indexed": false,
          "internalType": "uint256",
          "name": "value",
          "type": "uint256"
        }
      ],
      "name": "Approval",
      "type": "event"
    },
    {
      "anonymous": false,
      "inputs": [
        {
          "indexed": true,
          "internalType": "address",
          "name": "delegator",
          "type": "address"
        },
        {
          "indexed": true,
          "internalType": "address",
          "name": "fromDelegate",
          "type": "address"
        },
        {
          "indexed": true,
          "internalType": "address",
          "name": "toDelegate",
          "type": "address"
        }
      ],
      "name": "DelegateChanged",
      "type": "event"
    },
    {
      "anonymous": false,
      "inputs": [
        {
          "indexed": true,
          "internalType": "address",
          "name": "delegate",
          "type": "address"
        },
        {
          "indexed": false,
          "internalType": "uint256",
          "name": "previousBalance",
          "type": "uint256"
        },
        {
          "indexed": false,
          "internalType": "uint256",
          "name": "newBalance",
          "type": "uint256"
        }
      ],
      "name": "DelegateVotesChanged",
      "type": "event"
    },
    {
      "anonymous": false,
      "inputs": [
        {
          "indexed": true,
          "internalType": "address",
          "name": "previousOwner",
          "type": "address"
        },
        {
          "indexed": true,
          "internalType": "address",
          "name": "newOwner",
          "type": "address"
        }
      ],
      "name": "OwnershipTransferred",
      "type": "event"
    },
    {
      "anonymous": false,
      "inputs": [
        {
          "indexed": true,
          "internalType": "address",
          "name": "from",
          "type": "address"
        },
        {
          "indexed": true,
          "internalType": "address",
          "name": "to",
          "type": "address"
        },
        {
          "indexed": false,
          "internalType": "uint256",
          "name": "value",
          "type": "uint256"
        }
      ],
      "name": "Transfer",
      "type": "event"
    },
    {
      "inputs": [],
      "name": "DOMAIN_SEPARATOR",
      "outputs": [
        {
          "internalType": "bytes32",
          "name": "",
          "type": "bytes32"
        }
      ],
      "stateMutability": "view",
      "type": "function",
      "constant": true
    },
    {
      "inputs": [
        {
          "internalType": "address",
          "name": "owner",
          "type": "address"
        },
        {
          "internalType": "address",
          "name": "spender",
          "type": "address"
        }
      ],
      "name": "allowance",
      "outputs": [
        {
          "internalType": "uint256",
          "name": "",
          "type": "uint256"
        }
      ],
      "stateMutability": "view",
      "type": "function",
      "constant": true
    },
    {
      "inputs": [
        {
          "internalType": "address",
          "name": "spender",
          "type": "address"
        },
        {
          "internalType": "uint256",
          "name": "amount",
          "type": "uint256"
        }
      ],
      "name": "approve",
      "outputs": [
        {
          "internalType": "bool",
          "name": "",
          "type": "bool"
        }
      ],
      "stateMutability": "nonpayable",
      "type": "function"
    },
    {
      "inputs": [
        {
          "internalType": "address",
          "name": "account",
          "type": "address"
        }
      ],
      "name": "balanceOf",
      "outputs": [
        {
          "internalType": "uint256",
          "name": "",
          "type": "uint256"
        }
      ],
      "stateMutability": "view",
      "type": "function",
      "constant": true
    },
    {
      "inputs": [
        {
          "internalType": "uint256",
          "name": "amount",
          "type": "uint256"
        }
      ],
      "name": "burn",
      "outputs": [],
      "stateMutability": "nonpayable",
      "type": "function"
    },
    {
      "inputs": [
        {
          "internalType": "address",
          "name": "account",
          "type": "address"
        },
        {
          "internalType": "uint256",
          "name": "amount",
          "type": "uint256"
        }
      ],
      "name": "burnFrom",
      "outputs": [],
      "stateMutability": "nonpayable",
      "type": "function"
    },
    {
      "inputs": [
        {
          "internalType": "address",
          "name": "account",
          "type": "address"
        },
        {
          "internalType": "uint32",
          "name": "pos",
          "type": "uint32"
        }
      ],
      "name": "checkpoints",
      "outputs": [
        {
          "components": [
            {
              "internalType": "uint32",
              "name": "fromBlock",
              "type": "uint32"
            },
            {
              "internalType": "uint224",
              "name": "votes",
              "type": "uint224"
            }
          ],
          "internalType": "struct ERC20Votes.Checkpoint",
          "name": "",
          "type": "tuple"
        }
      ],
      "stateMutability": "view",
      "type": "function",
      "constant": true
    },
    {
      "inputs": [
        {
          "internalType": "address",
          "name": "spender",
          "type": "address"
        },
        {
          "internalType": "uint256",
          "name": "subtractedValue",
          "type": "uint256"
        }
      ],
      "name": "decreaseAllowance",
      "outputs": [
        {
          "internalType": "bool",
          "name": "",
          "type": "bool"
        }
      ],
      "stateMutability": "nonpayable",
      "type": "function"
    },
    {
      "inputs": [
        {
          "internalType": "address",
          "name": "delegatee",
          "type": "address"
        }
      ],
      "name": "delegate",
      "outputs": [],
      "stateMutability": "nonpayable",
      "type": "function"
    },
    {
      "inputs": [
        {
          "internalType": "address",
          "name": "delegatee",
          "type": "address"
        },
        {
          "internalType": "uint256",
          "name": "nonce",
          "type": "uint256"
        },
        {
          "internalType": "uint256",
          "name": "expiry",
          "type": "uint256"
        },
        {
          "internalType": "uint8",
          "name": "v",
          "type": "uint8"
        },
        {
          "internalType": "bytes32",
          "name": "r",
          "type": "bytes32"
        },
        {
          "internalType": "bytes32",
          "name": "s",
          "type": "bytes32"
        }
      ],
      "name": "delegateBySig",
      "outputs": [],
      "stateMutability": "nonpayable",
      "type": "function"
    },
    {
      "inputs": [
        {
          "internalType": "address",
          "name": "account",
          "type": "address"
        }
      ],
      "name": "delegates",
      "outputs": [
        {
          "internalType": "address",
          "name": "",
          "type": "address"
        }
      ],
      "stateMutability": "view",
      "type": "function",
      "constant": true
    },
    {
      "inputs": [
        {
          "internalType": "uint256",
          "name": "blockNumber",
          "type": "uint256"
        }
      ],
      "name": "getPastTotalSupply",
      "outputs": [
        {
          "internalType": "uint256",
          "name": "",
          "type": "uint256"
        }
      ],
      "stateMutability": "view",
      "type": "function",
      "constant": true
    },
    {
      "inputs": [
        {
          "internalType": "address",
          "name": "account",
          "type": "address"
        },
        {
          "internalType": "uint256",
          "name": "blockNumber",
          "type": "uint256"
        }
      ],
      "name": "getPastVotes",
      "outputs": [
        {
          "internalType": "uint256",
          "name": "",
          "type": "uint256"
        }
      ],
      "stateMutability": "view",
      "type": "function",
      "constant": true
    },
    {
      "inputs": [
        {
          "internalType": "address",
          "name": "account",
          "type": "address"
        }
      ],
      "name": "getVotes",
      "outputs": [
        {
          "internalType": "uint256",
          "name": "",
          "type": "uint256"
        }
      ],
      "stateMutability": "view",
      "type": "function",
      "constant": true
    },
    {
      "inputs": [
        {
          "internalType": "address",
          "name": "spender",
          "type": "address"
        },
        {
          "internalType": "uint256",
          "name": "addedValue",
          "type": "uint256"
        }
      ],
      "name": "increaseAllowance",
      "outputs": [
        {
          "internalType": "bool",
          "name": "",
          "type": "bool"
        }
      ],
      "stateMutability": "nonpayable",
      "type": "function"
    },
    {
      "inputs": [],
      "name": "name",
      "outputs": [
        {
          "internalType": "string",
          "name": "",
          "type": "string"
        }
      ],
      "stateMutability": "view",
      "type": "function",
      "constant": true
    },
    {
      "inputs": [
        {
          "internalType": "address",
          "name": "owner",
          "type": "address"
        }
      ],
      "name": "nonces",
      "outputs": [
        {
          "internalType": "uint256",
          "name": "",
          "type": "uint256"
        }
      ],
      "stateMutability": "view",
      "type": "function",
      "constant": true
    },
    {
      "inputs": [
        {
          "internalType": "address",
          "name": "account",
          "type": "address"
        }
      ],
      "name": "numCheckpoints",
      "outputs": [
        {
          "internalType": "uint32",
          "name": "",
          "type": "uint32"
        }
      ],
      "stateMutability": "view",
      "type": "function",
      "constant": true
    },
    {
      "inputs": [],
      "name": "owner",
      "outputs": [
        {
          "internalType": "address",
          "name": "",
          "type": "address"
        }
      ],
      "stateMutability": "view",
      "type": "function",
      "constant": true
    },
    {
      "inputs": [
        {
          "internalType": "address",
          "name": "owner",
          "type": "address"
        },
        {
          "internalType": "address",
          "name": "spender",
          "type": "address"
        },
        {
          "internalType": "uint256",
          "name": "value",
          "type": "uint256"
        },
        {
          "internalType": "uint256",
          "name": "deadline",
          "type": "uint256"
        },
        {
          "internalType": "uint8",
          "name": "v",
          "type": "uint8"
        },
        {
          "internalType": "bytes32",
          "name": "r",
          "type": "bytes32"
        },
        {
          "internalType": "bytes32",
          "name": "s",
          "type": "bytes32"
        }
      ],
      "name": "permit",
      "outputs": [],
      "stateMutability": "nonpayable",
      "type": "function"
    },
    {
      "inputs": [],
      "name": "renounceOwnership",
      "outputs": [],
      "stateMutability": "nonpayable",
      "type": "function"
    },
    {
      "inputs": [],
      "name": "symbol",
      "outputs": [
        {
          "internalType": "string",
          "name": "",
          "type": "string"
        }
      ],
      "stateMutability": "view",
      "type": "function",
      "constant": true
    },
    {
      "inputs": [],
      "name": "totalSupply",
      "outputs": [
        {
          "internalType": "uint256",
          "name": "",
          "type": "uint256"
        }
      ],
      "stateMutability": "view",
      "type": "function",
      "constant": true
    },
    {
      "inputs": [
        {
          "internalType": "address",
          "name": "recipient",
          "type": "address"
        },
        {
          "internalType": "uint256",
          "name": "amount",
          "type": "uint256"
        }
      ],
      "name": "transfer",
      "outputs": [
        {
          "internalType": "bool",
          "name": "",
          "type": "bool"
        }
      ],
      "stateMutability": "nonpayable",
      "type": "function"
    },
    {
      "inputs": [
        {
          "internalType": "address",
          "name": "sender",
          "type": "address"
        },
        {
          "internalType": "address",
          "name": "recipient",
          "type": "address"
        },
        {
          "internalType": "uint256",
          "name": "amount",
          "type": "uint256"
        }
      ],
      "name": "transferFrom",
      "outputs": [
        {
          "internalType": "bool",
          "name": "",
          "type": "bool"
        }
      ],
      "stateMutability": "nonpayable",
      "type": "function"
    },
    {
      "inputs": [
        {
          "internalType": "address",
          "name": "newOwner",
          "type": "address"
        }
      ],
      "name": "transferOwnership",
      "outputs": [],
      "stateMutability": "nonpayable",
      "type": "function"
    },
    {
      "inputs": [],
      "name": "decimals",
      "outputs": [
        {
          "internalType": "uint8",
          "name": "",
          "type": "uint8"
        }
      ],
      "stateMutability": "pure",
      "type": "function",
      "constant": true
    },
    {
      "inputs": [
        {
          "internalType": "address",
          "name": "to",
          "type": "address"
        },
        {
          "internalType": "uint256",
          "name": "amount",
          "type": "uint256"
        }
      ],
      "name": "mint",
      "outputs": [],
      "stateMutability": "nonpayable",
      "type": "function"
    }
  ],
  "bytecode": "0x6101606040527f6e71edae12b1b97f4d1f60370fef10105fa2faae0126114a169c64845d6126c9610140908152503480156200003a57600080fd5b506040518060400160405280600e81526020017f4c6567656e644f66426561737473000000000000000000000000000000000000815250806040518060400160405280600181526020017f31000000000000000000000000000000000000000000000000000000000000008152506040518060400160405280600e81526020017f4c6567656e644f664265617374730000000000000000000000000000000000008152506040518060400160405280600381526020017f4c4f42000000000000000000000000000000000000000000000000000000000081525081600390805190602001906200012c92919062000c9b565b5080600490805190602001906200014592919062000c9b565b505050620001686200015c6200026060201b60201c565b6200026860201b60201c565b60008280519060200120905060008280519060200120905060007f8b73c3c69bb8fe3d512ecc4cf759cc79239f7b179b0ffacaa9a75d522b39400f90508260e081815250508161010081815250504660a08181525050620001d18184846200032e60201b60201c565b608081815250503073ffffffffffffffffffffffffffffffffffffffff1660c08173ffffffffffffffffffffffffffffffffffffffff16815250508061012081815250505050505050506200025a33620002306200036a60201b60201c565b600a6200023e919062000ee5565b620f42406200024e919062000f36565b6200037360201b60201c565b62001426565b600033905090565b6000600560009054906101000a900473ffffffffffffffffffffffffffffffffffffffff16905081600560006101000a81548173ffffffffffffffffffffffffffffffffffffffff021916908373ffffffffffffffffffffffffffffffffffffffff1602179055508173ffffffffffffffffffffffffffffffffffffffff168173ffffffffffffffffffffffffffffffffffffffff167f8be0079c531659141344cd1fd0a4f28419497f9722a3daafe3b4186f6b6457e060405160405180910390a35050565b600083838346306040516020016200034b95949392919062001008565b6040516020818303038152906040528051906020012090509392505050565b60006006905090565b6200038a82826200038e60201b620014001760201c565b5050565b620003a582826200044c60201b6200148d1760201c565b620003b5620005c560201b60201c565b7bffffffffffffffffffffffffffffffffffffffffffffffffffffffff16620003e3620005e960201b60201c565b111562000427576040517f08c379a00000000000000000000000000000000000000000000000000000000081526004016200041e90620010ec565b60405180910390fd5b620004466009620005f360201b620015ed17836200060b60201b60201c565b50505050565b600073ffffffffffffffffffffffffffffffffffffffff168273ffffffffffffffffffffffffffffffffffffffff161415620004bf576040517f08c379a0000000000000000000000000000000000000000000000000000000008152600401620004b6906200115e565b60405180910390fd5b620004d360008383620008bc60201b60201c565b8060026000828254620004e7919062001180565b92505081905550806000808473ffffffffffffffffffffffffffffffffffffffff1673ffffffffffffffffffffffffffffffffffffffff16815260200190815260200160002060008282546200053e919062001180565b925050819055508173ffffffffffffffffffffffffffffffffffffffff16600073ffffffffffffffffffffffffffffffffffffffff167fddf252ad1be2c89b69c2b068fc378daa952ba7f163c4a11628f55a4df523b3ef83604051620005a59190620011dd565b60405180910390a3620005c160008383620008c160201b60201c565b5050565b60007bffffffffffffffffffffffffffffffffffffffffffffffffffffffff905090565b6000600254905090565b6000818362000603919062001180565b905092915050565b60008060008580549050905060008114620006805785600182620006309190620011fa565b8154811062000644576200064362001235565b5b9060005260206000200160000160049054906101000a90047bffffffffffffffffffffffffffffffffffffffffffffffffffffffff1662000683565b60005b7bffffffffffffffffffffffffffffffffffffffffffffffffffffffff169250620006af83858760201c565b91506000811180156200070857504386600183620006ce9190620011fa565b81548110620006e257620006e162001235565b5b9060005260206000200160000160009054906101000a900463ffffffff1663ffffffff16145b15620007a9576200072482620008de60201b620016031760201c565b86600183620007349190620011fa565b8154811062000748576200074762001235565b5b9060005260206000200160000160046101000a8154817bffffffffffffffffffffffffffffffffffffffffffffffffffffffff02191690837bffffffffffffffffffffffffffffffffffffffffffffffffffffffff160217905550620008b3565b856040518060400160405280620007cb436200094c60201b6200166e1760201c565b63ffffffff168152602001620007ec85620008de60201b620016031760201c565b7bffffffffffffffffffffffffffffffffffffffffffffffffffffffff168152509080600181540180825580915050600190039060005260206000200160009091909190915060008201518160000160006101000a81548163ffffffff021916908363ffffffff16021790555060208201518160000160046101000a8154817bffffffffffffffffffffffffffffffffffffffffffffffffffffffff02191690837bffffffffffffffffffffffffffffffffffffffffffffffffffffffff16021790555050505b50935093915050565b505050565b620008d9838383620009a260201b620016c11760201c565b505050565b60007bffffffffffffffffffffffffffffffffffffffffffffffffffffffff801682111562000944576040517f08c379a00000000000000000000000000000000000000000000000000000000081526004016200093b90620012da565b60405180910390fd5b819050919050565b600063ffffffff80168211156200099a576040517f08c379a0000000000000000000000000000000000000000000000000000000008152600401620009919062001372565b60405180910390fd5b819050919050565b620009ba838383620009f260201b620016ec1760201c565b620009ed620009cf84620009f760201b60201c565b620009e084620009f760201b60201c565b8362000a6060201b60201c565b505050565b505050565b6000600760008373ffffffffffffffffffffffffffffffffffffffff1673ffffffffffffffffffffffffffffffffffffffff16815260200190815260200160002060009054906101000a900473ffffffffffffffffffffffffffffffffffffffff169050919050565b8173ffffffffffffffffffffffffffffffffffffffff168373ffffffffffffffffffffffffffffffffffffffff161415801562000a9d5750600081115b1562000c7e57600073ffffffffffffffffffffffffffffffffffffffff168373ffffffffffffffffffffffffffffffffffffffff161462000b905760008062000b37600860008773ffffffffffffffffffffffffffffffffffffffff1673ffffffffffffffffffffffffffffffffffffffff16815260200190815260200160002062000c8360201b620016f117856200060b60201b60201c565b915091508473ffffffffffffffffffffffffffffffffffffffff167fdec2bacdd2f05b59de34da9b523dff8be42e5e38e818c82fdb0bae774387a724838360405162000b8592919062001394565b60405180910390a250505b600073ffffffffffffffffffffffffffffffffffffffff168273ffffffffffffffffffffffffffffffffffffffff161462000c7d5760008062000c24600860008673ffffffffffffffffffffffffffffffffffffffff1673ffffffffffffffffffffffffffffffffffffffff168152602001908152602001600020620005f360201b620015ed17856200060b60201b60201c565b915091508373ffffffffffffffffffffffffffffffffffffffff167fdec2bacdd2f05b59de34da9b523dff8be42e5e38e818c82fdb0bae774387a724838360405162000c7292919062001394565b60405180910390a250505b5b505050565b6000818362000c939190620011fa565b905092915050565b82805462000ca990620013f0565b90600052602060002090601f01602090048101928262000ccd576000855562000d19565b82601f1062000ce857805160ff191683800117855562000d19565b8280016001018555821562000d19579182015b8281111562000d1857825182559160200191906001019062000cfb565b5b50905062000d28919062000d2c565b5090565b5b8082111562000d4757600081600090555060010162000d2d565b5090565b7f4e487b7100000000000000000000000000000000000000000000000000000000600052601160045260246000fd5b60008160011c9050919050565b6000808291508390505b600185111562000dd95780860481111562000db15762000db062000d4b565b5b600185161562000dc15780820291505b808102905062000dd18562000d7a565b945062000d91565b94509492505050565b60008262000df4576001905062000ec7565b8162000e04576000905062000ec7565b816001811462000e1d576002811462000e285762000e5e565b600191505062000ec7565b60ff84111562000e3d5762000e3c62000d4b565b5b8360020a91508482111562000e575762000e5662000d4b565b5b5062000ec7565b5060208310610133831016604e8410600b841016171562000e985782820a90508381111562000e925762000e9162000d4b565b5b62000ec7565b62000ea7848484600162000d87565b9250905081840481111562000ec15762000ec062000d4b565b5b81810290505b9392505050565b6000819050919050565b600060ff82169050919050565b600062000ef28262000ece565b915062000eff8362000ed8565b925062000f2e7fffffffffffffffffffffffffffffffffffffffffffffffffffffffffffffffff848462000de2565b905092915050565b600062000f438262000ece565b915062000f508362000ece565b9250817fffffffffffffffffffffffffffffffffffffffffffffffffffffffffffffffff048311821515161562000f8c5762000f8b62000d4b565b5b828202905092915050565b6000819050919050565b62000fac8162000f97565b82525050565b62000fbd8162000ece565b82525050565b600073ffffffffffffffffffffffffffffffffffffffff82169050919050565b600062000ff08262000fc3565b9050919050565b620010028162000fe3565b82525050565b600060a0820190506200101f600083018862000fa1565b6200102e602083018762000fa1565b6200103d604083018662000fa1565b6200104c606083018562000fb2565b6200105b608083018462000ff7565b9695505050505050565b600082825260208201905092915050565b7f4552433230566f7465733a20746f74616c20737570706c79207269736b73206f60008201527f766572666c6f77696e6720766f74657300000000000000000000000000000000602082015250565b6000620010d460308362001065565b9150620010e18262001076565b604082019050919050565b600060208201905081810360008301526200110781620010c5565b9050919050565b7f45524332303a206d696e7420746f20746865207a65726f206164647265737300600082015250565b600062001146601f8362001065565b915062001153826200110e565b602082019050919050565b60006020820190508181036000830152620011798162001137565b9050919050565b60006200118d8262000ece565b91506200119a8362000ece565b9250827fffffffffffffffffffffffffffffffffffffffffffffffffffffffffffffffff03821115620011d257620011d162000d4b565b5b828201905092915050565b6000602082019050620011f4600083018462000fb2565b92915050565b6000620012078262000ece565b9150620012148362000ece565b9250828210156200122a576200122962000d4b565b5b828203905092915050565b7f4e487b7100000000000000000000000000000000000000000000000000000000600052603260045260246000fd5b7f53616665436173743a2076616c756520646f65736e27742066697420696e203260008201527f3234206269747300000000000000000000000000000000000000000000000000602082015250565b6000620012c260278362001065565b9150620012cf8262001264565b604082019050919050565b60006020820190508181036000830152620012f581620012b3565b9050919050565b7f53616665436173743a2076616c756520646f65736e27742066697420696e203360008201527f3220626974730000000000000000000000000000000000000000000000000000602082015250565b60006200135a60268362001065565b91506200136782620012fc565b604082019050919050565b600060208201905081810360008301526200138d816200134b565b9050919050565b6000604082019050620013ab600083018562000fb2565b620013ba602083018462000fb2565b9392505050565b7f4e487b7100000000000000000000000000000000000000000000000000000000600052602260045260246000fd5b600060028204905060018216806200140957607f821691505b6020821081141562001420576200141f620013c1565b5b50919050565b60805160a05160c05160e0516101005161012051610140516141d962001481600039600061107601526000611c0901526000611c4b01526000611c2a01526000611b5f01526000611bb501526000611bde01526141d96000f3fe608060405234801561001057600080fd5b50600436106101c45760003560e01c8063715018a6116100f9578063a457c2d711610097578063d505accf11610071578063d505accf14610553578063dd62ed3e1461056f578063f1127ed81461059f578063f2fde38b146105cf576101c4565b8063a457c2d7146104d7578063a9059cbb14610507578063c3cda52014610537576101c4565b80638da5cb5b116100d35780638da5cb5b1461043b5780638e539e8c1461045957806395d89b41146104895780639ab24eb0146104a7576101c4565b8063715018a6146103e557806379cc6790146103ef5780637ecebe001461040b576101c4565b80633a46b1a811610166578063587cde1e11610140578063587cde1e146103395780635c19a95c146103695780636fcfff451461038557806370a08231146103b5576101c4565b80633a46b1a8146102d157806340c10f191461030157806342966c681461031d576101c4565b806323b872dd116101a257806323b872dd14610235578063313ce567146102655780633644e5151461028357806339509351146102a1576101c4565b806306fdde03146101c9578063095ea7b3146101e757806318160ddd14610217575b600080fd5b6101d16105eb565b6040516101de9190612b2f565b60405180910390f35b61020160048036038101906101fc9190612bea565b61067d565b60405161020e9190612c45565b60405180910390f35b61021f61069b565b60405161022c9190612c6f565b60405180910390f35b61024f600480360381019061024a9190612c8a565b6106a5565b60405161025c9190612c45565b60405180910390f35b61026d61079d565b60405161027a9190612cf9565b60405180910390f35b61028b6107a6565b6040516102989190612d2d565b60405180910390f35b6102bb60048036038101906102b69190612bea565b6107b5565b6040516102c89190612c45565b60405180910390f35b6102eb60048036038101906102e69190612bea565b610861565b6040516102f89190612c6f565b60405180910390f35b61031b60048036038101906103169190612bea565b6108f5565b005b61033760048036038101906103329190612d48565b61097f565b005b610353600480360381019061034e9190612d75565b610993565b6040516103609190612db1565b60405180910390f35b610383600480360381019061037e9190612d75565b6109fc565b005b61039f600480360381019061039a9190612d75565b610a10565b6040516103ac9190612deb565b60405180910390f35b6103cf60048036038101906103ca9190612d75565b610a64565b6040516103dc9190612c6f565b60405180910390f35b6103ed610aac565b005b61040960048036038101906104049190612bea565b610b34565b005b61042560048036038101906104209190612d75565b610baf565b6040516104329190612c6f565b60405180910390f35b610443610bff565b6040516104509190612db1565b60405180910390f35b610473600480360381019061046e9190612d48565b610c29565b6040516104809190612c6f565b60405180910390f35b610491610c7f565b60405161049e9190612b2f565b60405180910390f35b6104c160048036038101906104bc9190612d75565b610d11565b6040516104ce9190612c6f565b60405180910390f35b6104f160048036038101906104ec9190612bea565b610e22565b6040516104fe9190612c45565b60405180910390f35b610521600480360381019061051c9190612bea565b610f0d565b60405161052e9190612c45565b60405180910390f35b610551600480360381019061054c9190612e5e565b610f2b565b005b61056d60048036038101906105689190612eeb565b61102f565b005b61058960048036038101906105849190612f8d565b611171565b6040516105969190612c6f565b60405180910390f35b6105b960048036038101906105b49190612ff9565b6111f8565b6040516105c691906130ae565b60405180910390f35b6105e960048036038101906105e49190612d75565b611308565b005b6060600380546105fa906130f8565b80601f0160208091040260200160405190810160405280929190818152602001828054610626906130f8565b80156106735780601f1061064857610100808354040283529160200191610673565b820191906000526020600020905b81548152906001019060200180831161065657829003601f168201915b5050505050905090565b600061069161068a611707565b848461170f565b6001905092915050565b6000600254905090565b60006106b28484846118da565b6000600160008673ffffffffffffffffffffffffffffffffffffffff1673ffffffffffffffffffffffffffffffffffffffff16815260200190815260200160002060006106fd611707565b73ffffffffffffffffffffffffffffffffffffffff1673ffffffffffffffffffffffffffffffffffffffff1681526020019081526020016000205490508281101561077d576040517f08c379a00000000000000000000000000000000000000000000000000000000081526004016107749061319c565b60405180910390fd5b61079185610789611707565b85840361170f565b60019150509392505050565b60006006905090565b60006107b0611b5b565b905090565b60006108576107c2611707565b8484600160006107d0611707565b73ffffffffffffffffffffffffffffffffffffffff1673ffffffffffffffffffffffffffffffffffffffff16815260200190815260200160002060008873ffffffffffffffffffffffffffffffffffffffff1673ffffffffffffffffffffffffffffffffffffffff1681526020019081526020016000205461085291906131eb565b61170f565b6001905092915050565b60004382106108a5576040517f08c379a000000000000000000000000000000000000000000000000000000000815260040161089c9061328d565b60405180910390fd5b6108ed600860008573ffffffffffffffffffffffffffffffffffffffff1673ffffffffffffffffffffffffffffffffffffffff16815260200190815260200160002083611c75565b905092915050565b6108fd611707565b73ffffffffffffffffffffffffffffffffffffffff1661091b610bff565b73ffffffffffffffffffffffffffffffffffffffff1614610971576040517f08c379a0000000000000000000000000000000000000000000000000000000008152600401610968906132f9565b60405180910390fd5b61097b8282611d81565b5050565b61099061098a611707565b82611d8f565b50565b6000600760008373ffffffffffffffffffffffffffffffffffffffff1673ffffffffffffffffffffffffffffffffffffffff16815260200190815260200160002060009054906101000a900473ffffffffffffffffffffffffffffffffffffffff169050919050565b610a0d610a07611707565b82611d9d565b50565b6000610a5d600860008473ffffffffffffffffffffffffffffffffffffffff1673ffffffffffffffffffffffffffffffffffffffff1681526020019081526020016000208054905061166e565b9050919050565b60008060008373ffffffffffffffffffffffffffffffffffffffff1673ffffffffffffffffffffffffffffffffffffffff168152602001908152602001600020549050919050565b610ab4611707565b73ffffffffffffffffffffffffffffffffffffffff16610ad2610bff565b73ffffffffffffffffffffffffffffffffffffffff1614610b28576040517f08c379a0000000000000000000000000000000000000000000000000000000008152600401610b1f906132f9565b60405180910390fd5b610b326000611eb7565b565b6000610b4783610b42611707565b611171565b905081811015610b8c576040517f08c379a0000000000000000000000000000000000000000000000000000000008152600401610b839061338b565b60405180910390fd5b610ba083610b98611707565b84840361170f565b610baa8383611d8f565b505050565b6000610bf8600660008473ffffffffffffffffffffffffffffffffffffffff1673ffffffffffffffffffffffffffffffffffffffff168152602001908152602001600020611f7d565b9050919050565b6000600560009054906101000a900473ffffffffffffffffffffffffffffffffffffffff16905090565b6000438210610c6d576040517f08c379a0000000000000000000000000000000000000000000000000000000008152600401610c649061328d565b60405180910390fd5b610c78600983611c75565b9050919050565b606060048054610c8e906130f8565b80601f0160208091040260200160405190810160405280929190818152602001828054610cba906130f8565b8015610d075780601f10610cdc57610100808354040283529160200191610d07565b820191906000526020600020905b815481529060010190602001808311610cea57829003601f168201915b5050505050905090565b600080600860008473ffffffffffffffffffffffffffffffffffffffff1673ffffffffffffffffffffffffffffffffffffffff16815260200190815260200160002080549050905060008114610df957600860008473ffffffffffffffffffffffffffffffffffffffff1673ffffffffffffffffffffffffffffffffffffffff168152602001908152602001600020600182610dad91906133ab565b81548110610dbe57610dbd6133df565b5b9060005260206000200160000160049054906101000a90047bffffffffffffffffffffffffffffffffffffffffffffffffffffffff16610dfc565b60005b7bffffffffffffffffffffffffffffffffffffffffffffffffffffffff16915050919050565b60008060016000610e31611707565b73ffffffffffffffffffffffffffffffffffffffff1673ffffffffffffffffffffffffffffffffffffffff16815260200190815260200160002060008573ffffffffffffffffffffffffffffffffffffffff1673ffffffffffffffffffffffffffffffffffffffff16815260200190815260200160002054905082811015610eee576040517f08c379a0000000000000000000000000000000000000000000000000000000008152600401610ee590613480565b60405180910390fd5b610f02610ef9611707565b8585840361170f565b600191505092915050565b6000610f21610f1a611707565b84846118da565b6001905092915050565b83421115610f6e576040517f08c379a0000000000000000000000000000000000000000000000000000000008152600401610f65906134ec565b60405180910390fd5b6000610fd0610fc87fe48329057bfd03d55e49b547132e39cffd9c1820ad7b9d4c5307691425d15adf898989604051602001610fad949392919061350c565b60405160208183030381529060405280519060200120611f8b565b858585611fa5565b9050610fdb81611fd0565b861461101c576040517f08c379a00000000000000000000000000000000000000000000000000000000081526004016110139061359d565b60405180910390fd5b6110268188611d9d565b50505050505050565b83421115611072576040517f08c379a000000000000000000000000000000000000000000000000000000000815260040161106990613609565b60405180910390fd5b60007f00000000000000000000000000000000000000000000000000000000000000008888886110a18c611fd0565b896040516020016110b796959493929190613629565b60405160208183030381529060405280519060200120905060006110da82611f8b565b905060006110ea82878787611fa5565b90508973ffffffffffffffffffffffffffffffffffffffff168173ffffffffffffffffffffffffffffffffffffffff161461115a576040517f08c379a0000000000000000000000000000000000000000000000000000000008152600401611151906136d6565b60405180910390fd5b6111658a8a8a61170f565b50505050505050505050565b6000600160008473ffffffffffffffffffffffffffffffffffffffff1673ffffffffffffffffffffffffffffffffffffffff16815260200190815260200160002060008373ffffffffffffffffffffffffffffffffffffffff1673ffffffffffffffffffffffffffffffffffffffff16815260200190815260200160002054905092915050565b611200612a58565b600860008473ffffffffffffffffffffffffffffffffffffffff1673ffffffffffffffffffffffffffffffffffffffff1681526020019081526020016000208263ffffffff1681548110611257576112566133df565b5b906000526020600020016040518060400160405290816000820160009054906101000a900463ffffffff1663ffffffff1663ffffffff1681526020016000820160049054906101000a90047bffffffffffffffffffffffffffffffffffffffffffffffffffffffff167bffffffffffffffffffffffffffffffffffffffffffffffffffffffff167bffffffffffffffffffffffffffffffffffffffffffffffffffffffff1681525050905092915050565b611310611707565b73ffffffffffffffffffffffffffffffffffffffff1661132e610bff565b73ffffffffffffffffffffffffffffffffffffffff1614611384576040517f08c379a000000000000000000000000000000000000000000000000000000000815260040161137b906132f9565b60405180910390fd5b600073ffffffffffffffffffffffffffffffffffffffff168173ffffffffffffffffffffffffffffffffffffffff1614156113f4576040517f08c379a00000000000000000000000000000000000000000000000000000000081526004016113eb90613768565b60405180910390fd5b6113fd81611eb7565b50565b61140a828261148d565b61141261202e565b7bffffffffffffffffffffffffffffffffffffffffffffffffffffffff1661143861069b565b1115611479576040517f08c379a0000000000000000000000000000000000000000000000000000000008152600401611470906137fa565b60405180910390fd5b61148760096115ed83612052565b50505050565b600073ffffffffffffffffffffffffffffffffffffffff168273ffffffffffffffffffffffffffffffffffffffff1614156114fd576040517f08c379a00000000000000000000000000000000000000000000000000000000081526004016114f490613866565b60405180910390fd5b611509600083836122ca565b806002600082825461151b91906131eb565b92505081905550806000808473ffffffffffffffffffffffffffffffffffffffff1673ffffffffffffffffffffffffffffffffffffffff168152602001908152602001600020600082825461157091906131eb565b925050819055508173ffffffffffffffffffffffffffffffffffffffff16600073ffffffffffffffffffffffffffffffffffffffff167fddf252ad1be2c89b69c2b068fc378daa952ba7f163c4a11628f55a4df523b3ef836040516115d59190612c6f565b60405180910390a36115e9600083836122cf565b5050565b600081836115fb91906131eb565b905092915050565b60007bffffffffffffffffffffffffffffffffffffffffffffffffffffffff8016821115611666576040517f08c379a000000000000000000000000000000000000000000000000000000000815260040161165d906138f8565b60405180910390fd5b819050919050565b600063ffffffff80168211156116b9576040517f08c379a00000000000000000000000000000000000000000000000000000000081526004016116b09061398a565b60405180910390fd5b819050919050565b6116cc8383836116ec565b6116e76116d884610993565b6116e184610993565b836122df565b505050565b505050565b600081836116ff91906133ab565b905092915050565b600033905090565b600073ffffffffffffffffffffffffffffffffffffffff168373ffffffffffffffffffffffffffffffffffffffff16141561177f576040517f08c379a000000000000000000000000000000000000000000000000000000000815260040161177690613a1c565b60405180910390fd5b600073ffffffffffffffffffffffffffffffffffffffff168273ffffffffffffffffffffffffffffffffffffffff1614156117ef576040517f08c379a00000000000000000000000000000000000000000000000000000000081526004016117e690613aae565b60405180910390fd5b80600160008573ffffffffffffffffffffffffffffffffffffffff1673ffffffffffffffffffffffffffffffffffffffff16815260200190815260200160002060008473ffffffffffffffffffffffffffffffffffffffff1673ffffffffffffffffffffffffffffffffffffffff168152602001908152602001600020819055508173ffffffffffffffffffffffffffffffffffffffff168373ffffffffffffffffffffffffffffffffffffffff167f8c5be1e5ebec7d5bd14f71427d1e84f3dd0314c0f7b2291e5b200ac8c7c3b925836040516118cd9190612c6f565b60405180910390a3505050565b600073ffffffffffffffffffffffffffffffffffffffff168373ffffffffffffffffffffffffffffffffffffffff16141561194a576040517f08c379a000000000000000000000000000000000000000000000000000000000815260040161194190613b40565b60405180910390fd5b600073ffffffffffffffffffffffffffffffffffffffff168273ffffffffffffffffffffffffffffffffffffffff1614156119ba576040517f08c379a00000000000000000000000000000000000000000000000000000000081526004016119b190613bd2565b60405180910390fd5b6119c58383836122ca565b60008060008573ffffffffffffffffffffffffffffffffffffffff1673ffffffffffffffffffffffffffffffffffffffff16815260200190815260200160002054905081811015611a4b576040517f08c379a0000000000000000000000000000000000000000000000000000000008152600401611a4290613c64565b60405180910390fd5b8181036000808673ffffffffffffffffffffffffffffffffffffffff1673ffffffffffffffffffffffffffffffffffffffff16815260200190815260200160002081905550816000808573ffffffffffffffffffffffffffffffffffffffff1673ffffffffffffffffffffffffffffffffffffffff1681526020019081526020016000206000828254611ade91906131eb565b925050819055508273ffffffffffffffffffffffffffffffffffffffff168473ffffffffffffffffffffffffffffffffffffffff167fddf252ad1be2c89b69c2b068fc378daa952ba7f163c4a11628f55a4df523b3ef84604051611b429190612c6f565b60405180910390a3611b558484846122cf565b50505050565b60007f000000000000000000000000000000000000000000000000000000000000000073ffffffffffffffffffffffffffffffffffffffff163073ffffffffffffffffffffffffffffffffffffffff16148015611bd757507f000000000000000000000000000000000000000000000000000000000000000046145b15611c04577f00000000000000000000000000000000000000000000000000000000000000009050611c72565b611c6f7f00000000000000000000000000000000000000000000000000000000000000007f00000000000000000000000000000000000000000000000000000000000000007f00000000000000000000000000000000000000000000000000000000000000006124d8565b90505b90565b6000808380549050905060005b81811015611cf4576000611c968284612512565b905084868281548110611cac57611cab6133df565b5b9060005260206000200160000160009054906101000a900463ffffffff1663ffffffff161115611cde57809250611cee565b600181611ceb91906131eb565b91505b50611c82565b60008214611d565784600183611d0a91906133ab565b81548110611d1b57611d1a6133df565b5b9060005260206000200160000160049054906101000a90047bffffffffffffffffffffffffffffffffffffffffffffffffffffffff16611d59565b60005b7bffffffffffffffffffffffffffffffffffffffffffffffffffffffff169250505092915050565b611d8b8282611400565b5050565b611d998282612538565b5050565b6000611da883610993565b90506000611db584610a64565b905082600760008673ffffffffffffffffffffffffffffffffffffffff1673ffffffffffffffffffffffffffffffffffffffff16815260200190815260200160002060006101000a81548173ffffffffffffffffffffffffffffffffffffffff021916908373ffffffffffffffffffffffffffffffffffffffff1602179055508273ffffffffffffffffffffffffffffffffffffffff168273ffffffffffffffffffffffffffffffffffffffff168573ffffffffffffffffffffffffffffffffffffffff167f3134e8a2e6d97e929a7e54011ea5485d7d196dd5f0ba4d4ef95803e8e3fc257f60405160405180910390a4611eb18284836122df565b50505050565b6000600560009054906101000a900473ffffffffffffffffffffffffffffffffffffffff16905081600560006101000a81548173ffffffffffffffffffffffffffffffffffffffff021916908373ffffffffffffffffffffffffffffffffffffffff1602179055508173ffffffffffffffffffffffffffffffffffffffff168173ffffffffffffffffffffffffffffffffffffffff167f8be0079c531659141344cd1fd0a4f28419497f9722a3daafe3b4186f6b6457e060405160405180910390a35050565b600081600001549050919050565b6000611f9e611f98611b5b565b83612556565b9050919050565b6000806000611fb687878787612589565b91509150611fc381612696565b8192505050949350505050565b600080600660008473ffffffffffffffffffffffffffffffffffffffff1673ffffffffffffffffffffffffffffffffffffffff168152602001908152602001600020905061201d81611f7d565b91506120288161286b565b50919050565b60007bffffffffffffffffffffffffffffffffffffffffffffffffffffffff905090565b600080600085805490509050600081146120c0578560018261207491906133ab565b81548110612085576120846133df565b5b9060005260206000200160000160049054906101000a90047bffffffffffffffffffffffffffffffffffffffffffffffffffffffff166120c3565b60005b7bffffffffffffffffffffffffffffffffffffffffffffffffffffffff1692506120f183858763ffffffff16565b91506000811180156121445750438660018361210d91906133ab565b8154811061211e5761211d6133df565b5b9060005260206000200160000160009054906101000a900463ffffffff1663ffffffff16145b156121d15761215282611603565b8660018361216091906133ab565b81548110612171576121706133df565b5b9060005260206000200160000160046101000a8154817bffffffffffffffffffffffffffffffffffffffffffffffffffffffff02191690837bffffffffffffffffffffffffffffffffffffffffffffffffffffffff1602179055506122c1565b8560405180604001604052806121e64361166e565b63ffffffff1681526020016121fa85611603565b7bffffffffffffffffffffffffffffffffffffffffffffffffffffffff168152509080600181540180825580915050600190039060005260206000200160009091909190915060008201518160000160006101000a81548163ffffffff021916908363ffffffff16021790555060208201518160000160046101000a8154817bffffffffffffffffffffffffffffffffffffffffffffffffffffffff02191690837bffffffffffffffffffffffffffffffffffffffffffffffffffffffff16021790555050505b50935093915050565b505050565b6122da8383836116c1565b505050565b8173ffffffffffffffffffffffffffffffffffffffff168373ffffffffffffffffffffffffffffffffffffffff161415801561231b5750600081115b156124d357600073ffffffffffffffffffffffffffffffffffffffff168373ffffffffffffffffffffffffffffffffffffffff16146123f9576000806123a2600860008773ffffffffffffffffffffffffffffffffffffffff1673ffffffffffffffffffffffffffffffffffffffff1681526020019081526020016000206116f185612052565b915091508473ffffffffffffffffffffffffffffffffffffffff167fdec2bacdd2f05b59de34da9b523dff8be42e5e38e818c82fdb0bae774387a72483836040516123ee929190613c84565b60405180910390a250505b600073ffffffffffffffffffffffffffffffffffffffff168273ffffffffffffffffffffffffffffffffffffffff16146124d25760008061247b600860008673ffffffffffffffffffffffffffffffffffffffff1673ffffffffffffffffffffffffffffffffffffffff1681526020019081526020016000206115ed85612052565b915091508373ffffffffffffffffffffffffffffffffffffffff167fdec2bacdd2f05b59de34da9b523dff8be42e5e38e818c82fdb0bae774387a72483836040516124c7929190613c84565b60405180910390a250505b5b505050565b600083838346306040516020016124f3959493929190613cad565b6040516020818303038152906040528051906020012090509392505050565b600060028284186125239190613d2f565b82841661253091906131eb565b905092915050565b6125428282612881565b61255060096116f183612052565b50505050565b6000828260405160200161256b929190613dd8565b60405160208183030381529060405280519060200120905092915050565b6000807f7fffffffffffffffffffffffffffffff5d576e7357a4501ddfe92f46681b20a08360001c11156125c457600060039150915061268d565b601b8560ff16141580156125dc5750601c8560ff1614155b156125ee57600060049150915061268d565b6000600187878787604051600081526020016040526040516126139493929190613e0f565b6020604051602081039080840390855afa158015612635573d6000803e3d6000fd5b505050602060405103519050600073ffffffffffffffffffffffffffffffffffffffff168173ffffffffffffffffffffffffffffffffffffffff1614156126845760006001925092505061268d565b80600092509250505b94509492505050565b600060048111156126aa576126a9613e54565b5b8160048111156126bd576126bc613e54565b5b14156126c857612868565b600160048111156126dc576126db613e54565b5b8160048111156126ef576126ee613e54565b5b1415612730576040517f08c379a000000000000000000000000000000000000000000000000000000000815260040161272790613ecf565b60405180910390fd5b6002600481111561274457612743613e54565b5b81600481111561275757612756613e54565b5b1415612798576040517f08c379a000000000000000000000000000000000000000000000000000000000815260040161278f90613f3b565b60405180910390fd5b600360048111156127ac576127ab613e54565b5b8160048111156127bf576127be613e54565b5b1415612800576040517f08c379a00000000000000000000000000000000000000000000000000000000081526004016127f790613fcd565b60405180910390fd5b60048081111561281357612812613e54565b5b81600481111561282657612825613e54565b5b1415612867576040517f08c379a000000000000000000000000000000000000000000000000000000000815260040161285e9061405f565b60405180910390fd5b5b50565b6001816000016000828254019250508190555050565b600073ffffffffffffffffffffffffffffffffffffffff168273ffffffffffffffffffffffffffffffffffffffff1614156128f1576040517f08c379a00000000000000000000000000000000000000000000000000000000081526004016128e8906140f1565b60405180910390fd5b6128fd826000836122ca565b60008060008473ffffffffffffffffffffffffffffffffffffffff1673ffffffffffffffffffffffffffffffffffffffff16815260200190815260200160002054905081811015612983576040517f08c379a000000000000000000000000000000000000000000000000000000000815260040161297a90614183565b60405180910390fd5b8181036000808573ffffffffffffffffffffffffffffffffffffffff1673ffffffffffffffffffffffffffffffffffffffff1681526020019081526020016000208190555081600260008282546129da91906133ab565b92505081905550600073ffffffffffffffffffffffffffffffffffffffff168373ffffffffffffffffffffffffffffffffffffffff167fddf252ad1be2c89b69c2b068fc378daa952ba7f163c4a11628f55a4df523b3ef84604051612a3f9190612c6f565b60405180910390a3612a53836000846122cf565b505050565b6040518060400160405280600063ffffffff16815260200160007bffffffffffffffffffffffffffffffffffffffffffffffffffffffff1681525090565b600081519050919050565b600082825260208201905092915050565b60005b83811015612ad0578082015181840152602081019050612ab5565b83811115612adf576000848401525b50505050565b6000601f19601f8301169050919050565b6000612b0182612a96565b612b0b8185612aa1565b9350612b1b818560208601612ab2565b612b2481612ae5565b840191505092915050565b60006020820190508181036000830152612b498184612af6565b905092915050565b600080fd5b600073ffffffffffffffffffffffffffffffffffffffff82169050919050565b6000612b8182612b56565b9050919050565b612b9181612b76565b8114612b9c57600080fd5b50565b600081359050612bae81612b88565b92915050565b6000819050919050565b612bc781612bb4565b8114612bd257600080fd5b50565b600081359050612be481612bbe565b92915050565b60008060408385031215612c0157612c00612b51565b5b6000612c0f85828601612b9f565b9250506020612c2085828601612bd5565b9150509250929050565b60008115159050919050565b612c3f81612c2a565b82525050565b6000602082019050612c5a6000830184612c36565b92915050565b612c6981612bb4565b82525050565b6000602082019050612c846000830184612c60565b92915050565b600080600060608486031215612ca357612ca2612b51565b5b6000612cb186828701612b9f565b9350506020612cc286828701612b9f565b9250506040612cd386828701612bd5565b9150509250925092565b600060ff82169050919050565b612cf381612cdd565b82525050565b6000602082019050612d0e6000830184612cea565b92915050565b6000819050919050565b612d2781612d14565b82525050565b6000602082019050612d426000830184612d1e565b92915050565b600060208284031215612d5e57612d5d612b51565b5b6000612d6c84828501612bd5565b91505092915050565b600060208284031215612d8b57612d8a612b51565b5b6000612d9984828501612b9f565b91505092915050565b612dab81612b76565b82525050565b6000602082019050612dc66000830184612da2565b92915050565b600063ffffffff82169050919050565b612de581612dcc565b82525050565b6000602082019050612e006000830184612ddc565b92915050565b612e0f81612cdd565b8114612e1a57600080fd5b50565b600081359050612e2c81612e06565b92915050565b612e3b81612d14565b8114612e4657600080fd5b50565b600081359050612e5881612e32565b92915050565b60008060008060008060c08789031215612e7b57612e7a612b51565b5b6000612e8989828a01612b9f565b9650506020612e9a89828a01612bd5565b9550506040612eab89828a01612bd5565b9450506060612ebc89828a01612e1d565b9350506080612ecd89828a01612e49565b92505060a0612ede89828a01612e49565b9150509295509295509295565b600080600080600080600060e0888a031215612f0a57612f09612b51565b5b6000612f188a828b01612b9f565b9750506020612f298a828b01612b9f565b9650506040612f3a8a828b01612bd5565b9550506060612f4b8a828b01612bd5565b9450506080612f5c8a828b01612e1d565b93505060a0612f6d8a828b01612e49565b92505060c0612f7e8a828b01612e49565b91505092959891949750929550565b60008060408385031215612fa457612fa3612b51565b5b6000612fb285828601612b9f565b9250506020612fc385828601612b9f565b9150509250929050565b612fd681612dcc565b8114612fe157600080fd5b50565b600081359050612ff381612fcd565b92915050565b600080604083850312156130105761300f612b51565b5b600061301e85828601612b9f565b925050602061302f85828601612fe4565b9150509250929050565b61304281612dcc565b82525050565b60007bffffffffffffffffffffffffffffffffffffffffffffffffffffffff82169050919050565b61307981613048565b82525050565b6040820160008201516130956000850182613039565b5060208201516130a86020850182613070565b50505050565b60006040820190506130c3600083018461307f565b92915050565b7f4e487b7100000000000000000000000000000000000000000000000000000000600052602260045260246000fd5b6000600282049050600182168061311057607f821691505b60208210811415613124576131236130c9565b5b50919050565b7f45524332303a207472616e7366657220616d6f756e742065786365656473206160008201527f6c6c6f77616e6365000000000000000000000000000000000000000000000000602082015250565b6000613186602883612aa1565b91506131918261312a565b604082019050919050565b600060208201905081810360008301526131b581613179565b9050919050565b7f4e487b7100000000000000000000000000000000000000000000000000000000600052601160045260246000fd5b60006131f682612bb4565b915061320183612bb4565b9250827fffffffffffffffffffffffffffffffffffffffffffffffffffffffffffffffff03821115613236576132356131bc565b5b828201905092915050565b7f4552433230566f7465733a20626c6f636b206e6f7420796574206d696e656400600082015250565b6000613277601f83612aa1565b915061328282613241565b602082019050919050565b600060208201905081810360008301526132a68161326a565b9050919050565b7f4f776e61626c653a2063616c6c6572206973206e6f7420746865206f776e6572600082015250565b60006132e3602083612aa1565b91506132ee826132ad565b602082019050919050565b60006020820190508181036000830152613312816132d6565b9050919050565b7f45524332303a206275726e20616d6f756e74206578636565647320616c6c6f7760008201527f616e636500000000000000000000000000000000000000000000000000000000602082015250565b6000613375602483612aa1565b915061338082613319565b604082019050919050565b600060208201905081810360008301526133a481613368565b9050919050565b60006133b682612bb4565b91506133c183612bb4565b9250828210156133d4576133d36131bc565b5b828203905092915050565b7f4e487b7100000000000000000000000000000000000000000000000000000000600052603260045260246000fd5b7f45524332303a2064656372656173656420616c6c6f77616e63652062656c6f7760008201527f207a65726f000000000000000000000000000000000000000000000000000000602082015250565b600061346a602583612aa1565b91506134758261340e565b604082019050919050565b600060208201905081810360008301526134998161345d565b9050919050565b7f4552433230566f7465733a207369676e61747572652065787069726564000000600082015250565b60006134d6601d83612aa1565b91506134e1826134a0565b602082019050919050565b60006020820190508181036000830152613505816134c9565b9050919050565b60006080820190506135216000830187612d1e565b61352e6020830186612da2565b61353b6040830185612c60565b6135486060830184612c60565b95945050505050565b7f4552433230566f7465733a20696e76616c6964206e6f6e636500000000000000600082015250565b6000613587601983612aa1565b915061359282613551565b602082019050919050565b600060208201905081810360008301526135b68161357a565b9050919050565b7f45524332305065726d69743a206578706972656420646561646c696e65000000600082015250565b60006135f3601d83612aa1565b91506135fe826135bd565b602082019050919050565b60006020820190508181036000830152613622816135e6565b9050919050565b600060c08201905061363e6000830189612d1e565b61364b6020830188612da2565b6136586040830187612da2565b6136656060830186612c60565b6136726080830185612c60565b61367f60a0830184612c60565b979650505050505050565b7f45524332305065726d69743a20696e76616c6964207369676e61747572650000600082015250565b60006136c0601e83612aa1565b91506136cb8261368a565b602082019050919050565b600060208201905081810360008301526136ef816136b3565b9050919050565b7f4f776e61626c653a206e6577206f776e657220697320746865207a65726f206160008201527f6464726573730000000000000000000000000000000000000000000000000000602082015250565b6000613752602683612aa1565b915061375d826136f6565b604082019050919050565b6000602082019050818103600083015261378181613745565b9050919050565b7f4552433230566f7465733a20746f74616c20737570706c79207269736b73206f60008201527f766572666c6f77696e6720766f74657300000000000000000000000000000000602082015250565b60006137e4603083612aa1565b91506137ef82613788565b604082019050919050565b60006020820190508181036000830152613813816137d7565b9050919050565b7f45524332303a206d696e7420746f20746865207a65726f206164647265737300600082015250565b6000613850601f83612aa1565b915061385b8261381a565b602082019050919050565b6000602082019050818103600083015261387f81613843565b9050919050565b7f53616665436173743a2076616c756520646f65736e27742066697420696e203260008201527f3234206269747300000000000000000000000000000000000000000000000000602082015250565b60006138e2602783612aa1565b91506138ed82613886565b604082019050919050565b60006020820190508181036000830152613911816138d5565b9050919050565b7f53616665436173743a2076616c756520646f65736e27742066697420696e203360008201527f3220626974730000000000000000000000000000000000000000000000000000602082015250565b6000613974602683612aa1565b915061397f82613918565b604082019050919050565b600060208201905081810360008301526139a381613967565b9050919050565b7f45524332303a20617070726f76652066726f6d20746865207a65726f2061646460008201527f7265737300000000000000000000000000000000000000000000000000000000602082015250565b6000613a06602483612aa1565b9150613a11826139aa565b604082019050919050565b60006020820190508181036000830152613a35816139f9565b9050919050565b7f45524332303a20617070726f766520746f20746865207a65726f20616464726560008201527f7373000000000000000000000000000000000000000000000000000000000000602082015250565b6000613a98602283612aa1565b9150613aa382613a3c565b604082019050919050565b60006020820190508181036000830152613ac781613a8b565b9050919050565b7f45524332303a207472616e736665722066726f6d20746865207a65726f20616460008201527f6472657373000000000000000000000000000000000000000000000000000000602082015250565b6000613b2a602583612aa1565b9150613b3582613ace565b604082019050919050565b60006020820190508181036000830152613b5981613b1d565b9050919050565b7f45524332303a207472616e7366657220746f20746865207a65726f206164647260008201527f6573730000000000000000000000000000000000000000000000000000000000602082015250565b6000613bbc602383612aa1565b9150613bc782613b60565b604082019050919050565b60006020820190508181036000830152613beb81613baf565b9050919050565b7f45524332303a207472616e7366657220616d6f756e742065786365656473206260008201527f616c616e63650000000000000000000000000000000000000000000000000000602082015250565b6000613c4e602683612aa1565b9150613c5982613bf2565b604082019050919050565b60006020820190508181036000830152613c7d81613c41565b9050919050565b6000604082019050613c996000830185612c60565b613ca66020830184612c60565b9392505050565b600060a082019050613cc26000830188612d1e565b613ccf6020830187612d1e565b613cdc6040830186612d1e565b613ce96060830185612c60565b613cf66080830184612da2565b9695505050505050565b7f4e487b7100000000000000000000000000000000000000000000000000000000600052601260045260246000fd5b6000613d3a82612bb4565b9150613d4583612bb4565b925082613d5557613d54613d00565b5b828204905092915050565b600081905092915050565b7f1901000000000000000000000000000000000000000000000000000000000000600082015250565b6000613da1600283613d60565b9150613dac82613d6b565b600282019050919050565b6000819050919050565b613dd2613dcd82612d14565b613db7565b82525050565b6000613de382613d94565b9150613def8285613dc1565b602082019150613dff8284613dc1565b6020820191508190509392505050565b6000608082019050613e246000830187612d1e565b613e316020830186612cea565b613e3e6040830185612d1e565b613e4b6060830184612d1e565b95945050505050565b7f4e487b7100000000000000000000000000000000000000000000000000000000600052602160045260246000fd5b7f45434453413a20696e76616c6964207369676e61747572650000000000000000600082015250565b6000613eb9601883612aa1565b9150613ec482613e83565b602082019050919050565b60006020820190508181036000830152613ee881613eac565b9050919050565b7f45434453413a20696e76616c6964207369676e6174757265206c656e67746800600082015250565b6000613f25601f83612aa1565b9150613f3082613eef565b602082019050919050565b60006020820190508181036000830152613f5481613f18565b9050919050565b7f45434453413a20696e76616c6964207369676e6174757265202773272076616c60008201527f7565000000000000000000000000000000000000000000000000000000000000602082015250565b6000613fb7602283612aa1565b9150613fc282613f5b565b604082019050919050565b60006020820190508181036000830152613fe681613faa565b9050919050565b7f45434453413a20696e76616c6964207369676e6174757265202776272076616c60008201527f7565000000000000000000000000000000000000000000000000000000000000602082015250565b6000614049602283612aa1565b915061405482613fed565b604082019050919050565b600060208201905081810360008301526140788161403c565b9050919050565b7f45524332303a206275726e2066726f6d20746865207a65726f2061646472657360008201527f7300000000000000000000000000000000000000000000000000000000000000602082015250565b60006140db602183612aa1565b91506140e68261407f565b604082019050919050565b6000602082019050818103600083015261410a816140ce565b9050919050565b7f45524332303a206275726e20616d6f756e7420657863656564732062616c616e60008201527f6365000000000000000000000000000000000000000000000000000000000000602082015250565b600061416d602283612aa1565b915061417882614111565b604082019050919050565b6000602082019050818103600083015261419c81614160565b905091905056fea26469706673582212208f0e9793a152de1d75ab64c5aff12afcdb2731aa93974803ee1db7fd7133017664736f6c63430008090033",
  "immutableReferences": {
    "3346": [
      {
        "length": 32,
        "start": 4214
      }
    ],
    "5876": [
      {
        "length": 32,
        "start": 7134
      }
    ],
    "5878": [
      {
        "length": 32,
        "start": 7093
      }
    ],
    "5880": [
      {
        "length": 32,
        "start": 7007
      }
    ],
    "5882": [
      {
        "length": 32,
        "start": 7210
      }
    ],
    "5884": [
      {
        "length": 32,
        "start": 7243
      }
    ],
    "5886": [
      {
        "length": 32,
        "start": 7177
      }
    ]
  },
  "source": "// SPDX-License-Identifier: MIT\npragma solidity ^0.8.2;\n\nimport \"@openzeppelin/contracts/token/ERC20/ERC20.sol\";\nimport \"@openzeppelin/contracts/token/ERC20/extensions/ERC20Burnable.sol\";\nimport \"@openzeppelin/contracts/access/Ownable.sol\";\nimport \"@openzeppelin/contracts/token/ERC20/extensions/draft-ERC20Permit.sol\";\nimport \"@openzeppelin/contracts/token/ERC20/extensions/ERC20Votes.sol\";\n\ncontract LOBToken is ERC20, ERC20Burnable, Ownable, ERC20Permit, ERC20Votes {\n    constructor() ERC20(\"LegendOfBeasts\", \"LOB\") ERC20Permit(\"LegendOfBeasts\") {\n        _mint(msg.sender, 1000000 * 10**decimals());\n    }\n\n    function decimals() public pure override returns (uint8) {\n        return 6;\n    }\n\n    function mint(address to, uint256 amount) public onlyOwner {\n        _mint(to, amount);\n    }\n\n    // The following functions are overrides required by Solidity.\n\n    function _afterTokenTransfer(\n        address from,\n        address to,\n        uint256 amount\n    ) internal override(ERC20, ERC20Votes) {\n        super._afterTokenTransfer(from, to, amount);\n    }\n\n    function _mint(address to, uint256 amount)\n        internal\n        override(ERC20, ERC20Votes)\n    {\n        super._mint(to, amount);\n    }\n\n    function _burn(address account, uint256 amount)\n        internal\n        override(ERC20, ERC20Votes)\n    {\n        super._burn(account, amount);\n    }\n}\n",
  "sourcePath": "/home/ec2-user/contract-main/legendofbeasts/contracts/LOBToken.sol",
  "compiler": {
    "name": "solc",
    "version": "0.8.9+commit.e5eed63a.Emscripten.clang"
  },
  "schemaVersion": "3.4.4",
  "updatedAt": "2022-01-25T03:34:29.430Z",
  "networkType": "ethereum",
  "devdoc": {
    "kind": "dev",
    "methods": {
      "DOMAIN_SEPARATOR()": {
        "details": "See {IERC20Permit-DOMAIN_SEPARATOR}."
      },
      "allowance(address,address)": {
        "details": "See {IERC20-allowance}."
      },
      "approve(address,uint256)": {
        "details": "See {IERC20-approve}. Requirements: - `spender` cannot be the zero address."
      },
      "balanceOf(address)": {
        "details": "See {IERC20-balanceOf}."
      },
      "burn(uint256)": {
        "details": "Destroys `amount` tokens from the caller. See {ERC20-_burn}."
      },
      "burnFrom(address,uint256)": {
        "details": "Destroys `amount` tokens from `account`, deducting from the caller's allowance. See {ERC20-_burn} and {ERC20-allowance}. Requirements: - the caller must have allowance for ``accounts``'s tokens of at least `amount`."
      },
      "checkpoints(address,uint32)": {
        "details": "Get the `pos`-th checkpoint for `account`."
      },
      "decimals()": {
        "details": "Returns the number of decimals used to get its user representation. For example, if `decimals` equals `2`, a balance of `505` tokens should be displayed to a user as `5.05` (`505 / 10 ** 2`). Tokens usually opt for a value of 18, imitating the relationship between Ether and Wei. This is the value {ERC20} uses, unless this function is overridden; NOTE: This information is only used for _display_ purposes: it in no way affects any of the arithmetic of the contract, including {IERC20-balanceOf} and {IERC20-transfer}."
      },
      "decreaseAllowance(address,uint256)": {
        "details": "Atomically decreases the allowance granted to `spender` by the caller. This is an alternative to {approve} that can be used as a mitigation for problems described in {IERC20-approve}. Emits an {Approval} event indicating the updated allowance. Requirements: - `spender` cannot be the zero address. - `spender` must have allowance for the caller of at least `subtractedValue`."
      },
      "delegate(address)": {
        "details": "Delegate votes from the sender to `delegatee`."
      },
      "delegateBySig(address,uint256,uint256,uint8,bytes32,bytes32)": {
        "details": "Delegates votes from signer to `delegatee`"
      },
      "delegates(address)": {
        "details": "Get the address `account` is currently delegating to."
      },
      "getPastTotalSupply(uint256)": {
        "details": "Retrieve the `totalSupply` at the end of `blockNumber`. Note, this value is the sum of all balances. It is but NOT the sum of all the delegated votes! Requirements: - `blockNumber` must have been already mined"
      },
      "getPastVotes(address,uint256)": {
        "details": "Retrieve the number of votes for `account` at the end of `blockNumber`. Requirements: - `blockNumber` must have been already mined"
      },
      "getVotes(address)": {
        "details": "Gets the current votes balance for `account`"
      },
      "increaseAllowance(address,uint256)": {
        "details": "Atomically increases the allowance granted to `spender` by the caller. This is an alternative to {approve} that can be used as a mitigation for problems described in {IERC20-approve}. Emits an {Approval} event indicating the updated allowance. Requirements: - `spender` cannot be the zero address."
      },
      "name()": {
        "details": "Returns the name of the token."
      },
      "nonces(address)": {
        "details": "See {IERC20Permit-nonces}."
      },
      "numCheckpoints(address)": {
        "details": "Get number of checkpoints for `account`."
      },
      "owner()": {
        "details": "Returns the address of the current owner."
      },
      "permit(address,address,uint256,uint256,uint8,bytes32,bytes32)": {
        "details": "See {IERC20Permit-permit}."
      },
      "renounceOwnership()": {
        "details": "Leaves the contract without owner. It will not be possible to call `onlyOwner` functions anymore. Can only be called by the current owner. NOTE: Renouncing ownership will leave the contract without an owner, thereby removing any functionality that is only available to the owner."
      },
      "symbol()": {
        "details": "Returns the symbol of the token, usually a shorter version of the name."
      },
      "totalSupply()": {
        "details": "See {IERC20-totalSupply}."
      },
      "transfer(address,uint256)": {
        "details": "See {IERC20-transfer}. Requirements: - `recipient` cannot be the zero address. - the caller must have a balance of at least `amount`."
      },
      "transferFrom(address,address,uint256)": {
        "details": "See {IERC20-transferFrom}. Emits an {Approval} event indicating the updated allowance. This is not required by the EIP. See the note at the beginning of {ERC20}. Requirements: - `sender` and `recipient` cannot be the zero address. - `sender` must have a balance of at least `amount`. - the caller must have allowance for ``sender``'s tokens of at least `amount`."
      },
      "transferOwnership(address)": {
        "details": "Transfers ownership of the contract to a new account (`newOwner`). Can only be called by the current owner."
      }
    },
    "version": 1
  },
  "userdoc": {
    "kind": "user",
    "methods": {},
    "version": 1
  }
}