{
  "contractName": "LootBox",
  "abi": [
    {
      "inputs": [
        {
          "internalType": "address",
          "name": "_token",
          "type": "address"
        }
      ],
      "stateMutability": "nonpayable",
      "type": "constructor"
    },
    {
      "anonymous": false,
      "inputs": [
        {
          "indexed": true,
          "internalType": "address",
          "name": "account",
          "type": "address"
        },
        {
          "indexed": true,
          "internalType": "address",
          "name": "operator",
          "type": "address"
        },
        {
          "indexed": false,
          "internalType": "bool",
          "name": "approved",
          "type": "bool"
        }
      ],
      "name": "ApprovalForAll",
      "type": "event"
    },
    {
      "anonymous": false,
      "inputs": [
        {
          "indexed": true,
          "internalType": "bytes32",
          "name": "role",
          "type": "bytes32"
        },
        {
          "indexed": true,
          "internalType": "bytes32",
          "name": "previousAdminRole",
          "type": "bytes32"
        },
        {
          "indexed": true,
          "internalType": "bytes32",
          "name": "newAdminRole",
          "type": "bytes32"
        }
      ],
      "name": "RoleAdminChanged",
      "type": "event"
    },
    {
      "anonymous": false,
      "inputs": [
        {
          "indexed": true,
          "internalType": "bytes32",
          "name": "role",
          "type": "bytes32"
        },
        {
          "indexed": true,
          "internalType": "address",
          "name": "account",
          "type": "address"
        },
        {
          "indexed": true,
          "internalType": "address",
          "name": "sender",
          "type": "address"
        }
      ],
      "name": "RoleGranted",
      "type": "event"
    },
    {
      "anonymous": false,
      "inputs": [
        {
          "indexed": true,
          "internalType": "bytes32",
          "name": "role",
          "type": "bytes32"
        },
        {
          "indexed": true,
          "internalType": "address",
          "name": "account",
          "type": "address"
        },
        {
          "indexed": true,
          "internalType": "address",
          "name": "sender",
          "type": "address"
        }
      ],
      "name": "RoleRevoked",
      "type": "event"
    },
    {
      "anonymous": false,
      "inputs": [
        {
          "indexed": true,
          "internalType": "address",
          "name": "operator",
          "type": "address"
        },
        {
          "indexed": true,
          "internalType": "address",
          "name": "from",
          "type": "address"
        },
        {
          "indexed": true,
          "internalType": "address",
          "name": "to",
          "type": "address"
        },
        {
          "indexed": false,
          "internalType": "uint256[]",
          "name": "ids",
          "type": "uint256[]"
        },
        {
          "indexed": false,
          "internalType": "uint256[]",
          "name": "values",
          "type": "uint256[]"
        }
      ],
      "name": "TransferBatch",
      "type": "event"
    },
    {
      "anonymous": false,
      "inputs": [
        {
          "indexed": true,
          "internalType": "address",
          "name": "operator",
          "type": "address"
        },
        {
          "indexed": true,
          "internalType": "address",
          "name": "from",
          "type": "address"
        },
        {
          "indexed": true,
          "internalType": "address",
          "name": "to",
          "type": "address"
        },
        {
          "indexed": false,
          "internalType": "uint256",
          "name": "id",
          "type": "uint256"
        },
        {
          "indexed": false,
          "internalType": "uint256",
          "name": "value",
          "type": "uint256"
        }
      ],
      "name": "TransferSingle",
      "type": "event"
    },
    {
      "anonymous": false,
      "inputs": [
        {
          "indexed": false,
          "internalType": "string",
          "name": "value",
          "type": "string"
        },
        {
          "indexed": true,
          "internalType": "uint256",
          "name": "id",
          "type": "uint256"
        }
      ],
      "name": "URI",
      "type": "event"
    },
    {
      "inputs": [],
      "name": "ADMIN_ROLE",
      "outputs": [
        {
          "internalType": "bytes32",
          "name": "",
          "type": "bytes32"
        }
      ],
      "stateMutability": "view",
      "type": "function",
      "constant": true
    },
    {
      "inputs": [],
      "name": "DEFAULT_ADMIN_ROLE",
      "outputs": [
        {
          "internalType": "bytes32",
          "name": "",
          "type": "bytes32"
        }
      ],
      "stateMutability": "view",
      "type": "function",
      "constant": true
    },
    {
      "inputs": [],
      "name": "MINTER_ROLE",
      "outputs": [
        {
          "internalType": "bytes32",
          "name": "",
          "type": "bytes32"
        }
      ],
      "stateMutability": "view",
      "type": "function",
      "constant": true
    },
    {
      "inputs": [
        {
          "internalType": "address",
          "name": "account",
          "type": "address"
        },
        {
          "internalType": "uint256",
          "name": "id",
          "type": "uint256"
        }
      ],
      "name": "balanceOf",
      "outputs": [
        {
          "internalType": "uint256",
          "name": "",
          "type": "uint256"
        }
      ],
      "stateMutability": "view",
      "type": "function",
      "constant": true
    },
    {
      "inputs": [
        {
          "internalType": "address[]",
          "name": "accounts",
          "type": "address[]"
        },
        {
          "internalType": "uint256[]",
          "name": "ids",
          "type": "uint256[]"
        }
      ],
      "name": "balanceOfBatch",
      "outputs": [
        {
          "internalType": "uint256[]",
          "name": "",
          "type": "uint256[]"
        }
      ],
      "stateMutability": "view",
      "type": "function",
      "constant": true
    },
    {
      "inputs": [
        {
          "internalType": "address",
          "name": "account",
          "type": "address"
        },
        {
          "internalType": "uint256",
          "name": "id",
          "type": "uint256"
        },
        {
          "internalType": "uint256",
          "name": "value",
          "type": "uint256"
        }
      ],
      "name": "burn",
      "outputs": [],
      "stateMutability": "nonpayable",
      "type": "function"
    },
    {
      "inputs": [
        {
          "internalType": "address",
          "name": "account",
          "type": "address"
        },
        {
          "internalType": "uint256[]",
          "name": "ids",
          "type": "uint256[]"
        },
        {
          "internalType": "uint256[]",
          "name": "values",
          "type": "uint256[]"
        }
      ],
      "name": "burnBatch",
      "outputs": [],
      "stateMutability": "nonpayable",
      "type": "function"
    },
    {
      "inputs": [
        {
          "internalType": "bytes32",
          "name": "role",
          "type": "bytes32"
        }
      ],
      "name": "getRoleAdmin",
      "outputs": [
        {
          "internalType": "bytes32",
          "name": "",
          "type": "bytes32"
        }
      ],
      "stateMutability": "view",
      "type": "function",
      "constant": true
    },
    {
      "inputs": [
        {
          "internalType": "bytes32",
          "name": "role",
          "type": "bytes32"
        },
        {
          "internalType": "address",
          "name": "account",
          "type": "address"
        }
      ],
      "name": "grantRole",
      "outputs": [],
      "stateMutability": "nonpayable",
      "type": "function"
    },
    {
      "inputs": [
        {
          "internalType": "bytes32",
          "name": "role",
          "type": "bytes32"
        },
        {
          "internalType": "address",
          "name": "account",
          "type": "address"
        }
      ],
      "name": "hasRole",
      "outputs": [
        {
          "internalType": "bool",
          "name": "",
          "type": "bool"
        }
      ],
      "stateMutability": "view",
      "type": "function",
      "constant": true
    },
    {
      "inputs": [
        {
          "internalType": "address",
          "name": "account",
          "type": "address"
        },
        {
          "internalType": "address",
          "name": "operator",
          "type": "address"
        }
      ],
      "name": "isApprovedForAll",
      "outputs": [
        {
          "internalType": "bool",
          "name": "",
          "type": "bool"
        }
      ],
      "stateMutability": "view",
      "type": "function",
      "constant": true
    },
    {
      "inputs": [
        {
          "internalType": "bytes32",
          "name": "role",
          "type": "bytes32"
        },
        {
          "internalType": "address",
          "name": "account",
          "type": "address"
        }
      ],
      "name": "renounceRole",
      "outputs": [],
      "stateMutability": "nonpayable",
      "type": "function"
    },
    {
      "inputs": [
        {
          "internalType": "bytes32",
          "name": "role",
          "type": "bytes32"
        },
        {
          "internalType": "address",
          "name": "account",
          "type": "address"
        }
      ],
      "name": "revokeRole",
      "outputs": [],
      "stateMutability": "nonpayable",
      "type": "function"
    },
    {
      "inputs": [
        {
          "internalType": "address",
          "name": "from",
          "type": "address"
        },
        {
          "internalType": "address",
          "name": "to",
          "type": "address"
        },
        {
          "internalType": "uint256[]",
          "name": "ids",
          "type": "uint256[]"
        },
        {
          "internalType": "uint256[]",
          "name": "amounts",
          "type": "uint256[]"
        },
        {
          "internalType": "bytes",
          "name": "data",
          "type": "bytes"
        }
      ],
      "name": "safeBatchTransferFrom",
      "outputs": [],
      "stateMutability": "nonpayable",
      "type": "function"
    },
    {
      "inputs": [
        {
          "internalType": "address",
          "name": "from",
          "type": "address"
        },
        {
          "internalType": "address",
          "name": "to",
          "type": "address"
        },
        {
          "internalType": "uint256",
          "name": "id",
          "type": "uint256"
        },
        {
          "internalType": "uint256",
          "name": "amount",
          "type": "uint256"
        },
        {
          "internalType": "bytes",
          "name": "data",
          "type": "bytes"
        }
      ],
      "name": "safeTransferFrom",
      "outputs": [],
      "stateMutability": "nonpayable",
      "type": "function"
    },
    {
      "inputs": [
        {
          "internalType": "address",
          "name": "operator",
          "type": "address"
        },
        {
          "internalType": "bool",
          "name": "approved",
          "type": "bool"
        }
      ],
      "name": "setApprovalForAll",
      "outputs": [],
      "stateMutability": "nonpayable",
      "type": "function"
    },
    {
      "inputs": [
        {
          "internalType": "uint256",
          "name": "",
          "type": "uint256"
        }
      ],
      "name": "uri",
      "outputs": [
        {
          "internalType": "string",
          "name": "",
          "type": "string"
        }
      ],
      "stateMutability": "view",
      "type": "function",
      "constant": true
    },
    {
      "inputs": [
        {
          "internalType": "string",
          "name": "newuri",
          "type": "string"
        }
      ],
      "name": "setURI",
      "outputs": [],
      "stateMutability": "nonpayable",
      "type": "function"
    },
    {
      "inputs": [
        {
          "internalType": "address",
          "name": "_feeReceiver",
          "type": "address"
        }
      ],
      "name": "setFeeReceiver",
      "outputs": [],
      "stateMutability": "nonpayable",
      "type": "function"
    },
    {
      "inputs": [],
      "name": "getFeeReceiver",
      "outputs": [
        {
          "internalType": "address",
          "name": "",
          "type": "address"
        }
      ],
      "stateMutability": "view",
      "type": "function",
      "constant": true
    },
    {
      "inputs": [
        {
          "internalType": "uint256",
          "name": "_optionId",
          "type": "uint256"
        },
        {
          "internalType": "uint256",
          "name": "_amount",
          "type": "uint256"
        }
      ],
      "name": "unpack",
      "outputs": [],
      "stateMutability": "nonpayable",
      "type": "function"
    },
    {
      "inputs": [
        {
          "internalType": "address",
          "name": "account",
          "type": "address"
        },
        {
          "internalType": "uint256",
          "name": "id",
          "type": "uint256"
        },
        {
          "internalType": "uint256",
          "name": "amount",
          "type": "uint256"
        },
        {
          "internalType": "bytes",
          "name": "data",
          "type": "bytes"
        }
      ],
      "name": "mint",
      "outputs": [],
      "stateMutability": "nonpayable",
      "type": "function"
    },
    {
      "inputs": [
        {
          "internalType": "address",
          "name": "to",
          "type": "address"
        },
        {
          "internalType": "uint256[]",
          "name": "ids",
          "type": "uint256[]"
        },
        {
          "internalType": "uint256[]",
          "name": "amounts",
          "type": "uint256[]"
        },
        {
          "internalType": "bytes",
          "name": "data",
          "type": "bytes"
        }
      ],
      "name": "mintBatch",
      "outputs": [],
      "stateMutability": "nonpayable",
      "type": "function"
    },
    {
      "inputs": [
        {
          "internalType": "uint256",
          "name": "_numOptions",
          "type": "uint256"
        },
        {
          "internalType": "uint256",
          "name": "_numClasses",
          "type": "uint256"
        },
        {
          "internalType": "uint256",
          "name": "_seed",
          "type": "uint256"
        }
      ],
      "name": "setState",
      "outputs": [],
      "stateMutability": "nonpayable",
      "type": "function"
    },
    {
      "inputs": [
        {
          "internalType": "uint256",
          "name": "_classId",
          "type": "uint256"
        },
        {
          "internalType": "uint256[]",
          "name": "_tokenIds",
          "type": "uint256[]"
        }
      ],
      "name": "setTokenIdsForClass",
      "outputs": [],
      "stateMutability": "nonpayable",
      "type": "function"
    },
    {
      "inputs": [
        {
          "internalType": "uint256",
          "name": "_classId",
          "type": "uint256"
        },
        {
          "internalType": "address",
          "name": "_factoryAddress",
          "type": "address"
        }
      ],
      "name": "setFactoryForClass",
      "outputs": [],
      "stateMutability": "nonpayable",
      "type": "function"
    },
    {
      "inputs": [
        {
          "internalType": "uint256",
          "name": "_seed",
          "type": "uint256"
        }
      ],
      "name": "setSeed",
      "outputs": [],
      "stateMutability": "nonpayable",
      "type": "function"
    },
    {
      "inputs": [
        {
          "internalType": "uint256",
          "name": "_optionId",
          "type": "uint256"
        },
        {
          "internalType": "uint16[]",
          "name": "_probabilities",
          "type": "uint16[]"
        }
      ],
      "name": "setProbabilitiesForOption",
      "outputs": [],
      "stateMutability": "nonpayable",
      "type": "function"
    },
    {
      "inputs": [
        {
          "internalType": "bytes4",
          "name": "interfaceId",
          "type": "bytes4"
        }
      ],
      "name": "supportsInterface",
      "outputs": [
        {
          "internalType": "bool",
          "name": "",
          "type": "bool"
        }
      ],
      "stateMutability": "view",
      "type": "function",
      "constant": true
    }
  ],
  "bytecode": "0x60806040523480156200001157600080fd5b5060405162005ce938038062005ce9833981810160405281019062000037919062000496565b60405180606001604052806030815260200162005cb96030913962000062816200016160201b60201c565b5080600a60006101000a81548173ffffffffffffffffffffffffffffffffffffffff021916908373ffffffffffffffffffffffffffffffffffffffff160217905550620000d67fa49807205ce4d355092ef5a8a18f56e8913cf4a201fbe287825b095693c21775336200017d60201b60201c565b620001287f9f2df0fed2c77648de5860a4cc508cd0818c85b8b8a1ab4ceeef8d981c8956a67fa49807205ce4d355092ef5a8a18f56e8913cf4a201fbe287825b095693c217756200019360201b60201c565b6200015a7fa49807205ce4d355092ef5a8a18f56e8913cf4a201fbe287825b095693c21775806200019360201b60201c565b506200052d565b8060029080519060200190620001799291906200037c565b5050565b6200018f8282620001f760201b60201c565b5050565b6000620001a683620002e960201b60201c565b90508160036000858152602001908152602001600020600101819055508181847fbd79b86ffe0ab8e8776151514217cd7cacd52c909f66475c3af44e129f0b00ff60405160405180910390a4505050565b6200020982826200030960201b60201c565b620002e55760016003600084815260200190815260200160002060000160008373ffffffffffffffffffffffffffffffffffffffff1673ffffffffffffffffffffffffffffffffffffffff16815260200190815260200160002060006101000a81548160ff0219169083151502179055506200028a6200037460201b60201c565b73ffffffffffffffffffffffffffffffffffffffff168173ffffffffffffffffffffffffffffffffffffffff16837f2f8788117e7eff1d82e926ec794901d17c78024a50270940304540a733656f0d60405160405180910390a45b5050565b600060036000838152602001908152602001600020600101549050919050565b60006003600084815260200190815260200160002060000160008373ffffffffffffffffffffffffffffffffffffffff1673ffffffffffffffffffffffffffffffffffffffff16815260200190815260200160002060009054906101000a900460ff16905092915050565b600033905090565b8280546200038a90620004f7565b90600052602060002090601f016020900481019282620003ae5760008555620003fa565b82601f10620003c957805160ff1916838001178555620003fa565b82800160010185558215620003fa579182015b82811115620003f9578251825591602001919060010190620003dc565b5b5090506200040991906200040d565b5090565b5b80821115620004285760008160009055506001016200040e565b5090565b600080fd5b600073ffffffffffffffffffffffffffffffffffffffff82169050919050565b60006200045e8262000431565b9050919050565b620004708162000451565b81146200047c57600080fd5b50565b600081519050620004908162000465565b92915050565b600060208284031215620004af57620004ae6200042c565b5b6000620004bf848285016200047f565b91505092915050565b7f4e487b7100000000000000000000000000000000000000000000000000000000600052602260045260246000fd5b600060028204905060018216806200051057607f821691505b60208210811415620005275762000526620004c8565b5b50919050565b61577c806200053d6000396000f3fe608060405234801561001057600080fd5b50600436106101ce5760003560e01c80638229920511610104578063d547741f116100a2578063efdcd97411610071578063efdcd97414610523578063f242432a1461053f578063f5298aca1461055b578063f718824614610577576101ce565b8063d547741f1461049d578063e830a67b146104b9578063e8a35392146104d5578063e985e9c5146104f3576101ce565b8063a22cb465116100de578063a22cb4651461042b578063bd34c39114610447578063c32a50f914610463578063d53913931461047f576101ce565b806382299205146103c157806391d14854146103dd578063a217fddf1461040d576101ce565b80632f2ff15d116101715780634e1273f41161014b5780634e1273f41461033b5780636b20c4541461036b578063731133e91461038757806375b238fc146103a3576101ce565b80632f2ff15d146102e757806336568abe146103035780634c9047301461031f576101ce565b80630e89341c116101ad5780630e89341c1461024f5780631f7fdffa1461027f578063248a9ca31461029b5780632eb2c2d6146102cb576101ce565b8062fdd58e146101d357806301ffc9a71461020357806302fe530514610233575b600080fd5b6101ed60048036038101906101e8919061331d565b610593565b6040516101fa919061336c565b60405180910390f35b61021d600480360381019061021891906133df565b61065c565b60405161022a9190613427565b60405180910390f35b61024d60048036038101906102489190613588565b61066e565b005b610269600480360381019061026491906135d1565b6106ad565b6040516102769190613686565b60405180910390f35b61029960048036038101906102949190613811565b610741565b005b6102b560048036038101906102b09190613902565b610786565b6040516102c2919061393e565b60405180910390f35b6102e560048036038101906102e09190613959565b6107a6565b005b61030160048036038101906102fc9190613a28565b610847565b005b61031d60048036038101906103189190613a28565b610870565b005b61033960048036038101906103349190613a68565b6108f3565b005b61035560048036038101906103509190613b7e565b610999565b6040516103629190613cb4565b60405180910390f35b61038560048036038101906103809190613cd6565b610ab2565b005b6103a1600480360381019061039c9190613d61565b610b4f565b005b6103ab610b94565b6040516103b8919061393e565b60405180910390f35b6103db60048036038101906103d69190613de4565b610bb8565b005b6103f760048036038101906103f29190613a28565b610c5b565b6040516104049190613427565b60405180910390f35b610415610cc6565b604051610422919061393e565b60405180910390f35b61044560048036038101906104409190613e50565b610ccd565b005b610461600480360381019061045c9190613e90565b610ce3565b005b61047d600480360381019061047891906135d1565b610ef3565b005b610487610f93565b604051610494919061393e565b60405180910390f35b6104b760048036038101906104b29190613a28565b610fb7565b005b6104d360048036038101906104ce9190613fcd565b610fe0565b005b6104dd611083565b6040516104ea9190614038565b60405180910390f35b61050d60048036038101906105089190614053565b6110ad565b60405161051a9190613427565b60405180910390f35b61053d60048036038101906105389190614093565b611141565b005b610559600480360381019061055491906140c0565b6111b8565b005b61057560048036038101906105709190614157565b611259565b005b610591600480360381019061058c91906141aa565b6112f6565b005b60008073ffffffffffffffffffffffffffffffffffffffff168373ffffffffffffffffffffffffffffffffffffffff161415610604576040517f08c379a00000000000000000000000000000000000000000000000000000000081526004016105fb90614278565b60405180910390fd5b60008083815260200190815260200160002060008473ffffffffffffffffffffffffffffffffffffffff1673ffffffffffffffffffffffffffffffffffffffff16815260200190815260200160002054905092915050565b600061066782611399565b9050919050565b7fa49807205ce4d355092ef5a8a18f56e8913cf4a201fbe287825b095693c217756106a08161069b611413565b61141b565b6106a9826114b8565b5050565b6060600280546106bc906142c7565b80601f01602080910402602001604051908101604052809291908181526020018280546106e8906142c7565b80156107355780601f1061070a57610100808354040283529160200191610735565b820191906000526020600020905b81548152906001019060200180831161071857829003601f168201915b50505050509050919050565b7f9f2df0fed2c77648de5860a4cc508cd0818c85b8b8a1ab4ceeef8d981c8956a66107738161076e611413565b61141b565b61077f858585856114d2565b5050505050565b600060036000838152602001908152602001600020600101549050919050565b6107ae611413565b73ffffffffffffffffffffffffffffffffffffffff168573ffffffffffffffffffffffffffffffffffffffff1614806107f457506107f3856107ee611413565b6110ad565b5b610833576040517f08c379a000000000000000000000000000000000000000000000000000000000815260040161082a9061436b565b60405180910390fd5b61084085858585856116f0565b5050505050565b61085082610786565b6108618161085c611413565b61141b565b61086b8383611a04565b505050565b610878611413565b73ffffffffffffffffffffffffffffffffffffffff168173ffffffffffffffffffffffffffffffffffffffff16146108e5576040517f08c379a00000000000000000000000000000000000000000000000000000000081526004016108dc906143fd565b60405180910390fd5b6108ef8282611ae5565b5050565b7fa49807205ce4d355092ef5a8a18f56e8913cf4a201fbe287825b095693c2177561092581610920611413565b61141b565b73__LootBoxRandomness_____________________63e70b790e60048686866040518563ffffffff1660e01b81526004016109639493929190614433565b60006040518083038186803b15801561097b57600080fd5b505af415801561098f573d6000803e3d6000fd5b5050505050505050565b606081518351146109df576040517f08c379a00000000000000000000000000000000000000000000000000000000081526004016109d6906144ea565b60405180910390fd5b6000835167ffffffffffffffff8111156109fc576109fb61345d565b5b604051908082528060200260200182016040528015610a2a5781602001602082028036833780820191505090505b50905060005b8451811015610aa757610a77858281518110610a4f57610a4e61450a565b5b6020026020010151858381518110610a6a57610a6961450a565b5b6020026020010151610593565b828281518110610a8a57610a8961450a565b5b60200260200101818152505080610aa090614568565b9050610a30565b508091505092915050565b610aba611413565b73ffffffffffffffffffffffffffffffffffffffff168373ffffffffffffffffffffffffffffffffffffffff161480610b005750610aff83610afa611413565b6110ad565b5b610b3f576040517f08c379a0000000000000000000000000000000000000000000000000000000008152600401610b3690614623565b60405180910390fd5b610b4a838383611bc7565b505050565b7f9f2df0fed2c77648de5860a4cc508cd0818c85b8b8a1ab4ceeef8d981c8956a6610b8181610b7c611413565b61141b565b610b8d85858585611e78565b5050505050565b7fa49807205ce4d355092ef5a8a18f56e8913cf4a201fbe287825b095693c2177581565b7fa49807205ce4d355092ef5a8a18f56e8913cf4a201fbe287825b095693c21775610bea81610be5611413565b61141b565b73__LootBoxRandomness_____________________6365a98442600485856040518463ffffffff1660e01b8152600401610c2693929190614652565b60006040518083038186803b158015610c3e57600080fd5b505af4158015610c52573d6000803e3d6000fd5b50505050505050565b60006003600084815260200190815260200160002060000160008373ffffffffffffffffffffffffffffffffffffffff1673ffffffffffffffffffffffffffffffffffffffff16815260200190815260200160002060009054906101000a900460ff16905092915050565b6000801b81565b610cdf610cd8611413565b838361200e565b5050565b6001600a60009054906101000a900473ffffffffffffffffffffffffffffffffffffffff1673ffffffffffffffffffffffffffffffffffffffff1663dd62ed3e610d2b611413565b306040518363ffffffff1660e01b8152600401610d49929190614689565b60206040518083038186803b158015610d6157600080fd5b505afa158015610d75573d6000803e3d6000fd5b505050506040513d601f19601f82011682018060405250810190610d9991906146c7565b1015610dda576040517f08c379a0000000000000000000000000000000000000000000000000000000008152600401610dd190614740565b60405180910390fd5b600a60009054906101000a900473ffffffffffffffffffffffffffffffffffffffff1673ffffffffffffffffffffffffffffffffffffffff166323b872dd610e20611413565b600b60009054906101000a900473ffffffffffffffffffffffffffffffffffffffff16620f42406040518463ffffffff1660e01b8152600401610e65939291906147a5565b602060405180830381600087803b158015610e7f57600080fd5b505af1158015610e93573d6000803e3d6000fd5b505050506040513d601f19601f82011682018060405250810190610eb791906147f1565b50610eca610ec3611413565b838361217b565b610eef600483610ed8611413565b846040518060200160405280600081525030612398565b5050565b7fa49807205ce4d355092ef5a8a18f56e8913cf4a201fbe287825b095693c21775610f2581610f20611413565b61141b565b73__LootBoxRandomness_____________________631d196bfa6004846040518363ffffffff1660e01b8152600401610f5f92919061481e565b60006040518083038186803b158015610f7757600080fd5b505af4158015610f8b573d6000803e3d6000fd5b505050505050565b7f9f2df0fed2c77648de5860a4cc508cd0818c85b8b8a1ab4ceeef8d981c8956a681565b610fc082610786565b610fd181610fcc611413565b61141b565b610fdb8383611ae5565b505050565b7fa49807205ce4d355092ef5a8a18f56e8913cf4a201fbe287825b095693c217756110128161100d611413565b61141b565b73__LootBoxRandomness_____________________63460f72e2600485856040518463ffffffff1660e01b815260040161104e93929190614905565b60006040518083038186803b15801561106657600080fd5b505af415801561107a573d6000803e3d6000fd5b50505050505050565b6000600b60009054906101000a900473ffffffffffffffffffffffffffffffffffffffff16905090565b6000600160008473ffffffffffffffffffffffffffffffffffffffff1673ffffffffffffffffffffffffffffffffffffffff16815260200190815260200160002060008373ffffffffffffffffffffffffffffffffffffffff1673ffffffffffffffffffffffffffffffffffffffff16815260200190815260200160002060009054906101000a900460ff16905092915050565b7fa49807205ce4d355092ef5a8a18f56e8913cf4a201fbe287825b095693c217756111738161116e611413565b61141b565b81600b60006101000a81548173ffffffffffffffffffffffffffffffffffffffff021916908373ffffffffffffffffffffffffffffffffffffffff1602179055505050565b6111c0611413565b73ffffffffffffffffffffffffffffffffffffffff168573ffffffffffffffffffffffffffffffffffffffff161480611206575061120585611200611413565b6110ad565b5b611245576040517f08c379a000000000000000000000000000000000000000000000000000000000815260040161123c90614623565b60405180910390fd5b6112528585858585612506565b5050505050565b611261611413565b73ffffffffffffffffffffffffffffffffffffffff168373ffffffffffffffffffffffffffffffffffffffff1614806112a757506112a6836112a1611413565b6110ad565b5b6112e6576040517f08c379a00000000000000000000000000000000000000000000000000000000081526004016112dd90614623565b60405180910390fd5b6112f183838361217b565b505050565b7fa49807205ce4d355092ef5a8a18f56e8913cf4a201fbe287825b095693c2177561132881611323611413565b61141b565b73__LootBoxRandomness_____________________63657cfa24600485856040518463ffffffff1660e01b8152600401611364939291906149d9565b60006040518083038186803b15801561137c57600080fd5b505af4158015611390573d6000803e3d6000fd5b50505050505050565b60007f7965db0b000000000000000000000000000000000000000000000000000000007bffffffffffffffffffffffffffffffffffffffffffffffffffffffff1916827bffffffffffffffffffffffffffffffffffffffffffffffffffffffff1916148061140c575061140b82612788565b5b9050919050565b600033905090565b6114258282610c5b565b6114b45761144a8173ffffffffffffffffffffffffffffffffffffffff16601461286a565b6114588360001c602061286a565b604051602001611469929190614aeb565b6040516020818303038152906040526040517f08c379a00000000000000000000000000000000000000000000000000000000081526004016114ab9190613686565b60405180910390fd5b5050565b80600290805190602001906114ce9291906131d2565b5050565b600073ffffffffffffffffffffffffffffffffffffffff168473ffffffffffffffffffffffffffffffffffffffff161415611542576040517f08c379a000000000000000000000000000000000000000000000000000000000815260040161153990614b97565b60405180910390fd5b8151835114611586576040517f08c379a000000000000000000000000000000000000000000000000000000000815260040161157d90614c29565b60405180910390fd5b6000611590611413565b90506115a181600087878787612aa6565b60005b845181101561165a578381815181106115c0576115bf61450a565b5b60200260200101516000808784815181106115de576115dd61450a565b5b6020026020010151815260200190815260200160002060008873ffffffffffffffffffffffffffffffffffffffff1673ffffffffffffffffffffffffffffffffffffffff16815260200190815260200160002060008282546116409190614c49565b92505081905550808061165290614568565b9150506115a4565b508473ffffffffffffffffffffffffffffffffffffffff16600073ffffffffffffffffffffffffffffffffffffffff168273ffffffffffffffffffffffffffffffffffffffff167f4a39dc06d4c0dbc64b70af90fd698a233a518aa5d07e595d983b8c0526c8f7fb87876040516116d2929190614c9f565b60405180910390a46116e981600087878787612abc565b5050505050565b8151835114611734576040517f08c379a000000000000000000000000000000000000000000000000000000000815260040161172b90614c29565b60405180910390fd5b600073ffffffffffffffffffffffffffffffffffffffff168473ffffffffffffffffffffffffffffffffffffffff1614156117a4576040517f08c379a000000000000000000000000000000000000000000000000000000000815260040161179b90614d48565b60405180910390fd5b60006117ae611413565b90506117be818787878787612aa6565b60005b845181101561196f5760008582815181106117df576117de61450a565b5b6020026020010151905060008583815181106117fe576117fd61450a565b5b60200260200101519050600080600084815260200190815260200160002060008b73ffffffffffffffffffffffffffffffffffffffff1673ffffffffffffffffffffffffffffffffffffffff1681526020019081526020016000205490508181101561189f576040517f08c379a000000000000000000000000000000000000000000000000000000000815260040161189690614dda565b60405180910390fd5b81810360008085815260200190815260200160002060008c73ffffffffffffffffffffffffffffffffffffffff1673ffffffffffffffffffffffffffffffffffffffff168152602001908152602001600020819055508160008085815260200190815260200160002060008b73ffffffffffffffffffffffffffffffffffffffff1673ffffffffffffffffffffffffffffffffffffffff16815260200190815260200160002060008282546119549190614c49565b925050819055505050508061196890614568565b90506117c1565b508473ffffffffffffffffffffffffffffffffffffffff168673ffffffffffffffffffffffffffffffffffffffff168273ffffffffffffffffffffffffffffffffffffffff167f4a39dc06d4c0dbc64b70af90fd698a233a518aa5d07e595d983b8c0526c8f7fb87876040516119e6929190614c9f565b60405180910390a46119fc818787878787612abc565b505050505050565b611a0e8282610c5b565b611ae15760016003600084815260200190815260200160002060000160008373ffffffffffffffffffffffffffffffffffffffff1673ffffffffffffffffffffffffffffffffffffffff16815260200190815260200160002060006101000a81548160ff021916908315150217905550611a86611413565b73ffffffffffffffffffffffffffffffffffffffff168173ffffffffffffffffffffffffffffffffffffffff16837f2f8788117e7eff1d82e926ec794901d17c78024a50270940304540a733656f0d60405160405180910390a45b5050565b611aef8282610c5b565b15611bc35760006003600084815260200190815260200160002060000160008373ffffffffffffffffffffffffffffffffffffffff1673ffffffffffffffffffffffffffffffffffffffff16815260200190815260200160002060006101000a81548160ff021916908315150217905550611b68611413565b73ffffffffffffffffffffffffffffffffffffffff168173ffffffffffffffffffffffffffffffffffffffff16837ff6391f5c32d9c69d2a47ea670b442974b53935d1edc7fd64eb21e047a839171b60405160405180910390a45b5050565b600073ffffffffffffffffffffffffffffffffffffffff168373ffffffffffffffffffffffffffffffffffffffff161415611c37576040517f08c379a0000000000000000000000000000000000000000000000000000000008152600401611c2e90614e6c565b60405180910390fd5b8051825114611c7b576040517f08c379a0000000000000000000000000000000000000000000000000000000008152600401611c7290614c29565b60405180910390fd5b6000611c85611413565b9050611ca581856000868660405180602001604052806000815250612aa6565b60005b8351811015611df2576000848281518110611cc657611cc561450a565b5b602002602001015190506000848381518110611ce557611ce461450a565b5b60200260200101519050600080600084815260200190815260200160002060008973ffffffffffffffffffffffffffffffffffffffff1673ffffffffffffffffffffffffffffffffffffffff16815260200190815260200160002054905081811015611d86576040517f08c379a0000000000000000000000000000000000000000000000000000000008152600401611d7d90614efe565b60405180910390fd5b81810360008085815260200190815260200160002060008a73ffffffffffffffffffffffffffffffffffffffff1673ffffffffffffffffffffffffffffffffffffffff168152602001908152602001600020819055505050508080611dea90614568565b915050611ca8565b50600073ffffffffffffffffffffffffffffffffffffffff168473ffffffffffffffffffffffffffffffffffffffff168273ffffffffffffffffffffffffffffffffffffffff167f4a39dc06d4c0dbc64b70af90fd698a233a518aa5d07e595d983b8c0526c8f7fb8686604051611e6a929190614c9f565b60405180910390a450505050565b600073ffffffffffffffffffffffffffffffffffffffff168473ffffffffffffffffffffffffffffffffffffffff161415611ee8576040517f08c379a0000000000000000000000000000000000000000000000000000000008152600401611edf90614b97565b60405180910390fd5b6000611ef2611413565b9050611f1381600087611f0488612ca3565b611f0d88612ca3565b87612aa6565b8260008086815260200190815260200160002060008773ffffffffffffffffffffffffffffffffffffffff1673ffffffffffffffffffffffffffffffffffffffff1681526020019081526020016000206000828254611f729190614c49565b925050819055508473ffffffffffffffffffffffffffffffffffffffff16600073ffffffffffffffffffffffffffffffffffffffff168273ffffffffffffffffffffffffffffffffffffffff167fc3d58168c5ae7397731d063d5bbf3d657854427343f4c083240f7aacaa2d0f628787604051611ff0929190614f1e565b60405180910390a461200781600087878787612d1d565b5050505050565b8173ffffffffffffffffffffffffffffffffffffffff168373ffffffffffffffffffffffffffffffffffffffff16141561207d576040517f08c379a000000000000000000000000000000000000000000000000000000000815260040161207490614fb9565b60405180910390fd5b80600160008573ffffffffffffffffffffffffffffffffffffffff1673ffffffffffffffffffffffffffffffffffffffff16815260200190815260200160002060008473ffffffffffffffffffffffffffffffffffffffff1673ffffffffffffffffffffffffffffffffffffffff16815260200190815260200160002060006101000a81548160ff0219169083151502179055508173ffffffffffffffffffffffffffffffffffffffff168373ffffffffffffffffffffffffffffffffffffffff167f17307eab39ab6107e8899845ad3d59bd9653f200f220920489ca2b5937696c318360405161216e9190613427565b60405180910390a3505050565b600073ffffffffffffffffffffffffffffffffffffffff168373ffffffffffffffffffffffffffffffffffffffff1614156121eb576040517f08c379a00000000000000000000000000000000000000000000000000000000081526004016121e290614e6c565b60405180910390fd5b60006121f5611413565b90506122258185600061220787612ca3565b61221087612ca3565b60405180602001604052806000815250612aa6565b600080600085815260200190815260200160002060008673ffffffffffffffffffffffffffffffffffffffff1673ffffffffffffffffffffffffffffffffffffffff168152602001908152602001600020549050828110156122bc576040517f08c379a00000000000000000000000000000000000000000000000000000000081526004016122b390614efe565b60405180910390fd5b82810360008086815260200190815260200160002060008773ffffffffffffffffffffffffffffffffffffffff1673ffffffffffffffffffffffffffffffffffffffff16815260200190815260200160002081905550600073ffffffffffffffffffffffffffffffffffffffff168573ffffffffffffffffffffffffffffffffffffffff168373ffffffffffffffffffffffffffffffffffffffff167fc3d58168c5ae7397731d063d5bbf3d657854427343f4c083240f7aacaa2d0f628787604051612389929190614f1e565b60405180910390a45050505050565b856000015485106123de576040517f08c379a00000000000000000000000000000000000000000000000000000000081526004016123d590615025565b60405180910390fd5b60006001905060005b848110156124aa576000612486898a60020160008b815260200190815260200160002080548060200260200160405190810160405280929190818152602001828054801561247c57602002820191906000526020600020906000905b82829054906101000a900461ffff1661ffff16815260200190600201906020826001010492830192600103820291508084116124435790505b5050505050612f04565b90506124958982898688612fab565b505080806124a290614568565b9150506123e7565b508473ffffffffffffffffffffffffffffffffffffffff16867fd8c55eae4f6ffa3dfbfba23f50cb5e242e86d347736fe1b910ad11bff616d8398660016040516124f5929190615080565b60405180910390a350505050505050565b600073ffffffffffffffffffffffffffffffffffffffff168473ffffffffffffffffffffffffffffffffffffffff161415612576576040517f08c379a000000000000000000000000000000000000000000000000000000000815260040161256d90614d48565b60405180910390fd5b6000612580611413565b90506125a081878761259188612ca3565b61259a88612ca3565b87612aa6565b600080600086815260200190815260200160002060008873ffffffffffffffffffffffffffffffffffffffff1673ffffffffffffffffffffffffffffffffffffffff16815260200190815260200160002054905083811015612637576040517f08c379a000000000000000000000000000000000000000000000000000000000815260040161262e90614dda565b60405180910390fd5b83810360008087815260200190815260200160002060008973ffffffffffffffffffffffffffffffffffffffff1673ffffffffffffffffffffffffffffffffffffffff168152602001908152602001600020819055508360008087815260200190815260200160002060008873ffffffffffffffffffffffffffffffffffffffff1673ffffffffffffffffffffffffffffffffffffffff16815260200190815260200160002060008282546126ec9190614c49565b925050819055508573ffffffffffffffffffffffffffffffffffffffff168773ffffffffffffffffffffffffffffffffffffffff168373ffffffffffffffffffffffffffffffffffffffff167fc3d58168c5ae7397731d063d5bbf3d657854427343f4c083240f7aacaa2d0f628888604051612769929190614f1e565b60405180910390a461277f828888888888612d1d565b50505050505050565b60007fd9b67a26000000000000000000000000000000000000000000000000000000007bffffffffffffffffffffffffffffffffffffffffffffffffffffffff1916827bffffffffffffffffffffffffffffffffffffffffffffffffffffffff1916148061285357507f0e89341c000000000000000000000000000000000000000000000000000000007bffffffffffffffffffffffffffffffffffffffffffffffffffffffff1916827bffffffffffffffffffffffffffffffffffffffffffffffffffffffff1916145b806128635750612862826130e1565b5b9050919050565b60606000600283600261287d91906150a9565b6128879190614c49565b67ffffffffffffffff8111156128a05761289f61345d565b5b6040519080825280601f01601f1916602001820160405280156128d25781602001600182028036833780820191505090505b5090507f30000000000000000000000000000000000000000000000000000000000000008160008151811061290a5761290961450a565b5b60200101907effffffffffffffffffffffffffffffffffffffffffffffffffffffffffffff1916908160001a9053507f78000000000000000000000000000000000000000000000000000000000000008160018151811061296e5761296d61450a565b5b60200101907effffffffffffffffffffffffffffffffffffffffffffffffffffffffffffff1916908160001a905350600060018460026129ae91906150a9565b6129b89190614c49565b90505b6001811115612a58577f3031323334353637383961626364656600000000000000000000000000000000600f8616601081106129fa576129f961450a565b5b1a60f81b828281518110612a1157612a1061450a565b5b60200101907effffffffffffffffffffffffffffffffffffffffffffffffffffffffffffff1916908160001a905350600485901c945080612a5190615103565b90506129bb565b5060008414612a9c576040517f08c379a0000000000000000000000000000000000000000000000000000000008152600401612a9390615179565b60405180910390fd5b8091505092915050565b612ab486868686868661314b565b505050505050565b612adb8473ffffffffffffffffffffffffffffffffffffffff16613153565b15612c9b578373ffffffffffffffffffffffffffffffffffffffff1663bc197c8187878686866040518663ffffffff1660e01b8152600401612b219594939291906151ee565b602060405180830381600087803b158015612b3b57600080fd5b505af1925050508015612b6c57506040513d601f19601f82011682018060405250810190612b69919061526b565b60015b612c1257612b786152a5565b806308c379a01415612bd55750612b8d6152c7565b80612b985750612bd7565b806040517f08c379a0000000000000000000000000000000000000000000000000000000008152600401612bcc9190613686565b60405180910390fd5b505b6040517f08c379a0000000000000000000000000000000000000000000000000000000008152600401612c09906153cf565b60405180910390fd5b63bc197c8160e01b7bffffffffffffffffffffffffffffffffffffffffffffffffffffffff1916817bffffffffffffffffffffffffffffffffffffffffffffffffffffffff191614612c99576040517f08c379a0000000000000000000000000000000000000000000000000000000008152600401612c9090615461565b60405180910390fd5b505b505050505050565b60606000600167ffffffffffffffff811115612cc257612cc161345d565b5b604051908082528060200260200182016040528015612cf05781602001602082028036833780820191505090505b5090508281600081518110612d0857612d0761450a565b5b60200260200101818152505080915050919050565b612d3c8473ffffffffffffffffffffffffffffffffffffffff16613153565b15612efc578373ffffffffffffffffffffffffffffffffffffffff1663f23a6e6187878686866040518663ffffffff1660e01b8152600401612d82959493929190615481565b602060405180830381600087803b158015612d9c57600080fd5b505af1925050508015612dcd57506040513d601f19601f82011682018060405250810190612dca919061526b565b60015b612e7357612dd96152a5565b806308c379a01415612e365750612dee6152c7565b80612df95750612e38565b806040517f08c379a0000000000000000000000000000000000000000000000000000000008152600401612e2d9190613686565b60405180910390fd5b505b6040517f08c379a0000000000000000000000000000000000000000000000000000000008152600401612e6a906153cf565b60405180910390fd5b63f23a6e6160e01b7bffffffffffffffffffffffffffffffffffffffffffffffffffffffff1916817bffffffffffffffffffffffffffffffffffffffffffffffffffffffff191614612efa576040517f08c379a0000000000000000000000000000000000000000000000000000000008152600401612ef190615461565b60405180910390fd5b505b505050505050565b600080612f24612710612f1686613166565b6131bc90919063ffffffff16565b9050600060018451612f3691906154db565b90505b6000811115612f9e576000848281518110612f5757612f5661450a565b5b602002602001015190508061ffff168361ffff161015612f7c57819350505050612fa5565b8083612f88919061550f565b9250508080612f9690615103565b915050612f39565b5060009150505b92915050565b600085600101548510612ff3576040517f08c379a0000000000000000000000000000000000000000000000000000000008152600401612fea9061558f565b60405180910390fd5b600086600401600087815260200190815260200160002060009054906101000a900473ffffffffffffffffffffffffffffffffffffffff16905060008760030160008881526020019081526020016000206000815481106130575761305661450a565b5b906000526020600020015490508173ffffffffffffffffffffffffffffffffffffffff1663c77b66c28288886040518463ffffffff1660e01b81526004016130a1939291906155d5565b600060405180830381600087803b1580156130bb57600080fd5b505af11580156130cf573d6000803e3d6000fd5b50505050809250505095945050505050565b60007f01ffc9a7000000000000000000000000000000000000000000000000000000007bffffffffffffffffffffffffffffffffffffffffffffffffffffffff1916827bffffffffffffffffffffffffffffffffffffffffffffffffffffffff1916149050919050565b505050505050565b600080823b905060008111915050919050565b60008060014361317691906154db565b4033846005015460405160200161318f939291906156a9565b6040516020818303038152906040528051906020012060001c905080836005018190555080915050919050565b600081836131ca9190615715565b905092915050565b8280546131de906142c7565b90600052602060002090601f0160209004810192826132005760008555613247565b82601f1061321957805160ff1916838001178555613247565b82800160010185558215613247579182015b8281111561324657825182559160200191906001019061322b565b5b5090506132549190613258565b5090565b5b80821115613271576000816000905550600101613259565b5090565b6000604051905090565b600080fd5b600080fd5b600073ffffffffffffffffffffffffffffffffffffffff82169050919050565b60006132b482613289565b9050919050565b6132c4816132a9565b81146132cf57600080fd5b50565b6000813590506132e1816132bb565b92915050565b6000819050919050565b6132fa816132e7565b811461330557600080fd5b50565b600081359050613317816132f1565b92915050565b600080604083850312156133345761333361327f565b5b6000613342858286016132d2565b925050602061335385828601613308565b9150509250929050565b613366816132e7565b82525050565b6000602082019050613381600083018461335d565b92915050565b60007fffffffff0000000000000000000000000000000000000000000000000000000082169050919050565b6133bc81613387565b81146133c757600080fd5b50565b6000813590506133d9816133b3565b92915050565b6000602082840312156133f5576133f461327f565b5b6000613403848285016133ca565b91505092915050565b60008115159050919050565b6134218161340c565b82525050565b600060208201905061343c6000830184613418565b92915050565b600080fd5b600080fd5b6000601f19601f8301169050919050565b7f4e487b7100000000000000000000000000000000000000000000000000000000600052604160045260246000fd5b6134958261344c565b810181811067ffffffffffffffff821117156134b4576134b361345d565b5b80604052505050565b60006134c7613275565b90506134d3828261348c565b919050565b600067ffffffffffffffff8211156134f3576134f261345d565b5b6134fc8261344c565b9050602081019050919050565b82818337600083830152505050565b600061352b613526846134d8565b6134bd565b90508281526020810184848401111561354757613546613447565b5b613552848285613509565b509392505050565b600082601f83011261356f5761356e613442565b5b813561357f848260208601613518565b91505092915050565b60006020828403121561359e5761359d61327f565b5b600082013567ffffffffffffffff8111156135bc576135bb613284565b5b6135c88482850161355a565b91505092915050565b6000602082840312156135e7576135e661327f565b5b60006135f584828501613308565b91505092915050565b600081519050919050565b600082825260208201905092915050565b60005b8381101561363857808201518184015260208101905061361d565b83811115613647576000848401525b50505050565b6000613658826135fe565b6136628185613609565b935061367281856020860161361a565b61367b8161344c565b840191505092915050565b600060208201905081810360008301526136a0818461364d565b905092915050565b600067ffffffffffffffff8211156136c3576136c261345d565b5b602082029050602081019050919050565b600080fd5b60006136ec6136e7846136a8565b6134bd565b9050808382526020820190506020840283018581111561370f5761370e6136d4565b5b835b8181101561373857806137248882613308565b845260208401935050602081019050613711565b5050509392505050565b600082601f83011261375757613756613442565b5b81356137678482602086016136d9565b91505092915050565b600067ffffffffffffffff82111561378b5761378a61345d565b5b6137948261344c565b9050602081019050919050565b60006137b46137af84613770565b6134bd565b9050828152602081018484840111156137d0576137cf613447565b5b6137db848285613509565b509392505050565b600082601f8301126137f8576137f7613442565b5b81356138088482602086016137a1565b91505092915050565b6000806000806080858703121561382b5761382a61327f565b5b6000613839878288016132d2565b945050602085013567ffffffffffffffff81111561385a57613859613284565b5b61386687828801613742565b935050604085013567ffffffffffffffff81111561388757613886613284565b5b61389387828801613742565b925050606085013567ffffffffffffffff8111156138b4576138b3613284565b5b6138c0878288016137e3565b91505092959194509250565b6000819050919050565b6138df816138cc565b81146138ea57600080fd5b50565b6000813590506138fc816138d6565b92915050565b6000602082840312156139185761391761327f565b5b6000613926848285016138ed565b91505092915050565b613938816138cc565b82525050565b6000602082019050613953600083018461392f565b92915050565b600080600080600060a086880312156139755761397461327f565b5b6000613983888289016132d2565b9550506020613994888289016132d2565b945050604086013567ffffffffffffffff8111156139b5576139b4613284565b5b6139c188828901613742565b935050606086013567ffffffffffffffff8111156139e2576139e1613284565b5b6139ee88828901613742565b925050608086013567ffffffffffffffff811115613a0f57613a0e613284565b5b613a1b888289016137e3565b9150509295509295909350565b60008060408385031215613a3f57613a3e61327f565b5b6000613a4d858286016138ed565b9250506020613a5e858286016132d2565b9150509250929050565b600080600060608486031215613a8157613a8061327f565b5b6000613a8f86828701613308565b9350506020613aa086828701613308565b9250506040613ab186828701613308565b9150509250925092565b600067ffffffffffffffff821115613ad657613ad561345d565b5b602082029050602081019050919050565b6000613afa613af584613abb565b6134bd565b90508083825260208201905060208402830185811115613b1d57613b1c6136d4565b5b835b81811015613b465780613b3288826132d2565b845260208401935050602081019050613b1f565b5050509392505050565b600082601f830112613b6557613b64613442565b5b8135613b75848260208601613ae7565b91505092915050565b60008060408385031215613b9557613b9461327f565b5b600083013567ffffffffffffffff811115613bb357613bb2613284565b5b613bbf85828601613b50565b925050602083013567ffffffffffffffff811115613be057613bdf613284565b5b613bec85828601613742565b9150509250929050565b600081519050919050565b600082825260208201905092915050565b6000819050602082019050919050565b613c2b816132e7565b82525050565b6000613c3d8383613c22565b60208301905092915050565b6000602082019050919050565b6000613c6182613bf6565b613c6b8185613c01565b9350613c7683613c12565b8060005b83811015613ca7578151613c8e8882613c31565b9750613c9983613c49565b925050600181019050613c7a565b5085935050505092915050565b60006020820190508181036000830152613cce8184613c56565b905092915050565b600080600060608486031215613cef57613cee61327f565b5b6000613cfd868287016132d2565b935050602084013567ffffffffffffffff811115613d1e57613d1d613284565b5b613d2a86828701613742565b925050604084013567ffffffffffffffff811115613d4b57613d4a613284565b5b613d5786828701613742565b9150509250925092565b60008060008060808587031215613d7b57613d7a61327f565b5b6000613d89878288016132d2565b9450506020613d9a87828801613308565b9350506040613dab87828801613308565b925050606085013567ffffffffffffffff811115613dcc57613dcb613284565b5b613dd8878288016137e3565b91505092959194509250565b60008060408385031215613dfb57613dfa61327f565b5b6000613e0985828601613308565b9250506020613e1a858286016132d2565b9150509250929050565b613e2d8161340c565b8114613e3857600080fd5b50565b600081359050613e4a81613e24565b92915050565b60008060408385031215613e6757613e6661327f565b5b6000613e75858286016132d2565b9250506020613e8685828601613e3b565b9150509250929050565b60008060408385031215613ea757613ea661327f565b5b6000613eb585828601613308565b9250506020613ec685828601613308565b9150509250929050565b600067ffffffffffffffff821115613eeb57613eea61345d565b5b602082029050602081019050919050565b600061ffff82169050919050565b613f1381613efc565b8114613f1e57600080fd5b50565b600081359050613f3081613f0a565b92915050565b6000613f49613f4484613ed0565b6134bd565b90508083825260208201905060208402830185811115613f6c57613f6b6136d4565b5b835b81811015613f955780613f818882613f21565b845260208401935050602081019050613f6e565b5050509392505050565b600082601f830112613fb457613fb3613442565b5b8135613fc4848260208601613f36565b91505092915050565b60008060408385031215613fe457613fe361327f565b5b6000613ff285828601613308565b925050602083013567ffffffffffffffff81111561401357614012613284565b5b61401f85828601613f9f565b9150509250929050565b614032816132a9565b82525050565b600060208201905061404d6000830184614029565b92915050565b6000806040838503121561406a5761406961327f565b5b6000614078858286016132d2565b9250506020614089858286016132d2565b9150509250929050565b6000602082840312156140a9576140a861327f565b5b60006140b7848285016132d2565b91505092915050565b600080600080600060a086880312156140dc576140db61327f565b5b60006140ea888289016132d2565b95505060206140fb888289016132d2565b945050604061410c88828901613308565b935050606061411d88828901613308565b925050608086013567ffffffffffffffff81111561413e5761413d613284565b5b61414a888289016137e3565b9150509295509295909350565b6000806000606084860312156141705761416f61327f565b5b600061417e868287016132d2565b935050602061418f86828701613308565b92505060406141a086828701613308565b9150509250925092565b600080604083850312156141c1576141c061327f565b5b60006141cf85828601613308565b925050602083013567ffffffffffffffff8111156141f0576141ef613284565b5b6141fc85828601613742565b9150509250929050565b7f455243313135353a2062616c616e636520717565727920666f7220746865207a60008201527f65726f2061646472657373000000000000000000000000000000000000000000602082015250565b6000614262602b83613609565b915061426d82614206565b604082019050919050565b6000602082019050818103600083015261429181614255565b9050919050565b7f4e487b7100000000000000000000000000000000000000000000000000000000600052602260045260246000fd5b600060028204905060018216806142df57607f821691505b602082108114156142f3576142f2614298565b5b50919050565b7f455243313135353a207472616e736665722063616c6c6572206973206e6f742060008201527f6f776e6572206e6f7220617070726f7665640000000000000000000000000000602082015250565b6000614355603283613609565b9150614360826142f9565b604082019050919050565b6000602082019050818103600083015261438481614348565b9050919050565b7f416363657373436f6e74726f6c3a2063616e206f6e6c792072656e6f756e636560008201527f20726f6c657320666f722073656c660000000000000000000000000000000000602082015250565b60006143e7602f83613609565b91506143f28261438b565b604082019050919050565b60006020820190508181036000830152614416816143da565b9050919050565b8082525050565b61442d816132e7565b82525050565b6000608082019050614448600083018761441d565b6144556020830186614424565b6144626040830185614424565b61446f6060830184614424565b95945050505050565b7f455243313135353a206163636f756e747320616e6420696473206c656e67746860008201527f206d69736d617463680000000000000000000000000000000000000000000000602082015250565b60006144d4602983613609565b91506144df82614478565b604082019050919050565b60006020820190508181036000830152614503816144c7565b9050919050565b7f4e487b7100000000000000000000000000000000000000000000000000000000600052603260045260246000fd5b7f4e487b7100000000000000000000000000000000000000000000000000000000600052601160045260246000fd5b6000614573826132e7565b91507fffffffffffffffffffffffffffffffffffffffffffffffffffffffffffffffff8214156145a6576145a5614539565b5b600182019050919050565b7f455243313135353a2063616c6c6572206973206e6f74206f776e6572206e6f7260008201527f20617070726f7665640000000000000000000000000000000000000000000000602082015250565b600061460d602983613609565b9150614618826145b1565b604082019050919050565b6000602082019050818103600083015261463c81614600565b9050919050565b61464c816132a9565b82525050565b6000606082019050614667600083018661441d565b6146746020830185614424565b6146816040830184614643565b949350505050565b600060408201905061469e6000830185614029565b6146ab6020830184614029565b9392505050565b6000815190506146c1816132f1565b92915050565b6000602082840312156146dd576146dc61327f565b5b60006146eb848285016146b2565b91505092915050565b7f416c6c6f77206d6f7265204c4f42000000000000000000000000000000000000600082015250565b600061472a600e83613609565b9150614735826146f4565b602082019050919050565b600060208201905081810360008301526147598161471d565b9050919050565b6000819050919050565b6000819050919050565b600061478f61478a61478584614760565b61476a565b6132e7565b9050919050565b61479f81614774565b82525050565b60006060820190506147ba6000830186614029565b6147c76020830185614029565b6147d46040830184614796565b949350505050565b6000815190506147eb81613e24565b92915050565b6000602082840312156148075761480661327f565b5b6000614815848285016147dc565b91505092915050565b6000604082019050614833600083018561441d565b6148406020830184614424565b9392505050565b600081519050919050565b600082825260208201905092915050565b6000819050602082019050919050565b61487c81613efc565b82525050565b600061488e8383614873565b60208301905092915050565b6000602082019050919050565b60006148b282614847565b6148bc8185614852565b93506148c783614863565b8060005b838110156148f85781516148df8882614882565b97506148ea8361489a565b9250506001810190506148cb565b5085935050505092915050565b600060608201905061491a600083018661441d565b6149276020830185614424565b818103604083015261493981846148a7565b9050949350505050565b600082825260208201905092915050565b61495d816132e7565b82525050565b600061496f8383614954565b60208301905092915050565b600061498682613bf6565b6149908185614943565b935061499b83613c12565b8060005b838110156149cc5781516149b38882614963565b97506149be83613c49565b92505060018101905061499f565b5085935050505092915050565b60006060820190506149ee600083018661441d565b6149fb6020830185614424565b8181036040830152614a0d818461497b565b9050949350505050565b600081905092915050565b7f416363657373436f6e74726f6c3a206163636f756e7420000000000000000000600082015250565b6000614a58601783614a17565b9150614a6382614a22565b601782019050919050565b6000614a79826135fe565b614a838185614a17565b9350614a9381856020860161361a565b80840191505092915050565b7f206973206d697373696e6720726f6c6520000000000000000000000000000000600082015250565b6000614ad5601183614a17565b9150614ae082614a9f565b601182019050919050565b6000614af682614a4b565b9150614b028285614a6e565b9150614b0d82614ac8565b9150614b198284614a6e565b91508190509392505050565b7f455243313135353a206d696e7420746f20746865207a65726f2061646472657360008201527f7300000000000000000000000000000000000000000000000000000000000000602082015250565b6000614b81602183613609565b9150614b8c82614b25565b604082019050919050565b60006020820190508181036000830152614bb081614b74565b9050919050565b7f455243313135353a2069647320616e6420616d6f756e7473206c656e6774682060008201527f6d69736d61746368000000000000000000000000000000000000000000000000602082015250565b6000614c13602883613609565b9150614c1e82614bb7565b604082019050919050565b60006020820190508181036000830152614c4281614c06565b9050919050565b6000614c54826132e7565b9150614c5f836132e7565b9250827fffffffffffffffffffffffffffffffffffffffffffffffffffffffffffffffff03821115614c9457614c93614539565b5b828201905092915050565b60006040820190508181036000830152614cb98185613c56565b90508181036020830152614ccd8184613c56565b90509392505050565b7f455243313135353a207472616e7366657220746f20746865207a65726f20616460008201527f6472657373000000000000000000000000000000000000000000000000000000602082015250565b6000614d32602583613609565b9150614d3d82614cd6565b604082019050919050565b60006020820190508181036000830152614d6181614d25565b9050919050565b7f455243313135353a20696e73756666696369656e742062616c616e636520666f60008201527f72207472616e7366657200000000000000000000000000000000000000000000602082015250565b6000614dc4602a83613609565b9150614dcf82614d68565b604082019050919050565b60006020820190508181036000830152614df381614db7565b9050919050565b7f455243313135353a206275726e2066726f6d20746865207a65726f206164647260008201527f6573730000000000000000000000000000000000000000000000000000000000602082015250565b6000614e56602383613609565b9150614e6182614dfa565b604082019050919050565b60006020820190508181036000830152614e8581614e49565b9050919050565b7f455243313135353a206275726e20616d6f756e7420657863656564732062616c60008201527f616e636500000000000000000000000000000000000000000000000000000000602082015250565b6000614ee8602483613609565b9150614ef382614e8c565b604082019050919050565b60006020820190508181036000830152614f1781614edb565b9050919050565b6000604082019050614f33600083018561335d565b614f40602083018461335d565b9392505050565b7f455243313135353a2073657474696e6720617070726f76616c2073746174757360008201527f20666f722073656c660000000000000000000000000000000000000000000000602082015250565b6000614fa3602983613609565b9150614fae82614f47565b604082019050919050565b60006020820190508181036000830152614fd281614f96565b9050919050565b7f5f6f7074696f6e206f7574206f662072616e6765000000000000000000000000600082015250565b600061500f601483613609565b915061501a82614fd9565b602082019050919050565b6000602082019050818103600083015261503e81615002565b9050919050565b6000819050919050565b600061506a61506561506084615045565b61476a565b6132e7565b9050919050565b61507a8161504f565b82525050565b6000604082019050615095600083018561335d565b6150a26020830184615071565b9392505050565b60006150b4826132e7565b91506150bf836132e7565b9250817fffffffffffffffffffffffffffffffffffffffffffffffffffffffffffffffff04831182151516156150f8576150f7614539565b5b828202905092915050565b600061510e826132e7565b9150600082141561512257615121614539565b5b600182039050919050565b7f537472696e67733a20686578206c656e67746820696e73756666696369656e74600082015250565b6000615163602083613609565b915061516e8261512d565b602082019050919050565b6000602082019050818103600083015261519281615156565b9050919050565b600081519050919050565b600082825260208201905092915050565b60006151c082615199565b6151ca81856151a4565b93506151da81856020860161361a565b6151e38161344c565b840191505092915050565b600060a0820190506152036000830188614029565b6152106020830187614029565b81810360408301526152228186613c56565b905081810360608301526152368185613c56565b9050818103608083015261524a81846151b5565b90509695505050505050565b600081519050615265816133b3565b92915050565b6000602082840312156152815761528061327f565b5b600061528f84828501615256565b91505092915050565b60008160e01c9050919050565b600060033d11156152c45760046000803e6152c1600051615298565b90505b90565b600060443d10156152d75761535a565b6152df613275565b60043d036004823e80513d602482011167ffffffffffffffff8211171561530757505061535a565b808201805167ffffffffffffffff811115615325575050505061535a565b80602083010160043d03850181111561534257505050505061535a565b6153518260200185018661348c565b82955050505050505b90565b7f455243313135353a207472616e7366657220746f206e6f6e204552433131353560008201527f526563656976657220696d706c656d656e746572000000000000000000000000602082015250565b60006153b9603483613609565b91506153c48261535d565b604082019050919050565b600060208201905081810360008301526153e8816153ac565b9050919050565b7f455243313135353a204552433131353552656365697665722072656a6563746560008201527f6420746f6b656e73000000000000000000000000000000000000000000000000602082015250565b600061544b602883613609565b9150615456826153ef565b604082019050919050565b6000602082019050818103600083015261547a8161543e565b9050919050565b600060a0820190506154966000830188614029565b6154a36020830187614029565b6154b0604083018661335d565b6154bd606083018561335d565b81810360808301526154cf81846151b5565b90509695505050505050565b60006154e6826132e7565b91506154f1836132e7565b92508282101561550457615503614539565b5b828203905092915050565b600061551a82613efc565b915061552583613efc565b92508282101561553857615537614539565b5b828203905092915050565b7f5f636c617373206f7574206f662072616e676500000000000000000000000000600082015250565b6000615579601383613609565b915061558482615543565b602082019050919050565b600060208201905081810360008301526155a88161556c565b9050919050565b50565b60006155bf6000836151a4565b91506155ca826155af565b600082019050919050565b60006080820190506155ea600083018661335d565b6155f76020830185614029565b615604604083018461335d565b8181036060830152615615816155b2565b9050949350505050565b6000819050919050565b61563a615635826138cc565b61561f565b82525050565b60008160601b9050919050565b600061565882615640565b9050919050565b600061566a8261564d565b9050919050565b61568261567d826132a9565b61565f565b82525050565b6000819050919050565b6156a361569e826132e7565b615688565b82525050565b60006156b58286615629565b6020820191506156c58285615671565b6014820191506156d58284615692565b602082019150819050949350505050565b7f4e487b7100000000000000000000000000000000000000000000000000000000600052601260045260246000fd5b6000615720826132e7565b915061572b836132e7565b92508261573b5761573a6156e6565b5b82820690509291505056fea2646970667358221220d93d771c4342e618b082ba1c860d1b1ff1e4b0a08e87b4cc9788b028ca7fa34c64736f6c6343000809003368747470733a2f2f6170692e686265617374732e636f6d2f6173736574732f6c6f6f74626f782f7b69647d2e6a736f6e",
  "immutableReferences": {},
  "source": "// SPDX-License-Identifier: MIT\npragma solidity ^0.8.2;\n\nimport \"./utils/LootBoxRandomness.sol\";\n\nimport \"@openzeppelin/contracts/token/ERC20/IERC20.sol\";\nimport \"@openzeppelin/contracts/token/ERC1155/ERC1155.sol\";\nimport \"@openzeppelin/contracts/access/AccessControl.sol\";\nimport \"@openzeppelin/contracts/token/ERC1155/extensions/ERC1155Burnable.sol\";\n\ncontract LootBox is ERC1155, ERC1155Burnable, AccessControl {\n    using LootBoxRandomness for LootBoxRandomness.LootBoxRandomnessState;\n    LootBoxRandomness.LootBoxRandomnessState private state;\n    IERC20 private lob;\n    address private feeReceiver;\n    bytes32 public constant MINTER_ROLE = keccak256(\"MINTER_ROLE\");\n    bytes32 public constant ADMIN_ROLE = keccak256(\"ADMIN_ROLE\");\n\n    constructor(address _token)\n        ERC1155(\"https://api.hbeasts.com/assets/lootbox/{id}.json\")\n    {\n        lob = IERC20(_token);\n        _setupRole(ADMIN_ROLE, msg.sender);\n        _setRoleAdmin(MINTER_ROLE, ADMIN_ROLE);\n        _setRoleAdmin(ADMIN_ROLE, ADMIN_ROLE);\n    }\n\n    function setURI(string memory newuri) public onlyRole(ADMIN_ROLE) {\n        _setURI(newuri);\n    }\n\n    function setFeeReceiver(address _feeReceiver) public onlyRole(ADMIN_ROLE) {\n        feeReceiver = _feeReceiver;\n    }\n\n    function getFeeReceiver() public view returns (address) {\n        return feeReceiver;\n    }\n\n    ///////\n    // MAIN FUNCTIONS\n    //////\n\n    /**\n     * @dev User facing interface, use this function to get a random reward from the loot box\n     *      1 LOB is taken to unpack\n     */\n    function unpack(uint256 _optionId, uint256 _amount) external {\n        require(\n            lob.allowance(_msgSender(), address(this)) >= 1,\n            \"Allow more LOB\"\n        );\n        // 1 LOB to open the box\n        lob.transferFrom(_msgSender(), feeReceiver, 1000000); // 6 decimals\n        // This will underflow if _msgSender() does not own enough tokens.\n        _burn(_msgSender(), _optionId, _amount);\n        // Mint nfts contained by LootBox\n        LootBoxRandomness._mint(\n            state,\n            _optionId,\n            _msgSender(),\n            _amount,\n            \"\",\n            address(this)\n        );\n    }\n\n    function mint(\n        address account,\n        uint256 id,\n        uint256 amount,\n        bytes memory data\n    ) public onlyRole(MINTER_ROLE) {\n        _mint(account, id, amount, data);\n    }\n\n    function mintBatch(\n        address to,\n        uint256[] memory ids,\n        uint256[] memory amounts,\n        bytes memory data\n    ) public onlyRole(MINTER_ROLE) {\n        _mintBatch(to, ids, amounts, data);\n    }\n\n    function _beforeTokenTransfer(\n        address operator,\n        address from,\n        address to,\n        uint256[] memory ids,\n        uint256[] memory amounts,\n        bytes memory data\n    ) internal override {\n        super._beforeTokenTransfer(operator, from, to, ids, amounts, data);\n    }\n\n    function setState(\n        uint256 _numOptions,\n        uint256 _numClasses,\n        uint256 _seed\n    ) public onlyRole(ADMIN_ROLE) {\n        LootBoxRandomness.initState(state, _numOptions, _numClasses, _seed);\n    }\n\n    function setTokenIdsForClass(uint256 _classId, uint256[] memory _tokenIds)\n        public\n        onlyRole(ADMIN_ROLE)\n    {\n        LootBoxRandomness.setTokenIdsForClass(state, _classId, _tokenIds);\n    }\n\n    function setFactoryForClass(uint256 _classId, address _factoryAddress)\n        public\n        onlyRole(ADMIN_ROLE)\n    {\n        LootBoxRandomness.setFactoryForClass(state, _classId, _factoryAddress);\n    }\n\n    function setSeed(uint256 _seed) public onlyRole(ADMIN_ROLE) {\n        LootBoxRandomness.setSeed(state, _seed);\n    }\n\n    function setProbabilitiesForOption(\n        uint256 _optionId,\n        uint16[] memory _probabilities\n    ) public onlyRole(ADMIN_ROLE) {\n        LootBoxRandomness.setProbabilitiesForOption(\n            state,\n            _optionId,\n            _probabilities\n        );\n    }\n\n    function supportsInterface(bytes4 interfaceId)\n        public\n        view\n        virtual\n        override(AccessControl, ERC1155)\n        returns (bool)\n    {\n        return super.supportsInterface(interfaceId);\n    }\n}\n",
  "sourcePath": "/home/ec2-user/contract-main/legendofbeasts/contracts/LootBox.sol",
  "compiler": {
    "name": "solc",
    "version": "0.8.9+commit.e5eed63a.Emscripten.clang"
  },
  "schemaVersion": "3.4.4",
  "updatedAt": "2022-01-25T03:34:29.455Z",
  "networkType": "ethereum",
  "devdoc": {
    "kind": "dev",
    "methods": {
      "balanceOf(address,uint256)": {
        "details": "See {IERC1155-balanceOf}. Requirements: - `account` cannot be the zero address."
      },
      "balanceOfBatch(address[],uint256[])": {
        "details": "See {IERC1155-balanceOfBatch}. Requirements: - `accounts` and `ids` must have the same length."
      },
      "getRoleAdmin(bytes32)": {
        "details": "Returns the admin role that controls `role`. See {grantRole} and {revokeRole}. To change a role's admin, use {_setRoleAdmin}."
      },
      "grantRole(bytes32,address)": {
        "details": "Grants `role` to `account`. If `account` had not been already granted `role`, emits a {RoleGranted} event. Requirements: - the caller must have ``role``'s admin role."
      },
      "hasRole(bytes32,address)": {
        "details": "Returns `true` if `account` has been granted `role`."
      },
      "isApprovedForAll(address,address)": {
        "details": "See {IERC1155-isApprovedForAll}."
      },
      "renounceRole(bytes32,address)": {
        "details": "Revokes `role` from the calling account. Roles are often managed via {grantRole} and {revokeRole}: this function's purpose is to provide a mechanism for accounts to lose their privileges if they are compromised (such as when a trusted device is misplaced). If the calling account had been revoked `role`, emits a {RoleRevoked} event. Requirements: - the caller must be `account`."
      },
      "revokeRole(bytes32,address)": {
        "details": "Revokes `role` from `account`. If `account` had been granted `role`, emits a {RoleRevoked} event. Requirements: - the caller must have ``role``'s admin role."
      },
      "safeBatchTransferFrom(address,address,uint256[],uint256[],bytes)": {
        "details": "See {IERC1155-safeBatchTransferFrom}."
      },
      "safeTransferFrom(address,address,uint256,uint256,bytes)": {
        "details": "See {IERC1155-safeTransferFrom}."
      },
      "setApprovalForAll(address,bool)": {
        "details": "See {IERC1155-setApprovalForAll}."
      },
      "unpack(uint256,uint256)": {
        "details": "User facing interface, use this function to get a random reward from the loot box      1 LOB is taken to unpack"
      },
      "uri(uint256)": {
        "details": "See {IERC1155MetadataURI-uri}. This implementation returns the same URI for *all* token types. It relies on the token type ID substitution mechanism https://eips.ethereum.org/EIPS/eip-1155#metadata[defined in the EIP]. Clients calling this function must replace the `\\{id\\}` substring with the actual token type ID."
      }
    },
    "version": 1
  },
  "userdoc": {
    "kind": "user",
    "methods": {},
    "version": 1
  }
}