{
  "contractName": "LootBoxVendor",
  "abi": [
    {
      "inputs": [
        {
          "internalType": "address",
          "name": "_token",
          "type": "address"
        },
        {
          "internalType": "address",
          "name": "_lootbox",
          "type": "address"
        },
        {
          "internalType": "uint256",
          "name": "_numOptions",
          "type": "uint256"
        }
      ],
      "stateMutability": "nonpayable",
      "type": "constructor"
    },
    {
      "anonymous": false,
      "inputs": [
        {
          "indexed": true,
          "internalType": "address",
          "name": "previousOwner",
          "type": "address"
        },
        {
          "indexed": true,
          "internalType": "address",
          "name": "newOwner",
          "type": "address"
        }
      ],
      "name": "OwnershipTransferred",
      "type": "event"
    },
    {
      "inputs": [],
      "name": "lootbox",
      "outputs": [
        {
          "internalType": "contract LootBox",
          "name": "",
          "type": "address"
        }
      ],
      "stateMutability": "view",
      "type": "function",
      "constant": true
    },
    {
      "inputs": [],
      "name": "owner",
      "outputs": [
        {
          "internalType": "address",
          "name": "",
          "type": "address"
        }
      ],
      "stateMutability": "view",
      "type": "function",
      "constant": true
    },
    {
      "inputs": [],
      "name": "renounceOwnership",
      "outputs": [],
      "stateMutability": "nonpayable",
      "type": "function"
    },
    {
      "inputs": [],
      "name": "token",
      "outputs": [
        {
          "internalType": "contract IERC20",
          "name": "",
          "type": "address"
        }
      ],
      "stateMutability": "view",
      "type": "function",
      "constant": true
    },
    {
      "inputs": [
        {
          "internalType": "address",
          "name": "newOwner",
          "type": "address"
        }
      ],
      "name": "transferOwnership",
      "outputs": [],
      "stateMutability": "nonpayable",
      "type": "function"
    },
    {
      "inputs": [],
      "name": "usdt",
      "outputs": [
        {
          "internalType": "contract IERC20",
          "name": "",
          "type": "address"
        }
      ],
      "stateMutability": "view",
      "type": "function",
      "constant": true
    },
    {
      "inputs": [
        {
          "internalType": "uint256",
          "name": "_optionId",
          "type": "uint256"
        },
        {
          "internalType": "uint256",
          "name": "_fee",
          "type": "uint256"
        }
      ],
      "name": "setFeeEther",
      "outputs": [],
      "stateMutability": "nonpayable",
      "type": "function"
    },
    {
      "inputs": [
        {
          "internalType": "uint256",
          "name": "_optionId",
          "type": "uint256"
        }
      ],
      "name": "getFeeEther",
      "outputs": [
        {
          "internalType": "uint256",
          "name": "",
          "type": "uint256"
        }
      ],
      "stateMutability": "view",
      "type": "function",
      "constant": true
    },
    {
      "inputs": [
        {
          "internalType": "uint256",
          "name": "_optionId",
          "type": "uint256"
        },
        {
          "internalType": "uint256",
          "name": "_fee",
          "type": "uint256"
        }
      ],
      "name": "setFeeUSDT",
      "outputs": [],
      "stateMutability": "nonpayable",
      "type": "function"
    },
    {
      "inputs": [
        {
          "internalType": "uint256",
          "name": "_optionId",
          "type": "uint256"
        }
      ],
      "name": "getFeeUSDT",
      "outputs": [
        {
          "internalType": "uint256",
          "name": "",
          "type": "uint256"
        }
      ],
      "stateMutability": "view",
      "type": "function",
      "constant": true
    },
    {
      "inputs": [
        {
          "internalType": "uint256",
          "name": "_optionId",
          "type": "uint256"
        },
        {
          "internalType": "uint256",
          "name": "_fee",
          "type": "uint256"
        }
      ],
      "name": "setFeeToken",
      "outputs": [],
      "stateMutability": "nonpayable",
      "type": "function"
    },
    {
      "inputs": [
        {
          "internalType": "uint256",
          "name": "_optionId",
          "type": "uint256"
        }
      ],
      "name": "getFeeToken",
      "outputs": [
        {
          "internalType": "uint256",
          "name": "",
          "type": "uint256"
        }
      ],
      "stateMutability": "view",
      "type": "function",
      "constant": true
    },
    {
      "inputs": [
        {
          "internalType": "address payable",
          "name": "_receiver",
          "type": "address"
        }
      ],
      "name": "setFeeReceiver",
      "outputs": [],
      "stateMutability": "nonpayable",
      "type": "function"
    },
    {
      "inputs": [
        {
          "internalType": "address",
          "name": "_usdt",
          "type": "address"
        }
      ],
      "name": "setUSDT",
      "outputs": [],
      "stateMutability": "nonpayable",
      "type": "function"
    },
    {
      "inputs": [],
      "name": "withdraw",
      "outputs": [],
      "stateMutability": "nonpayable",
      "type": "function"
    },
    {
      "inputs": [
        {
          "internalType": "uint256",
          "name": "_optionId",
          "type": "uint256"
        },
        {
          "internalType": "uint256",
          "name": "_amount",
          "type": "uint256"
        }
      ],
      "name": "buy",
      "outputs": [],
      "stateMutability": "payable",
      "type": "function",
      "payable": true
    },
    {
      "inputs": [
        {
          "internalType": "uint256",
          "name": "_optionId",
          "type": "uint256"
        },
        {
          "internalType": "uint256",
          "name": "_amount",
          "type": "uint256"
        }
      ],
      "name": "buyWithUSDT",
      "outputs": [],
      "stateMutability": "nonpayable",
      "type": "function"
    },
    {
      "inputs": [
        {
          "internalType": "uint256",
          "name": "_optionId",
          "type": "uint256"
        },
        {
          "internalType": "uint256",
          "name": "_amount",
          "type": "uint256"
        }
      ],
      "name": "buyWithToken",
      "outputs": [],
      "stateMutability": "nonpayable",
      "type": "function"
    }
  ],
  "bytecode": "0x60806040523480156200001157600080fd5b5060405162001bbe38038062001bbe83398181016040528101906200003791906200025a565b620000576200004b620000e960201b60201c565b620000f160201b60201c565b82600260006101000a81548173ffffffffffffffffffffffffffffffffffffffff021916908373ffffffffffffffffffffffffffffffffffffffff16021790555081600360006101000a81548173ffffffffffffffffffffffffffffffffffffffff021916908373ffffffffffffffffffffffffffffffffffffffff16021790555080600881905550505050620002b6565b600033905090565b60008060009054906101000a900473ffffffffffffffffffffffffffffffffffffffff169050816000806101000a81548173ffffffffffffffffffffffffffffffffffffffff021916908373ffffffffffffffffffffffffffffffffffffffff1602179055508173ffffffffffffffffffffffffffffffffffffffff168173ffffffffffffffffffffffffffffffffffffffff167f8be0079c531659141344cd1fd0a4f28419497f9722a3daafe3b4186f6b6457e060405160405180910390a35050565b600080fd5b600073ffffffffffffffffffffffffffffffffffffffff82169050919050565b6000620001e782620001ba565b9050919050565b620001f981620001da565b81146200020557600080fd5b50565b6000815190506200021981620001ee565b92915050565b6000819050919050565b62000234816200021f565b81146200024057600080fd5b50565b600081519050620002548162000229565b92915050565b600080600060608486031215620002765762000275620001b5565b5b6000620002868682870162000208565b9350506020620002998682870162000208565b9250506040620002ac8682870162000243565b9150509250925092565b6118f880620002c66000396000f3fe6080604052600436106101095760003560e01c80638da5cb5b11610095578063d88cf1ef11610064578063d88cf1ef14610320578063e65137251461035d578063efdcd97414610386578063f2fde38b146103af578063fc0c546a146103d857610109565b80638da5cb5b1461027357806398f1608a1461029e5780639dc7fb92146102c7578063d6febde81461030457610109565b806350c1b923116100dc57806350c1b923146101a257806355c59940146101cb57806364fde57c14610208578063715018a614610233578063898c84311461024a57610109565b80631efc29f01461010e5780632f48ab7d146101375780633089448a146101625780633ccfd60b1461018b575b600080fd5b34801561011a57600080fd5b506101356004803603810190610130919061113d565b610403565b005b34801561014357600080fd5b5061014c6104df565b60405161015991906111fc565b60405180910390f35b34801561016e57600080fd5b506101896004803603810190610184919061113d565b610505565b005b34801561019757600080fd5b506101a06105e8565b005b3480156101ae57600080fd5b506101c960048036038101906101c49190611255565b6106cf565b005b3480156101d757600080fd5b506101f260048036038101906101ed9190611282565b61078f565b6040516101ff91906112be565b60405180910390f35b34801561021457600080fd5b5061021d6107ac565b60405161022a91906112fa565b60405180910390f35b34801561023f57600080fd5b506102486107d2565b005b34801561025657600080fd5b50610271600480360381019061026c919061113d565b61085a565b005b34801561027f57600080fd5b50610288610936565b6040516102959190611324565b60405180910390f35b3480156102aa57600080fd5b506102c560048036038101906102c0919061113d565b61095f565b005b3480156102d357600080fd5b506102ee60048036038101906102e99190611282565b610a3b565b6040516102fb91906112be565b60405180910390f35b61031e6004803603810190610319919061113d565b610a58565b005b34801561032c57600080fd5b5061034760048036038101906103429190611282565b610c01565b60405161035491906112be565b60405180910390f35b34801561036957600080fd5b50610384600480360381019061037f919061113d565b610c1e565b005b34801561039257600080fd5b506103ad60048036038101906103a8919061137d565b610d01565b005b3480156103bb57600080fd5b506103d660048036038101906103d19190611255565b610dc1565b005b3480156103e457600080fd5b506103ed610eb9565b6040516103fa91906111fc565b60405180910390f35b61040b610edf565b73ffffffffffffffffffffffffffffffffffffffff16610429610936565b73ffffffffffffffffffffffffffffffffffffffff161461047f576040517f08c379a000000000000000000000000000000000000000000000000000000000815260040161047690611407565b60405180910390fd5b60085482106104c3576040517f08c379a00000000000000000000000000000000000000000000000000000000081526004016104ba90611473565b60405180910390fd5b8060056000848152602001908152602001600020819055505050565b600160009054906101000a900473ffffffffffffffffffffffffffffffffffffffff1681565b6008548210610549576040517f08c379a000000000000000000000000000000000000000000000000000000000815260040161054090611473565b60405180910390fd5b600060076000848152602001908152602001600020549050600081116105a4576040517f08c379a000000000000000000000000000000000000000000000000000000000815260040161059b906114df565b60405180910390fd5b600082826105b2919061152e565b90506105e2600260009054906101000a900473ffffffffffffffffffffffffffffffffffffffff16828686610ee7565b50505050565b6105f0610edf565b73ffffffffffffffffffffffffffffffffffffffff1661060e610936565b73ffffffffffffffffffffffffffffffffffffffff1614610664576040517f08c379a000000000000000000000000000000000000000000000000000000000815260040161065b90611407565b60405180910390fd5b600460009054906101000a900473ffffffffffffffffffffffffffffffffffffffff1673ffffffffffffffffffffffffffffffffffffffff166108fc479081150290604051600060405180830381858888f193505050501580156106cc573d6000803e3d6000fd5b50565b6106d7610edf565b73ffffffffffffffffffffffffffffffffffffffff166106f5610936565b73ffffffffffffffffffffffffffffffffffffffff161461074b576040517f08c379a000000000000000000000000000000000000000000000000000000000815260040161074290611407565b60405180910390fd5b80600160006101000a81548173ffffffffffffffffffffffffffffffffffffffff021916908373ffffffffffffffffffffffffffffffffffffffff16021790555050565b600060066000838152602001908152602001600020549050919050565b600360009054906101000a900473ffffffffffffffffffffffffffffffffffffffff1681565b6107da610edf565b73ffffffffffffffffffffffffffffffffffffffff166107f8610936565b73ffffffffffffffffffffffffffffffffffffffff161461084e576040517f08c379a000000000000000000000000000000000000000000000000000000000815260040161084590611407565b60405180910390fd5b610858600061103e565b565b610862610edf565b73ffffffffffffffffffffffffffffffffffffffff16610880610936565b73ffffffffffffffffffffffffffffffffffffffff16146108d6576040517f08c379a00000000000000000000000000000000000000000000000000000000081526004016108cd90611407565b60405180910390fd5b600854821061091a576040517f08c379a000000000000000000000000000000000000000000000000000000000815260040161091190611473565b60405180910390fd5b8060076000848152602001908152602001600020819055505050565b60008060009054906101000a900473ffffffffffffffffffffffffffffffffffffffff16905090565b610967610edf565b73ffffffffffffffffffffffffffffffffffffffff16610985610936565b73ffffffffffffffffffffffffffffffffffffffff16146109db576040517f08c379a00000000000000000000000000000000000000000000000000000000081526004016109d290611407565b60405180910390fd5b6008548210610a1f576040517f08c379a0000000000000000000000000000000000000000000000000000000008152600401610a1690611473565b60405180910390fd5b8060066000848152602001908152602001600020819055505050565b600060076000838152602001908152602001600020549050919050565b6008548210610a9c576040517f08c379a0000000000000000000000000000000000000000000000000000000008152600401610a9390611473565b60405180910390fd5b60006007600084815260200190815260200160002054905060008111610af7576040517f08c379a0000000000000000000000000000000000000000000000000000000008152600401610aee906115d4565b60405180910390fd5b60003490506000836005600087815260200190815260200160002054610b1d919061152e565b905080821015610b62576040517f08c379a0000000000000000000000000000000000000000000000000000000008152600401610b5990611640565b60405180910390fd5b600360009054906101000a900473ffffffffffffffffffffffffffffffffffffffff1673ffffffffffffffffffffffffffffffffffffffff1663731133e9610ba8610edf565b87876040518463ffffffff1660e01b8152600401610bc8939291906116bd565b600060405180830381600087803b158015610be257600080fd5b505af1158015610bf6573d6000803e3d6000fd5b505050505050505050565b600060056000838152602001908152602001600020549050919050565b6008548210610c62576040517f08c379a0000000000000000000000000000000000000000000000000000000008152600401610c5990611473565b60405180910390fd5b60006006600084815260200190815260200160002054905060008111610cbd576040517f08c379a0000000000000000000000000000000000000000000000000000000008152600401610cb490611753565b60405180910390fd5b60008282610ccb919061152e565b9050610cfb600160009054906101000a900473ffffffffffffffffffffffffffffffffffffffff16828686610ee7565b50505050565b610d09610edf565b73ffffffffffffffffffffffffffffffffffffffff16610d27610936565b73ffffffffffffffffffffffffffffffffffffffff1614610d7d576040517f08c379a0000000000000000000000000000000000000000000000000000000008152600401610d7490611407565b60405180910390fd5b80600460006101000a81548173ffffffffffffffffffffffffffffffffffffffff021916908373ffffffffffffffffffffffffffffffffffffffff16021790555050565b610dc9610edf565b73ffffffffffffffffffffffffffffffffffffffff16610de7610936565b73ffffffffffffffffffffffffffffffffffffffff1614610e3d576040517f08c379a0000000000000000000000000000000000000000000000000000000008152600401610e3490611407565b60405180910390fd5b600073ffffffffffffffffffffffffffffffffffffffff168173ffffffffffffffffffffffffffffffffffffffff161415610ead576040517f08c379a0000000000000000000000000000000000000000000000000000000008152600401610ea4906117e5565b60405180910390fd5b610eb68161103e565b50565b600260009054906101000a900473ffffffffffffffffffffffffffffffffffffffff1681565b600033905090565b8373ffffffffffffffffffffffffffffffffffffffff166323b872dd610f0b610edf565b600460009054906101000a900473ffffffffffffffffffffffffffffffffffffffff16866040518463ffffffff1660e01b8152600401610f4d93929190611826565b602060405180830381600087803b158015610f6757600080fd5b505af1158015610f7b573d6000803e3d6000fd5b505050506040513d601f19601f82011682018060405250810190610f9f9190611895565b50600360009054906101000a900473ffffffffffffffffffffffffffffffffffffffff1673ffffffffffffffffffffffffffffffffffffffff1663731133e9610fe6610edf565b84846040518463ffffffff1660e01b8152600401611006939291906116bd565b600060405180830381600087803b15801561102057600080fd5b505af1158015611034573d6000803e3d6000fd5b5050505050505050565b60008060009054906101000a900473ffffffffffffffffffffffffffffffffffffffff169050816000806101000a81548173ffffffffffffffffffffffffffffffffffffffff021916908373ffffffffffffffffffffffffffffffffffffffff1602179055508173ffffffffffffffffffffffffffffffffffffffff168173ffffffffffffffffffffffffffffffffffffffff167f8be0079c531659141344cd1fd0a4f28419497f9722a3daafe3b4186f6b6457e060405160405180910390a35050565b600080fd5b6000819050919050565b61111a81611107565b811461112557600080fd5b50565b60008135905061113781611111565b92915050565b6000806040838503121561115457611153611102565b5b600061116285828601611128565b925050602061117385828601611128565b9150509250929050565b600073ffffffffffffffffffffffffffffffffffffffff82169050919050565b6000819050919050565b60006111c26111bd6111b88461117d565b61119d565b61117d565b9050919050565b60006111d4826111a7565b9050919050565b60006111e6826111c9565b9050919050565b6111f6816111db565b82525050565b600060208201905061121160008301846111ed565b92915050565b60006112228261117d565b9050919050565b61123281611217565b811461123d57600080fd5b50565b60008135905061124f81611229565b92915050565b60006020828403121561126b5761126a611102565b5b600061127984828501611240565b91505092915050565b60006020828403121561129857611297611102565b5b60006112a684828501611128565b91505092915050565b6112b881611107565b82525050565b60006020820190506112d360008301846112af565b92915050565b60006112e4826111c9565b9050919050565b6112f4816112d9565b82525050565b600060208201905061130f60008301846112eb565b92915050565b61131e81611217565b82525050565b60006020820190506113396000830184611315565b92915050565b600061134a8261117d565b9050919050565b61135a8161133f565b811461136557600080fd5b50565b60008135905061137781611351565b92915050565b60006020828403121561139357611392611102565b5b60006113a184828501611368565b91505092915050565b600082825260208201905092915050565b7f4f776e61626c653a2063616c6c6572206973206e6f7420746865206f776e6572600082015250565b60006113f16020836113aa565b91506113fc826113bb565b602082019050919050565b60006020820190508181036000830152611420816113e4565b9050919050565b7f4f7074696f6e206e6f7420617661696c61626c65000000000000000000000000600082015250565b600061145d6014836113aa565b915061146882611427565b602082019050919050565b6000602082019050818103600083015261148c81611450565b9050919050565b7f4f7074696f6e206e6f7420617661696c61626c6520666f72204c4f4200000000600082015250565b60006114c9601c836113aa565b91506114d482611493565b602082019050919050565b600060208201905081810360008301526114f8816114bc565b9050919050565b7f4e487b7100000000000000000000000000000000000000000000000000000000600052601160045260246000fd5b600061153982611107565b915061154483611107565b9250817fffffffffffffffffffffffffffffffffffffffffffffffffffffffffffffffff048311821515161561157d5761157c6114ff565b5b828202905092915050565b7f4f7074696f6e206e6f7420617661696c61626c6520666f722045746865720000600082015250565b60006115be601e836113aa565b91506115c982611588565b602082019050919050565b600060208201905081810360008301526115ed816115b1565b9050919050565b7f596f75206e65656420746f2073656e6420736f6d652065746865720000000000600082015250565b600061162a601b836113aa565b9150611635826115f4565b602082019050919050565b600060208201905081810360008301526116598161161d565b9050919050565b600082825260208201905092915050565b7f3078300000000000000000000000000000000000000000000000000000000000600082015250565b60006116a7600383611660565b91506116b282611671565b602082019050919050565b60006080820190506116d26000830186611315565b6116df60208301856112af565b6116ec60408301846112af565b81810360608301526116fd8161169a565b9050949350505050565b7f4f7074696f6e206e6f7420617661696c61626c6520666f722055534454000000600082015250565b600061173d601d836113aa565b915061174882611707565b602082019050919050565b6000602082019050818103600083015261176c81611730565b9050919050565b7f4f776e61626c653a206e6577206f776e657220697320746865207a65726f206160008201527f6464726573730000000000000000000000000000000000000000000000000000602082015250565b60006117cf6026836113aa565b91506117da82611773565b604082019050919050565b600060208201905081810360008301526117fe816117c2565b9050919050565b6000611810826111c9565b9050919050565b61182081611805565b82525050565b600060608201905061183b6000830186611315565b6118486020830185611817565b61185560408301846112af565b949350505050565b60008115159050919050565b6118728161185d565b811461187d57600080fd5b50565b60008151905061188f81611869565b92915050565b6000602082840312156118ab576118aa611102565b5b60006118b984828501611880565b9150509291505056fea26469706673582212207794f0a0e2653459123c86cc788e04b2caaff44b5700c9394ec4a3b0a7909e5c64736f6c63430008090033",
  "immutableReferences": {},
  "source": "// SPDX-License-Identifier: MIT\npragma solidity ^0.8.2;\n\nimport \"./LootBox.sol\";\n\nimport \"@openzeppelin/contracts/access/Ownable.sol\";\nimport \"@openzeppelin/contracts/token/ERC20/IERC20.sol\";\n\n/**\n * @dev vendor machine for Loot Boxes\n * Three currency (token) are supported for purchasing: ETH, USDT, LOB\n * price per each token are set manually\n */\ncontract LootBoxVendor is Ownable {\n    IERC20 public usdt;\n    IERC20 public token;\n    LootBox public lootbox;\n    \n    // Receiver for the ERC20 tokens (USDT, LOB)\n    address payable private feeReceiver;\n    \n    // Price per currency\n    mapping(uint256 => uint256) feeEther;\n    mapping(uint256 => uint256) feeUSDT;\n    mapping(uint256 => uint256) feeToken;\n    \n    uint256 private numOptions;\n\n    constructor(\n        address _token,\n        address _lootbox,\n        uint256 _numOptions\n    ) {\n        token = IERC20(_token);\n        lootbox = LootBox(_lootbox);\n        numOptions = _numOptions;\n    }\n\n    /// Set Eth price\n    function setFeeEther(uint256 _optionId, uint256 _fee) public onlyOwner {\n        require(_optionId < numOptions, \"Option not available\");\n        feeEther[_optionId] = _fee;\n    }\n\n    /// Get Eth price\n    function getFeeEther(uint256 _optionId) public view returns (uint256) {\n        return feeEther[_optionId];\n    }\n\n    /// Set USDT price\n    function setFeeUSDT(uint256 _optionId, uint256 _fee) public onlyOwner {\n        require(_optionId < numOptions, \"Option not available\");\n        feeUSDT[_optionId] = _fee;\n    }\n\n    /// Get USDT price\n    function getFeeUSDT(uint256 _optionId) public view returns (uint256) {\n        return feeUSDT[_optionId];\n    }\n\n    /// Set LOB price\n    function setFeeToken(uint256 _optionId, uint256 _fee) public onlyOwner {\n        require(_optionId < numOptions, \"Option not available\");\n        feeToken[_optionId] = _fee;\n    }\n\n    /// Get LOB price\n    function getFeeToken(uint256 _optionId) public view returns (uint256) {\n        return feeToken[_optionId];\n    }\n\n    /// Set money receiver, make sure it's a external owned account\n    function setFeeReceiver(address payable _receiver) public onlyOwner {\n        feeReceiver = _receiver;\n    }\n\n    /// Set USDT contract address\n    function setUSDT(address _usdt) public onlyOwner {\n        usdt = IERC20(_usdt);\n    }\n\n    /// withdraw ether to the feeReceiver\n    function withdraw() public onlyOwner {\n        feeReceiver.transfer(address(this).balance);\n    }\n\n    /// @notice Buy lootbox with Eth, fail if price is 0\n    function buy(uint256 _optionId, uint256 _amount) public payable {\n        require(_optionId < numOptions, \"Option not available\");\n        uint256 price = feeToken[_optionId];\n        require(price > 0, \"Option not available for Ether\");\n\n        uint256 amountSent = msg.value;\n        uint256 amountNeeded = feeEther[_optionId] * _amount;\n        require(amountSent >= amountNeeded, \"You need to send some ether\");\n        lootbox.mint(_msgSender(), _optionId, _amount, \"0x0\");\n    }\n\n    /// @notice Buy lootbox with USDT, fail if price is 0\n    function buyWithUSDT(uint256 _optionId, uint256 _amount) public {\n        require(_optionId < numOptions, \"Option not available\");\n        uint256 price = feeUSDT[_optionId];\n        require(price > 0, \"Option not available for USDT\");\n        uint256 totalPrice = price * _amount;\n        _buyWith(usdt, totalPrice, _optionId, _amount);\n    }\n\n    /// @notice Buy lootbox with LOB, fail if price is 0\n    function buyWithToken(uint256 _optionId, uint256 _amount) public {\n        require(_optionId < numOptions, \"Option not available\");\n        uint256 price = feeToken[_optionId];\n        require(price > 0, \"Option not available for LOB\");\n        uint256 totalPrice = price * _amount;\n        _buyWith(token, totalPrice, _optionId, _amount);\n    }\n\n    function _buyWith(\n        IERC20 _token,\n        uint256 _totalPrice,\n        uint256 _optionId,\n        uint256 _amount\n    ) private {\n        // allowance check in transferFrom\n        _token.transferFrom(_msgSender(), feeReceiver, _totalPrice);\n        lootbox.mint(_msgSender(), _optionId, _amount, \"0x0\");\n    }\n}\n",
  "sourcePath": "/home/ec2-user/contract-main/legendofbeasts/contracts/LootBoxVendor.sol",
  "compiler": {
    "name": "solc",
    "version": "0.8.9+commit.e5eed63a.Emscripten.clang"
  },
  "schemaVersion": "3.4.4",
  "updatedAt": "2022-01-25T03:34:29.483Z",
  "networkType": "ethereum",
  "devdoc": {
    "details": "vendor machine for Loot Boxes Three currency (token) are supported for purchasing: ETH, USDT, LOB price per each token are set manually",
    "kind": "dev",
    "methods": {
      "owner()": {
        "details": "Returns the address of the current owner."
      },
      "renounceOwnership()": {
        "details": "Leaves the contract without owner. It will not be possible to call `onlyOwner` functions anymore. Can only be called by the current owner. NOTE: Renouncing ownership will leave the contract without an owner, thereby removing any functionality that is only available to the owner."
      },
      "transferOwnership(address)": {
        "details": "Transfers ownership of the contract to a new account (`newOwner`). Can only be called by the current owner."
      }
    },
    "version": 1
  },
  "userdoc": {
    "kind": "user",
    "methods": {
      "buy(uint256,uint256)": {
        "notice": "Buy lootbox with Eth, fail if price is 0"
      },
      "buyWithToken(uint256,uint256)": {
        "notice": "Buy lootbox with LOB, fail if price is 0"
      },
      "buyWithUSDT(uint256,uint256)": {
        "notice": "Buy lootbox with USDT, fail if price is 0"
      },
      "getFeeEther(uint256)": {
        "notice": "Get Eth price"
      },
      "getFeeToken(uint256)": {
        "notice": "Get LOB price"
      },
      "getFeeUSDT(uint256)": {
        "notice": "Get USDT price"
      },
      "setFeeEther(uint256,uint256)": {
        "notice": "Set Eth price"
      },
      "setFeeReceiver(address)": {
        "notice": "Set money receiver, make sure it's a external owned account"
      },
      "setFeeToken(uint256,uint256)": {
        "notice": "Set LOB price"
      },
      "setFeeUSDT(uint256,uint256)": {
        "notice": "Set USDT price"
      },
      "setUSDT(address)": {
        "notice": "Set USDT contract address"
      },
      "withdraw()": {
        "notice": "withdraw ether to the feeReceiver"
      }
    },
    "version": 1
  }
}