{
  "contractName": "MagicWeapon",
  "abi": [
    {
      "inputs": [
        {
          "internalType": "uint16",
          "name": "_num",
          "type": "uint16"
        }
      ],
      "stateMutability": "nonpayable",
      "type": "constructor"
    },
    {
      "anonymous": false,
      "inputs": [
        {
          "indexed": true,
          "internalType": "address",
          "name": "account",
          "type": "address"
        },
        {
          "indexed": true,
          "internalType": "address",
          "name": "operator",
          "type": "address"
        },
        {
          "indexed": false,
          "internalType": "bool",
          "name": "approved",
          "type": "bool"
        }
      ],
      "name": "ApprovalForAll",
      "type": "event"
    },
    {
      "anonymous": false,
      "inputs": [
        {
          "indexed": true,
          "internalType": "address",
          "name": "previousOwner",
          "type": "address"
        },
        {
          "indexed": true,
          "internalType": "address",
          "name": "newOwner",
          "type": "address"
        }
      ],
      "name": "OwnershipTransferred",
      "type": "event"
    },
    {
      "anonymous": false,
      "inputs": [
        {
          "indexed": false,
          "internalType": "address",
          "name": "account",
          "type": "address"
        }
      ],
      "name": "Paused",
      "type": "event"
    },
    {
      "anonymous": false,
      "inputs": [
        {
          "indexed": true,
          "internalType": "address",
          "name": "operator",
          "type": "address"
        },
        {
          "indexed": true,
          "internalType": "address",
          "name": "from",
          "type": "address"
        },
        {
          "indexed": true,
          "internalType": "address",
          "name": "to",
          "type": "address"
        },
        {
          "indexed": false,
          "internalType": "uint256[]",
          "name": "ids",
          "type": "uint256[]"
        },
        {
          "indexed": false,
          "internalType": "uint256[]",
          "name": "values",
          "type": "uint256[]"
        }
      ],
      "name": "TransferBatch",
      "type": "event"
    },
    {
      "anonymous": false,
      "inputs": [
        {
          "indexed": true,
          "internalType": "address",
          "name": "operator",
          "type": "address"
        },
        {
          "indexed": true,
          "internalType": "address",
          "name": "from",
          "type": "address"
        },
        {
          "indexed": true,
          "internalType": "address",
          "name": "to",
          "type": "address"
        },
        {
          "indexed": false,
          "internalType": "uint256",
          "name": "id",
          "type": "uint256"
        },
        {
          "indexed": false,
          "internalType": "uint256",
          "name": "value",
          "type": "uint256"
        }
      ],
      "name": "TransferSingle",
      "type": "event"
    },
    {
      "anonymous": false,
      "inputs": [
        {
          "indexed": false,
          "internalType": "string",
          "name": "value",
          "type": "string"
        },
        {
          "indexed": true,
          "internalType": "uint256",
          "name": "id",
          "type": "uint256"
        }
      ],
      "name": "URI",
      "type": "event"
    },
    {
      "anonymous": false,
      "inputs": [
        {
          "indexed": false,
          "internalType": "address",
          "name": "account",
          "type": "address"
        }
      ],
      "name": "Unpaused",
      "type": "event"
    },
    {
      "inputs": [
        {
          "internalType": "address",
          "name": "account",
          "type": "address"
        },
        {
          "internalType": "uint256",
          "name": "id",
          "type": "uint256"
        }
      ],
      "name": "balanceOf",
      "outputs": [
        {
          "internalType": "uint256",
          "name": "",
          "type": "uint256"
        }
      ],
      "stateMutability": "view",
      "type": "function",
      "constant": true
    },
    {
      "inputs": [
        {
          "internalType": "address[]",
          "name": "accounts",
          "type": "address[]"
        },
        {
          "internalType": "uint256[]",
          "name": "ids",
          "type": "uint256[]"
        }
      ],
      "name": "balanceOfBatch",
      "outputs": [
        {
          "internalType": "uint256[]",
          "name": "",
          "type": "uint256[]"
        }
      ],
      "stateMutability": "view",
      "type": "function",
      "constant": true
    },
    {
      "inputs": [
        {
          "internalType": "address",
          "name": "account",
          "type": "address"
        },
        {
          "internalType": "uint256",
          "name": "id",
          "type": "uint256"
        },
        {
          "internalType": "uint256",
          "name": "value",
          "type": "uint256"
        }
      ],
      "name": "burn",
      "outputs": [],
      "stateMutability": "nonpayable",
      "type": "function"
    },
    {
      "inputs": [
        {
          "internalType": "address",
          "name": "account",
          "type": "address"
        },
        {
          "internalType": "uint256[]",
          "name": "ids",
          "type": "uint256[]"
        },
        {
          "internalType": "uint256[]",
          "name": "values",
          "type": "uint256[]"
        }
      ],
      "name": "burnBatch",
      "outputs": [],
      "stateMutability": "nonpayable",
      "type": "function"
    },
    {
      "inputs": [
        {
          "internalType": "address",
          "name": "account",
          "type": "address"
        },
        {
          "internalType": "address",
          "name": "operator",
          "type": "address"
        }
      ],
      "name": "isApprovedForAll",
      "outputs": [
        {
          "internalType": "bool",
          "name": "",
          "type": "bool"
        }
      ],
      "stateMutability": "view",
      "type": "function",
      "constant": true
    },
    {
      "inputs": [],
      "name": "owner",
      "outputs": [
        {
          "internalType": "address",
          "name": "",
          "type": "address"
        }
      ],
      "stateMutability": "view",
      "type": "function",
      "constant": true
    },
    {
      "inputs": [],
      "name": "paused",
      "outputs": [
        {
          "internalType": "bool",
          "name": "",
          "type": "bool"
        }
      ],
      "stateMutability": "view",
      "type": "function",
      "constant": true
    },
    {
      "inputs": [],
      "name": "renounceOwnership",
      "outputs": [],
      "stateMutability": "nonpayable",
      "type": "function"
    },
    {
      "inputs": [
        {
          "internalType": "address",
          "name": "from",
          "type": "address"
        },
        {
          "internalType": "address",
          "name": "to",
          "type": "address"
        },
        {
          "internalType": "uint256[]",
          "name": "ids",
          "type": "uint256[]"
        },
        {
          "internalType": "uint256[]",
          "name": "amounts",
          "type": "uint256[]"
        },
        {
          "internalType": "bytes",
          "name": "data",
          "type": "bytes"
        }
      ],
      "name": "safeBatchTransferFrom",
      "outputs": [],
      "stateMutability": "nonpayable",
      "type": "function"
    },
    {
      "inputs": [
        {
          "internalType": "address",
          "name": "from",
          "type": "address"
        },
        {
          "internalType": "address",
          "name": "to",
          "type": "address"
        },
        {
          "internalType": "uint256",
          "name": "id",
          "type": "uint256"
        },
        {
          "internalType": "uint256",
          "name": "amount",
          "type": "uint256"
        },
        {
          "internalType": "bytes",
          "name": "data",
          "type": "bytes"
        }
      ],
      "name": "safeTransferFrom",
      "outputs": [],
      "stateMutability": "nonpayable",
      "type": "function"
    },
    {
      "inputs": [
        {
          "internalType": "address",
          "name": "operator",
          "type": "address"
        },
        {
          "internalType": "bool",
          "name": "approved",
          "type": "bool"
        }
      ],
      "name": "setApprovalForAll",
      "outputs": [],
      "stateMutability": "nonpayable",
      "type": "function"
    },
    {
      "inputs": [
        {
          "internalType": "bytes4",
          "name": "interfaceId",
          "type": "bytes4"
        }
      ],
      "name": "supportsInterface",
      "outputs": [
        {
          "internalType": "bool",
          "name": "",
          "type": "bool"
        }
      ],
      "stateMutability": "view",
      "type": "function",
      "constant": true
    },
    {
      "inputs": [
        {
          "internalType": "address",
          "name": "newOwner",
          "type": "address"
        }
      ],
      "name": "transferOwnership",
      "outputs": [],
      "stateMutability": "nonpayable",
      "type": "function"
    },
    {
      "inputs": [
        {
          "internalType": "uint256",
          "name": "",
          "type": "uint256"
        }
      ],
      "name": "uri",
      "outputs": [
        {
          "internalType": "string",
          "name": "",
          "type": "string"
        }
      ],
      "stateMutability": "view",
      "type": "function",
      "constant": true
    },
    {
      "inputs": [],
      "name": "numOptions",
      "outputs": [
        {
          "internalType": "uint16",
          "name": "",
          "type": "uint16"
        }
      ],
      "stateMutability": "view",
      "type": "function",
      "constant": true
    },
    {
      "inputs": [
        {
          "internalType": "string",
          "name": "newuri",
          "type": "string"
        }
      ],
      "name": "setURI",
      "outputs": [],
      "stateMutability": "nonpayable",
      "type": "function"
    },
    {
      "inputs": [],
      "name": "pause",
      "outputs": [],
      "stateMutability": "nonpayable",
      "type": "function"
    },
    {
      "inputs": [],
      "name": "unpause",
      "outputs": [],
      "stateMutability": "nonpayable",
      "type": "function"
    },
    {
      "inputs": [
        {
          "internalType": "address",
          "name": "account",
          "type": "address"
        },
        {
          "internalType": "uint256",
          "name": "id",
          "type": "uint256"
        },
        {
          "internalType": "uint256",
          "name": "amount",
          "type": "uint256"
        },
        {
          "internalType": "bytes",
          "name": "data",
          "type": "bytes"
        }
      ],
      "name": "mint",
      "outputs": [],
      "stateMutability": "nonpayable",
      "type": "function"
    },
    {
      "inputs": [
        {
          "internalType": "address",
          "name": "to",
          "type": "address"
        },
        {
          "internalType": "uint256[]",
          "name": "ids",
          "type": "uint256[]"
        },
        {
          "internalType": "uint256[]",
          "name": "amounts",
          "type": "uint256[]"
        },
        {
          "internalType": "bytes",
          "name": "data",
          "type": "bytes"
        }
      ],
      "name": "mintBatch",
      "outputs": [],
      "stateMutability": "nonpayable",
      "type": "function"
    }
  ],
  "bytecode": "0x60806040523480156200001157600080fd5b506040516200435e3803806200435e8339818101604052810190620000379190620002a0565b60405180606001604052806036815260200162004328603691396200006281620000c260201b60201c565b506200008362000077620000de60201b60201c565b620000e660201b60201c565b6000600360146101000a81548160ff02191690831515021790555080600360156101000a81548161ffff021916908361ffff1602179055505062000337565b8060029080519060200190620000da929190620001ac565b5050565b600033905090565b6000600360009054906101000a900473ffffffffffffffffffffffffffffffffffffffff16905081600360006101000a81548173ffffffffffffffffffffffffffffffffffffffff021916908373ffffffffffffffffffffffffffffffffffffffff1602179055508173ffffffffffffffffffffffffffffffffffffffff168173ffffffffffffffffffffffffffffffffffffffff167f8be0079c531659141344cd1fd0a4f28419497f9722a3daafe3b4186f6b6457e060405160405180910390a35050565b828054620001ba9062000301565b90600052602060002090601f016020900481019282620001de57600085556200022a565b82601f10620001f957805160ff19168380011785556200022a565b828001600101855582156200022a579182015b82811115620002295782518255916020019190600101906200020c565b5b5090506200023991906200023d565b5090565b5b80821115620002585760008160009055506001016200023e565b5090565b600080fd5b600061ffff82169050919050565b6200027a8162000261565b81146200028657600080fd5b50565b6000815190506200029a816200026f565b92915050565b600060208284031215620002b957620002b86200025c565b5b6000620002c98482850162000289565b91505092915050565b7f4e487b7100000000000000000000000000000000000000000000000000000000600052602260045260246000fd5b600060028204905060018216806200031a57607f821691505b60208210811415620003315762000330620002d2565b5b50919050565b613fe180620003476000396000f3fe608060405234801561001057600080fd5b506004361061012b5760003560e01c80636b20c454116100ad578063a22cb46511610071578063a22cb465146102f4578063e985e9c514610310578063f242432a14610340578063f2fde38b1461035c578063f5298aca146103785761012b565b80636b20c4541461028a578063715018a6146102a6578063731133e9146102b05780638456cb59146102cc5780638da5cb5b146102d65761012b565b80632eb2c2d6116100f45780632eb2c2d6146101f85780633f4ba83a146102145780634b97aed91461021e5780634e1273f41461023c5780635c975abb1461026c5761012b565b8062fdd58e1461013057806301ffc9a71461016057806302fe5305146101905780630e89341c146101ac5780631f7fdffa146101dc575b600080fd5b61014a600480360381019061014591906126c3565b610394565b6040516101579190612712565b60405180910390f35b61017a60048036038101906101759190612785565b61045d565b60405161018791906127cd565b60405180910390f35b6101aa60048036038101906101a5919061292e565b61053f565b005b6101c660048036038101906101c19190612977565b6105c7565b6040516101d39190612a2c565b60405180910390f35b6101f660048036038101906101f19190612bb7565b61065b565b005b610212600480360381019061020d9190612c72565b6106e9565b005b61021c61078a565b005b610226610810565b6040516102339190612d5e565b60405180910390f35b61025660048036038101906102519190612e3c565b610828565b6040516102639190612f72565b60405180910390f35b610274610941565b60405161028191906127cd565b60405180910390f35b6102a4600480360381019061029f9190612f94565b610958565b005b6102ae6109f5565b005b6102ca60048036038101906102c5919061301f565b610a7d565b005b6102d4610b0b565b005b6102de610b91565b6040516102eb91906130b1565b60405180910390f35b61030e600480360381019061030991906130f8565b610bbb565b005b61032a60048036038101906103259190613138565b610bd1565b60405161033791906127cd565b60405180910390f35b61035a60048036038101906103559190613178565b610c65565b005b6103766004803603810190610371919061320f565b610d06565b005b610392600480360381019061038d919061323c565b610dfe565b005b60008073ffffffffffffffffffffffffffffffffffffffff168373ffffffffffffffffffffffffffffffffffffffff161415610405576040517f08c379a00000000000000000000000000000000000000000000000000000000081526004016103fc90613301565b60405180910390fd5b60008083815260200190815260200160002060008473ffffffffffffffffffffffffffffffffffffffff1673ffffffffffffffffffffffffffffffffffffffff16815260200190815260200160002054905092915050565b60007fd9b67a26000000000000000000000000000000000000000000000000000000007bffffffffffffffffffffffffffffffffffffffffffffffffffffffff1916827bffffffffffffffffffffffffffffffffffffffffffffffffffffffff1916148061052857507f0e89341c000000000000000000000000000000000000000000000000000000007bffffffffffffffffffffffffffffffffffffffffffffffffffffffff1916827bffffffffffffffffffffffffffffffffffffffffffffffffffffffff1916145b80610538575061053782610e9b565b5b9050919050565b610547610f05565b73ffffffffffffffffffffffffffffffffffffffff16610565610b91565b73ffffffffffffffffffffffffffffffffffffffff16146105bb576040517f08c379a00000000000000000000000000000000000000000000000000000000081526004016105b29061336d565b60405180910390fd5b6105c481610f0d565b50565b6060600280546105d6906133bc565b80601f0160208091040260200160405190810160405280929190818152602001828054610602906133bc565b801561064f5780601f106106245761010080835404028352916020019161064f565b820191906000526020600020905b81548152906001019060200180831161063257829003601f168201915b50505050509050919050565b610663610f05565b73ffffffffffffffffffffffffffffffffffffffff16610681610b91565b73ffffffffffffffffffffffffffffffffffffffff16146106d7576040517f08c379a00000000000000000000000000000000000000000000000000000000081526004016106ce9061336d565b60405180910390fd5b6106e384848484610f27565b50505050565b6106f1610f05565b73ffffffffffffffffffffffffffffffffffffffff168573ffffffffffffffffffffffffffffffffffffffff161480610737575061073685610731610f05565b610bd1565b5b610776576040517f08c379a000000000000000000000000000000000000000000000000000000000815260040161076d90613460565b60405180910390fd5b6107838585858585611145565b5050505050565b610792610f05565b73ffffffffffffffffffffffffffffffffffffffff166107b0610b91565b73ffffffffffffffffffffffffffffffffffffffff1614610806576040517f08c379a00000000000000000000000000000000000000000000000000000000081526004016107fd9061336d565b60405180910390fd5b61080e611459565b565b6000600360159054906101000a900461ffff16905090565b6060815183511461086e576040517f08c379a0000000000000000000000000000000000000000000000000000000008152600401610865906134f2565b60405180910390fd5b6000835167ffffffffffffffff81111561088b5761088a612803565b5b6040519080825280602002602001820160405280156108b95781602001602082028036833780820191505090505b50905060005b8451811015610936576109068582815181106108de576108dd613512565b5b60200260200101518583815181106108f9576108f8613512565b5b6020026020010151610394565b82828151811061091957610918613512565b5b6020026020010181815250508061092f90613570565b90506108bf565b508091505092915050565b6000600360149054906101000a900460ff16905090565b610960610f05565b73ffffffffffffffffffffffffffffffffffffffff168373ffffffffffffffffffffffffffffffffffffffff1614806109a657506109a5836109a0610f05565b610bd1565b5b6109e5576040517f08c379a00000000000000000000000000000000000000000000000000000000081526004016109dc9061362b565b60405180910390fd5b6109f08383836114fb565b505050565b6109fd610f05565b73ffffffffffffffffffffffffffffffffffffffff16610a1b610b91565b73ffffffffffffffffffffffffffffffffffffffff1614610a71576040517f08c379a0000000000000000000000000000000000000000000000000000000008152600401610a689061336d565b60405180910390fd5b610a7b60006117ac565b565b610a85610f05565b73ffffffffffffffffffffffffffffffffffffffff16610aa3610b91565b73ffffffffffffffffffffffffffffffffffffffff1614610af9576040517f08c379a0000000000000000000000000000000000000000000000000000000008152600401610af09061336d565b60405180910390fd5b610b0584848484611872565b50505050565b610b13610f05565b73ffffffffffffffffffffffffffffffffffffffff16610b31610b91565b73ffffffffffffffffffffffffffffffffffffffff1614610b87576040517f08c379a0000000000000000000000000000000000000000000000000000000008152600401610b7e9061336d565b60405180910390fd5b610b8f611a08565b565b6000600360009054906101000a900473ffffffffffffffffffffffffffffffffffffffff16905090565b610bcd610bc6610f05565b8383611aab565b5050565b6000600160008473ffffffffffffffffffffffffffffffffffffffff1673ffffffffffffffffffffffffffffffffffffffff16815260200190815260200160002060008373ffffffffffffffffffffffffffffffffffffffff1673ffffffffffffffffffffffffffffffffffffffff16815260200190815260200160002060009054906101000a900460ff16905092915050565b610c6d610f05565b73ffffffffffffffffffffffffffffffffffffffff168573ffffffffffffffffffffffffffffffffffffffff161480610cb35750610cb285610cad610f05565b610bd1565b5b610cf2576040517f08c379a0000000000000000000000000000000000000000000000000000000008152600401610ce99061362b565b60405180910390fd5b610cff8585858585611c18565b5050505050565b610d0e610f05565b73ffffffffffffffffffffffffffffffffffffffff16610d2c610b91565b73ffffffffffffffffffffffffffffffffffffffff1614610d82576040517f08c379a0000000000000000000000000000000000000000000000000000000008152600401610d799061336d565b60405180910390fd5b600073ffffffffffffffffffffffffffffffffffffffff168173ffffffffffffffffffffffffffffffffffffffff161415610df2576040517f08c379a0000000000000000000000000000000000000000000000000000000008152600401610de9906136bd565b60405180910390fd5b610dfb816117ac565b50565b610e06610f05565b73ffffffffffffffffffffffffffffffffffffffff168373ffffffffffffffffffffffffffffffffffffffff161480610e4c5750610e4b83610e46610f05565b610bd1565b5b610e8b576040517f08c379a0000000000000000000000000000000000000000000000000000000008152600401610e829061362b565b60405180910390fd5b610e96838383611e9a565b505050565b60007f01ffc9a7000000000000000000000000000000000000000000000000000000007bffffffffffffffffffffffffffffffffffffffffffffffffffffffff1916827bffffffffffffffffffffffffffffffffffffffffffffffffffffffff1916149050919050565b600033905090565b8060029080519060200190610f23929190612578565b5050565b600073ffffffffffffffffffffffffffffffffffffffff168473ffffffffffffffffffffffffffffffffffffffff161415610f97576040517f08c379a0000000000000000000000000000000000000000000000000000000008152600401610f8e9061374f565b60405180910390fd5b8151835114610fdb576040517f08c379a0000000000000000000000000000000000000000000000000000000008152600401610fd2906137e1565b60405180910390fd5b6000610fe5610f05565b9050610ff6816000878787876120b7565b60005b84518110156110af5783818151811061101557611014613512565b5b602002602001015160008087848151811061103357611032613512565b5b6020026020010151815260200190815260200160002060008873ffffffffffffffffffffffffffffffffffffffff1673ffffffffffffffffffffffffffffffffffffffff16815260200190815260200160002060008282546110959190613801565b9250508190555080806110a790613570565b915050610ff9565b508473ffffffffffffffffffffffffffffffffffffffff16600073ffffffffffffffffffffffffffffffffffffffff168273ffffffffffffffffffffffffffffffffffffffff167f4a39dc06d4c0dbc64b70af90fd698a233a518aa5d07e595d983b8c0526c8f7fb8787604051611127929190613857565b60405180910390a461113e81600087878787612115565b5050505050565b8151835114611189576040517f08c379a0000000000000000000000000000000000000000000000000000000008152600401611180906137e1565b60405180910390fd5b600073ffffffffffffffffffffffffffffffffffffffff168473ffffffffffffffffffffffffffffffffffffffff1614156111f9576040517f08c379a00000000000000000000000000000000000000000000000000000000081526004016111f090613900565b60405180910390fd5b6000611203610f05565b90506112138187878787876120b7565b60005b84518110156113c457600085828151811061123457611233613512565b5b60200260200101519050600085838151811061125357611252613512565b5b60200260200101519050600080600084815260200190815260200160002060008b73ffffffffffffffffffffffffffffffffffffffff1673ffffffffffffffffffffffffffffffffffffffff168152602001908152602001600020549050818110156112f4576040517f08c379a00000000000000000000000000000000000000000000000000000000081526004016112eb90613992565b60405180910390fd5b81810360008085815260200190815260200160002060008c73ffffffffffffffffffffffffffffffffffffffff1673ffffffffffffffffffffffffffffffffffffffff168152602001908152602001600020819055508160008085815260200190815260200160002060008b73ffffffffffffffffffffffffffffffffffffffff1673ffffffffffffffffffffffffffffffffffffffff16815260200190815260200160002060008282546113a99190613801565b92505081905550505050806113bd90613570565b9050611216565b508473ffffffffffffffffffffffffffffffffffffffff168673ffffffffffffffffffffffffffffffffffffffff168273ffffffffffffffffffffffffffffffffffffffff167f4a39dc06d4c0dbc64b70af90fd698a233a518aa5d07e595d983b8c0526c8f7fb878760405161143b929190613857565b60405180910390a4611451818787878787612115565b505050505050565b611461610941565b6114a0576040517f08c379a0000000000000000000000000000000000000000000000000000000008152600401611497906139fe565b60405180910390fd5b6000600360146101000a81548160ff0219169083151502179055507f5db9ee0a495bf2e6ff9c91a7834c1ba4fdd244a5e8aa4e537bd38aeae4b073aa6114e4610f05565b6040516114f191906130b1565b60405180910390a1565b600073ffffffffffffffffffffffffffffffffffffffff168373ffffffffffffffffffffffffffffffffffffffff16141561156b576040517f08c379a000000000000000000000000000000000000000000000000000000000815260040161156290613a90565b60405180910390fd5b80518251146115af576040517f08c379a00000000000000000000000000000000000000000000000000000000081526004016115a6906137e1565b60405180910390fd5b60006115b9610f05565b90506115d9818560008686604051806020016040528060008152506120b7565b60005b83518110156117265760008482815181106115fa576115f9613512565b5b60200260200101519050600084838151811061161957611618613512565b5b60200260200101519050600080600084815260200190815260200160002060008973ffffffffffffffffffffffffffffffffffffffff1673ffffffffffffffffffffffffffffffffffffffff168152602001908152602001600020549050818110156116ba576040517f08c379a00000000000000000000000000000000000000000000000000000000081526004016116b190613b22565b60405180910390fd5b81810360008085815260200190815260200160002060008a73ffffffffffffffffffffffffffffffffffffffff1673ffffffffffffffffffffffffffffffffffffffff16815260200190815260200160002081905550505050808061171e90613570565b9150506115dc565b50600073ffffffffffffffffffffffffffffffffffffffff168473ffffffffffffffffffffffffffffffffffffffff168273ffffffffffffffffffffffffffffffffffffffff167f4a39dc06d4c0dbc64b70af90fd698a233a518aa5d07e595d983b8c0526c8f7fb868660405161179e929190613857565b60405180910390a450505050565b6000600360009054906101000a900473ffffffffffffffffffffffffffffffffffffffff16905081600360006101000a81548173ffffffffffffffffffffffffffffffffffffffff021916908373ffffffffffffffffffffffffffffffffffffffff1602179055508173ffffffffffffffffffffffffffffffffffffffff168173ffffffffffffffffffffffffffffffffffffffff167f8be0079c531659141344cd1fd0a4f28419497f9722a3daafe3b4186f6b6457e060405160405180910390a35050565b600073ffffffffffffffffffffffffffffffffffffffff168473ffffffffffffffffffffffffffffffffffffffff1614156118e2576040517f08c379a00000000000000000000000000000000000000000000000000000000081526004016118d99061374f565b60405180910390fd5b60006118ec610f05565b905061190d816000876118fe886122fc565b611907886122fc565b876120b7565b8260008086815260200190815260200160002060008773ffffffffffffffffffffffffffffffffffffffff1673ffffffffffffffffffffffffffffffffffffffff168152602001908152602001600020600082825461196c9190613801565b925050819055508473ffffffffffffffffffffffffffffffffffffffff16600073ffffffffffffffffffffffffffffffffffffffff168273ffffffffffffffffffffffffffffffffffffffff167fc3d58168c5ae7397731d063d5bbf3d657854427343f4c083240f7aacaa2d0f6287876040516119ea929190613b42565b60405180910390a4611a0181600087878787612376565b5050505050565b611a10610941565b15611a50576040517f08c379a0000000000000000000000000000000000000000000000000000000008152600401611a4790613bb7565b60405180910390fd5b6001600360146101000a81548160ff0219169083151502179055507f62e78cea01bee320cd4e420270b5ea74000d11b0c9f74754ebdbfc544b05a258611a94610f05565b604051611aa191906130b1565b60405180910390a1565b8173ffffffffffffffffffffffffffffffffffffffff168373ffffffffffffffffffffffffffffffffffffffff161415611b1a576040517f08c379a0000000000000000000000000000000000000000000000000000000008152600401611b1190613c49565b60405180910390fd5b80600160008573ffffffffffffffffffffffffffffffffffffffff1673ffffffffffffffffffffffffffffffffffffffff16815260200190815260200160002060008473ffffffffffffffffffffffffffffffffffffffff1673ffffffffffffffffffffffffffffffffffffffff16815260200190815260200160002060006101000a81548160ff0219169083151502179055508173ffffffffffffffffffffffffffffffffffffffff168373ffffffffffffffffffffffffffffffffffffffff167f17307eab39ab6107e8899845ad3d59bd9653f200f220920489ca2b5937696c3183604051611c0b91906127cd565b60405180910390a3505050565b600073ffffffffffffffffffffffffffffffffffffffff168473ffffffffffffffffffffffffffffffffffffffff161415611c88576040517f08c379a0000000000000000000000000000000000000000000000000000000008152600401611c7f90613900565b60405180910390fd5b6000611c92610f05565b9050611cb2818787611ca3886122fc565b611cac886122fc565b876120b7565b600080600086815260200190815260200160002060008873ffffffffffffffffffffffffffffffffffffffff1673ffffffffffffffffffffffffffffffffffffffff16815260200190815260200160002054905083811015611d49576040517f08c379a0000000000000000000000000000000000000000000000000000000008152600401611d4090613992565b60405180910390fd5b83810360008087815260200190815260200160002060008973ffffffffffffffffffffffffffffffffffffffff1673ffffffffffffffffffffffffffffffffffffffff168152602001908152602001600020819055508360008087815260200190815260200160002060008873ffffffffffffffffffffffffffffffffffffffff1673ffffffffffffffffffffffffffffffffffffffff1681526020019081526020016000206000828254611dfe9190613801565b925050819055508573ffffffffffffffffffffffffffffffffffffffff168773ffffffffffffffffffffffffffffffffffffffff168373ffffffffffffffffffffffffffffffffffffffff167fc3d58168c5ae7397731d063d5bbf3d657854427343f4c083240f7aacaa2d0f628888604051611e7b929190613b42565b60405180910390a4611e91828888888888612376565b50505050505050565b600073ffffffffffffffffffffffffffffffffffffffff168373ffffffffffffffffffffffffffffffffffffffff161415611f0a576040517f08c379a0000000000000000000000000000000000000000000000000000000008152600401611f0190613a90565b60405180910390fd5b6000611f14610f05565b9050611f4481856000611f26876122fc565b611f2f876122fc565b604051806020016040528060008152506120b7565b600080600085815260200190815260200160002060008673ffffffffffffffffffffffffffffffffffffffff1673ffffffffffffffffffffffffffffffffffffffff16815260200190815260200160002054905082811015611fdb576040517f08c379a0000000000000000000000000000000000000000000000000000000008152600401611fd290613b22565b60405180910390fd5b82810360008086815260200190815260200160002060008773ffffffffffffffffffffffffffffffffffffffff1673ffffffffffffffffffffffffffffffffffffffff16815260200190815260200160002081905550600073ffffffffffffffffffffffffffffffffffffffff168573ffffffffffffffffffffffffffffffffffffffff168373ffffffffffffffffffffffffffffffffffffffff167fc3d58168c5ae7397731d063d5bbf3d657854427343f4c083240f7aacaa2d0f6287876040516120a8929190613b42565b60405180910390a45050505050565b6120bf610941565b156120ff576040517f08c379a00000000000000000000000000000000000000000000000000000000081526004016120f690613bb7565b60405180910390fd5b61210d86868686868661255d565b505050505050565b6121348473ffffffffffffffffffffffffffffffffffffffff16612565565b156122f4578373ffffffffffffffffffffffffffffffffffffffff1663bc197c8187878686866040518663ffffffff1660e01b815260040161217a959493929190613cbe565b602060405180830381600087803b15801561219457600080fd5b505af19250505080156121c557506040513d601f19601f820116820180604052508101906121c29190613d3b565b60015b61226b576121d1613d75565b806308c379a0141561222e57506121e6613d97565b806121f15750612230565b806040517f08c379a00000000000000000000000000000000000000000000000000000000081526004016122259190612a2c565b60405180910390fd5b505b6040517f08c379a000000000000000000000000000000000000000000000000000000000815260040161226290613e9f565b60405180910390fd5b63bc197c8160e01b7bffffffffffffffffffffffffffffffffffffffffffffffffffffffff1916817bffffffffffffffffffffffffffffffffffffffffffffffffffffffff1916146122f2576040517f08c379a00000000000000000000000000000000000000000000000000000000081526004016122e990613f31565b60405180910390fd5b505b505050505050565b60606000600167ffffffffffffffff81111561231b5761231a612803565b5b6040519080825280602002602001820160405280156123495781602001602082028036833780820191505090505b509050828160008151811061236157612360613512565b5b60200260200101818152505080915050919050565b6123958473ffffffffffffffffffffffffffffffffffffffff16612565565b15612555578373ffffffffffffffffffffffffffffffffffffffff1663f23a6e6187878686866040518663ffffffff1660e01b81526004016123db959493929190613f51565b602060405180830381600087803b1580156123f557600080fd5b505af192505050801561242657506040513d601f19601f820116820180604052508101906124239190613d3b565b60015b6124cc57612432613d75565b806308c379a0141561248f5750612447613d97565b806124525750612491565b806040517f08c379a00000000000000000000000000000000000000000000000000000000081526004016124869190612a2c565b60405180910390fd5b505b6040517f08c379a00000000000000000000000000000000000000000000000000000000081526004016124c390613e9f565b60405180910390fd5b63f23a6e6160e01b7bffffffffffffffffffffffffffffffffffffffffffffffffffffffff1916817bffffffffffffffffffffffffffffffffffffffffffffffffffffffff191614612553576040517f08c379a000000000000000000000000000000000000000000000000000000000815260040161254a90613f31565b60405180910390fd5b505b505050505050565b505050505050565b600080823b905060008111915050919050565b828054612584906133bc565b90600052602060002090601f0160209004810192826125a657600085556125ed565b82601f106125bf57805160ff19168380011785556125ed565b828001600101855582156125ed579182015b828111156125ec5782518255916020019190600101906125d1565b5b5090506125fa91906125fe565b5090565b5b808211156126175760008160009055506001016125ff565b5090565b6000604051905090565b600080fd5b600080fd5b600073ffffffffffffffffffffffffffffffffffffffff82169050919050565b600061265a8261262f565b9050919050565b61266a8161264f565b811461267557600080fd5b50565b60008135905061268781612661565b92915050565b6000819050919050565b6126a08161268d565b81146126ab57600080fd5b50565b6000813590506126bd81612697565b92915050565b600080604083850312156126da576126d9612625565b5b60006126e885828601612678565b92505060206126f9858286016126ae565b9150509250929050565b61270c8161268d565b82525050565b60006020820190506127276000830184612703565b92915050565b60007fffffffff0000000000000000000000000000000000000000000000000000000082169050919050565b6127628161272d565b811461276d57600080fd5b50565b60008135905061277f81612759565b92915050565b60006020828403121561279b5761279a612625565b5b60006127a984828501612770565b91505092915050565b60008115159050919050565b6127c7816127b2565b82525050565b60006020820190506127e260008301846127be565b92915050565b600080fd5b600080fd5b6000601f19601f8301169050919050565b7f4e487b7100000000000000000000000000000000000000000000000000000000600052604160045260246000fd5b61283b826127f2565b810181811067ffffffffffffffff8211171561285a57612859612803565b5b80604052505050565b600061286d61261b565b90506128798282612832565b919050565b600067ffffffffffffffff82111561289957612898612803565b5b6128a2826127f2565b9050602081019050919050565b82818337600083830152505050565b60006128d16128cc8461287e565b612863565b9050828152602081018484840111156128ed576128ec6127ed565b5b6128f88482856128af565b509392505050565b600082601f830112612915576129146127e8565b5b81356129258482602086016128be565b91505092915050565b60006020828403121561294457612943612625565b5b600082013567ffffffffffffffff8111156129625761296161262a565b5b61296e84828501612900565b91505092915050565b60006020828403121561298d5761298c612625565b5b600061299b848285016126ae565b91505092915050565b600081519050919050565b600082825260208201905092915050565b60005b838110156129de5780820151818401526020810190506129c3565b838111156129ed576000848401525b50505050565b60006129fe826129a4565b612a0881856129af565b9350612a188185602086016129c0565b612a21816127f2565b840191505092915050565b60006020820190508181036000830152612a4681846129f3565b905092915050565b600067ffffffffffffffff821115612a6957612a68612803565b5b602082029050602081019050919050565b600080fd5b6000612a92612a8d84612a4e565b612863565b90508083825260208201905060208402830185811115612ab557612ab4612a7a565b5b835b81811015612ade5780612aca88826126ae565b845260208401935050602081019050612ab7565b5050509392505050565b600082601f830112612afd57612afc6127e8565b5b8135612b0d848260208601612a7f565b91505092915050565b600067ffffffffffffffff821115612b3157612b30612803565b5b612b3a826127f2565b9050602081019050919050565b6000612b5a612b5584612b16565b612863565b905082815260208101848484011115612b7657612b756127ed565b5b612b818482856128af565b509392505050565b600082601f830112612b9e57612b9d6127e8565b5b8135612bae848260208601612b47565b91505092915050565b60008060008060808587031215612bd157612bd0612625565b5b6000612bdf87828801612678565b945050602085013567ffffffffffffffff811115612c0057612bff61262a565b5b612c0c87828801612ae8565b935050604085013567ffffffffffffffff811115612c2d57612c2c61262a565b5b612c3987828801612ae8565b925050606085013567ffffffffffffffff811115612c5a57612c5961262a565b5b612c6687828801612b89565b91505092959194509250565b600080600080600060a08688031215612c8e57612c8d612625565b5b6000612c9c88828901612678565b9550506020612cad88828901612678565b945050604086013567ffffffffffffffff811115612cce57612ccd61262a565b5b612cda88828901612ae8565b935050606086013567ffffffffffffffff811115612cfb57612cfa61262a565b5b612d0788828901612ae8565b925050608086013567ffffffffffffffff811115612d2857612d2761262a565b5b612d3488828901612b89565b9150509295509295909350565b600061ffff82169050919050565b612d5881612d41565b82525050565b6000602082019050612d736000830184612d4f565b92915050565b600067ffffffffffffffff821115612d9457612d93612803565b5b602082029050602081019050919050565b6000612db8612db384612d79565b612863565b90508083825260208201905060208402830185811115612ddb57612dda612a7a565b5b835b81811015612e045780612df08882612678565b845260208401935050602081019050612ddd565b5050509392505050565b600082601f830112612e2357612e226127e8565b5b8135612e33848260208601612da5565b91505092915050565b60008060408385031215612e5357612e52612625565b5b600083013567ffffffffffffffff811115612e7157612e7061262a565b5b612e7d85828601612e0e565b925050602083013567ffffffffffffffff811115612e9e57612e9d61262a565b5b612eaa85828601612ae8565b9150509250929050565b600081519050919050565b600082825260208201905092915050565b6000819050602082019050919050565b612ee98161268d565b82525050565b6000612efb8383612ee0565b60208301905092915050565b6000602082019050919050565b6000612f1f82612eb4565b612f298185612ebf565b9350612f3483612ed0565b8060005b83811015612f65578151612f4c8882612eef565b9750612f5783612f07565b925050600181019050612f38565b5085935050505092915050565b60006020820190508181036000830152612f8c8184612f14565b905092915050565b600080600060608486031215612fad57612fac612625565b5b6000612fbb86828701612678565b935050602084013567ffffffffffffffff811115612fdc57612fdb61262a565b5b612fe886828701612ae8565b925050604084013567ffffffffffffffff8111156130095761300861262a565b5b61301586828701612ae8565b9150509250925092565b6000806000806080858703121561303957613038612625565b5b600061304787828801612678565b9450506020613058878288016126ae565b9350506040613069878288016126ae565b925050606085013567ffffffffffffffff81111561308a5761308961262a565b5b61309687828801612b89565b91505092959194509250565b6130ab8161264f565b82525050565b60006020820190506130c660008301846130a2565b92915050565b6130d5816127b2565b81146130e057600080fd5b50565b6000813590506130f2816130cc565b92915050565b6000806040838503121561310f5761310e612625565b5b600061311d85828601612678565b925050602061312e858286016130e3565b9150509250929050565b6000806040838503121561314f5761314e612625565b5b600061315d85828601612678565b925050602061316e85828601612678565b9150509250929050565b600080600080600060a0868803121561319457613193612625565b5b60006131a288828901612678565b95505060206131b388828901612678565b94505060406131c4888289016126ae565b93505060606131d5888289016126ae565b925050608086013567ffffffffffffffff8111156131f6576131f561262a565b5b61320288828901612b89565b9150509295509295909350565b60006020828403121561322557613224612625565b5b600061323384828501612678565b91505092915050565b60008060006060848603121561325557613254612625565b5b600061326386828701612678565b9350506020613274868287016126ae565b9250506040613285868287016126ae565b9150509250925092565b7f455243313135353a2062616c616e636520717565727920666f7220746865207a60008201527f65726f2061646472657373000000000000000000000000000000000000000000602082015250565b60006132eb602b836129af565b91506132f68261328f565b604082019050919050565b6000602082019050818103600083015261331a816132de565b9050919050565b7f4f776e61626c653a2063616c6c6572206973206e6f7420746865206f776e6572600082015250565b60006133576020836129af565b915061336282613321565b602082019050919050565b600060208201905081810360008301526133868161334a565b9050919050565b7f4e487b7100000000000000000000000000000000000000000000000000000000600052602260045260246000fd5b600060028204905060018216806133d457607f821691505b602082108114156133e8576133e761338d565b5b50919050565b7f455243313135353a207472616e736665722063616c6c6572206973206e6f742060008201527f6f776e6572206e6f7220617070726f7665640000000000000000000000000000602082015250565b600061344a6032836129af565b9150613455826133ee565b604082019050919050565b600060208201905081810360008301526134798161343d565b9050919050565b7f455243313135353a206163636f756e747320616e6420696473206c656e67746860008201527f206d69736d617463680000000000000000000000000000000000000000000000602082015250565b60006134dc6029836129af565b91506134e782613480565b604082019050919050565b6000602082019050818103600083015261350b816134cf565b9050919050565b7f4e487b7100000000000000000000000000000000000000000000000000000000600052603260045260246000fd5b7f4e487b7100000000000000000000000000000000000000000000000000000000600052601160045260246000fd5b600061357b8261268d565b91507fffffffffffffffffffffffffffffffffffffffffffffffffffffffffffffffff8214156135ae576135ad613541565b5b600182019050919050565b7f455243313135353a2063616c6c6572206973206e6f74206f776e6572206e6f7260008201527f20617070726f7665640000000000000000000000000000000000000000000000602082015250565b60006136156029836129af565b9150613620826135b9565b604082019050919050565b6000602082019050818103600083015261364481613608565b9050919050565b7f4f776e61626c653a206e6577206f776e657220697320746865207a65726f206160008201527f6464726573730000000000000000000000000000000000000000000000000000602082015250565b60006136a76026836129af565b91506136b28261364b565b604082019050919050565b600060208201905081810360008301526136d68161369a565b9050919050565b7f455243313135353a206d696e7420746f20746865207a65726f2061646472657360008201527f7300000000000000000000000000000000000000000000000000000000000000602082015250565b60006137396021836129af565b9150613744826136dd565b604082019050919050565b600060208201905081810360008301526137688161372c565b9050919050565b7f455243313135353a2069647320616e6420616d6f756e7473206c656e6774682060008201527f6d69736d61746368000000000000000000000000000000000000000000000000602082015250565b60006137cb6028836129af565b91506137d68261376f565b604082019050919050565b600060208201905081810360008301526137fa816137be565b9050919050565b600061380c8261268d565b91506138178361268d565b9250827fffffffffffffffffffffffffffffffffffffffffffffffffffffffffffffffff0382111561384c5761384b613541565b5b828201905092915050565b600060408201905081810360008301526138718185612f14565b905081810360208301526138858184612f14565b90509392505050565b7f455243313135353a207472616e7366657220746f20746865207a65726f20616460008201527f6472657373000000000000000000000000000000000000000000000000000000602082015250565b60006138ea6025836129af565b91506138f58261388e565b604082019050919050565b60006020820190508181036000830152613919816138dd565b9050919050565b7f455243313135353a20696e73756666696369656e742062616c616e636520666f60008201527f72207472616e7366657200000000000000000000000000000000000000000000602082015250565b600061397c602a836129af565b915061398782613920565b604082019050919050565b600060208201905081810360008301526139ab8161396f565b9050919050565b7f5061757361626c653a206e6f7420706175736564000000000000000000000000600082015250565b60006139e86014836129af565b91506139f3826139b2565b602082019050919050565b60006020820190508181036000830152613a17816139db565b9050919050565b7f455243313135353a206275726e2066726f6d20746865207a65726f206164647260008201527f6573730000000000000000000000000000000000000000000000000000000000602082015250565b6000613a7a6023836129af565b9150613a8582613a1e565b604082019050919050565b60006020820190508181036000830152613aa981613a6d565b9050919050565b7f455243313135353a206275726e20616d6f756e7420657863656564732062616c60008201527f616e636500000000000000000000000000000000000000000000000000000000602082015250565b6000613b0c6024836129af565b9150613b1782613ab0565b604082019050919050565b60006020820190508181036000830152613b3b81613aff565b9050919050565b6000604082019050613b576000830185612703565b613b646020830184612703565b9392505050565b7f5061757361626c653a2070617573656400000000000000000000000000000000600082015250565b6000613ba16010836129af565b9150613bac82613b6b565b602082019050919050565b60006020820190508181036000830152613bd081613b94565b9050919050565b7f455243313135353a2073657474696e6720617070726f76616c2073746174757360008201527f20666f722073656c660000000000000000000000000000000000000000000000602082015250565b6000613c336029836129af565b9150613c3e82613bd7565b604082019050919050565b60006020820190508181036000830152613c6281613c26565b9050919050565b600081519050919050565b600082825260208201905092915050565b6000613c9082613c69565b613c9a8185613c74565b9350613caa8185602086016129c0565b613cb3816127f2565b840191505092915050565b600060a082019050613cd360008301886130a2565b613ce060208301876130a2565b8181036040830152613cf28186612f14565b90508181036060830152613d068185612f14565b90508181036080830152613d1a8184613c85565b90509695505050505050565b600081519050613d3581612759565b92915050565b600060208284031215613d5157613d50612625565b5b6000613d5f84828501613d26565b91505092915050565b60008160e01c9050919050565b600060033d1115613d945760046000803e613d91600051613d68565b90505b90565b600060443d1015613da757613e2a565b613daf61261b565b60043d036004823e80513d602482011167ffffffffffffffff82111715613dd7575050613e2a565b808201805167ffffffffffffffff811115613df55750505050613e2a565b80602083010160043d038501811115613e12575050505050613e2a565b613e2182602001850186612832565b82955050505050505b90565b7f455243313135353a207472616e7366657220746f206e6f6e204552433131353560008201527f526563656976657220696d706c656d656e746572000000000000000000000000602082015250565b6000613e896034836129af565b9150613e9482613e2d565b604082019050919050565b60006020820190508181036000830152613eb881613e7c565b9050919050565b7f455243313135353a204552433131353552656365697665722072656a6563746560008201527f6420746f6b656e73000000000000000000000000000000000000000000000000602082015250565b6000613f1b6028836129af565b9150613f2682613ebf565b604082019050919050565b60006020820190508181036000830152613f4a81613f0e565b9050919050565b600060a082019050613f6660008301886130a2565b613f7360208301876130a2565b613f806040830186612703565b613f8d6060830185612703565b8181036080830152613f9f8184613c85565b9050969550505050505056fea26469706673582212207ccea47ff5f4805ea15d4af9c5be50926b8d8b21e3a5adcc6cbecd62237b2a1f64736f6c6343000809003368747470733a2f2f6170692e686265617374732e636f6d2f6173736574732f6d616769635f776561706f6e732f7b69647d2e6a736f6e",
  "immutableReferences": {},
  "source": "// SPDX-License-Identifier: MIT\npragma solidity ^0.8.2;\n\nimport \"@openzeppelin/contracts/token/ERC1155/ERC1155.sol\";\nimport \"@openzeppelin/contracts/access/Ownable.sol\";\nimport \"@openzeppelin/contracts/security/Pausable.sol\";\nimport \"@openzeppelin/contracts/token/ERC1155/extensions/ERC1155Burnable.sol\";\n\ncontract MagicWeapon is ERC1155, Ownable, Pausable, ERC1155Burnable {\n    uint16 private _numOptions;\n\n    constructor(uint16 _num)\n        ERC1155(\"https://api.hbeasts.com/assets/magic_weapons/{id}.json\")\n    {\n        _numOptions = _num;\n    }\n\n    function numOptions() public view returns (uint16) {\n        return _numOptions;\n    }\n\n    function setURI(string memory newuri) public onlyOwner {\n        _setURI(newuri);\n    }\n\n    function pause() public onlyOwner {\n        _pause();\n    }\n\n    function unpause() public onlyOwner {\n        _unpause();\n    }\n\n    function mint(\n        address account,\n        uint256 id,\n        uint256 amount,\n        bytes memory data\n    ) public onlyOwner {\n        _mint(account, id, amount, data);\n    }\n\n    function mintBatch(\n        address to,\n        uint256[] memory ids,\n        uint256[] memory amounts,\n        bytes memory data\n    ) public onlyOwner {\n        _mintBatch(to, ids, amounts, data);\n    }\n\n    function _beforeTokenTransfer(\n        address operator,\n        address from,\n        address to,\n        uint256[] memory ids,\n        uint256[] memory amounts,\n        bytes memory data\n    ) internal override whenNotPaused {\n        super._beforeTokenTransfer(operator, from, to, ids, amounts, data);\n    }\n}\n",
  "sourcePath": "/home/ec2-user/contract-main/legendofbeasts/contracts/MagicWeapon.sol",
  "compiler": {
    "name": "solc",
    "version": "0.8.9+commit.e5eed63a.Emscripten.clang"
  },
  "schemaVersion": "3.4.4",
  "updatedAt": "2022-01-25T03:34:29.525Z",
  "networkType": "ethereum",
  "devdoc": {
    "kind": "dev",
    "methods": {
      "balanceOf(address,uint256)": {
        "details": "See {IERC1155-balanceOf}. Requirements: - `account` cannot be the zero address."
      },
      "balanceOfBatch(address[],uint256[])": {
        "details": "See {IERC1155-balanceOfBatch}. Requirements: - `accounts` and `ids` must have the same length."
      },
      "isApprovedForAll(address,address)": {
        "details": "See {IERC1155-isApprovedForAll}."
      },
      "owner()": {
        "details": "Returns the address of the current owner."
      },
      "paused()": {
        "details": "Returns true if the contract is paused, and false otherwise."
      },
      "renounceOwnership()": {
        "details": "Leaves the contract without owner. It will not be possible to call `onlyOwner` functions anymore. Can only be called by the current owner. NOTE: Renouncing ownership will leave the contract without an owner, thereby removing any functionality that is only available to the owner."
      },
      "safeBatchTransferFrom(address,address,uint256[],uint256[],bytes)": {
        "details": "See {IERC1155-safeBatchTransferFrom}."
      },
      "safeTransferFrom(address,address,uint256,uint256,bytes)": {
        "details": "See {IERC1155-safeTransferFrom}."
      },
      "setApprovalForAll(address,bool)": {
        "details": "See {IERC1155-setApprovalForAll}."
      },
      "supportsInterface(bytes4)": {
        "details": "See {IERC165-supportsInterface}."
      },
      "transferOwnership(address)": {
        "details": "Transfers ownership of the contract to a new account (`newOwner`). Can only be called by the current owner."
      },
      "uri(uint256)": {
        "details": "See {IERC1155MetadataURI-uri}. This implementation returns the same URI for *all* token types. It relies on the token type ID substitution mechanism https://eips.ethereum.org/EIPS/eip-1155#metadata[defined in the EIP]. Clients calling this function must replace the `\\{id\\}` substring with the actual token type ID."
      }
    },
    "version": 1
  },
  "userdoc": {
    "kind": "user",
    "methods": {},
    "version": 1
  }
}