{
  "contractName": "MagicWeaponFactory",
  "abi": [
    {
      "inputs": [
        {
          "internalType": "address",
          "name": "_nftAddress",
          "type": "address"
        }
      ],
      "stateMutability": "nonpayable",
      "type": "constructor"
    },
    {
      "anonymous": false,
      "inputs": [
        {
          "indexed": true,
          "internalType": "address",
          "name": "previousOwner",
          "type": "address"
        },
        {
          "indexed": true,
          "internalType": "address",
          "name": "newOwner",
          "type": "address"
        }
      ],
      "name": "OwnershipTransferred",
      "type": "event"
    },
    {
      "inputs": [],
      "name": "owner",
      "outputs": [
        {
          "internalType": "address",
          "name": "",
          "type": "address"
        }
      ],
      "stateMutability": "view",
      "type": "function",
      "constant": true
    },
    {
      "inputs": [],
      "name": "renounceOwnership",
      "outputs": [],
      "stateMutability": "nonpayable",
      "type": "function"
    },
    {
      "inputs": [
        {
          "internalType": "address",
          "name": "newOwner",
          "type": "address"
        }
      ],
      "name": "transferOwnership",
      "outputs": [],
      "stateMutability": "nonpayable",
      "type": "function"
    },
    {
      "inputs": [
        {
          "internalType": "uint256",
          "name": "_optionId",
          "type": "uint256"
        },
        {
          "internalType": "uint256[]",
          "name": "_tokenIds",
          "type": "uint256[]"
        }
      ],
      "name": "setOptionIds",
      "outputs": [],
      "stateMutability": "nonpayable",
      "type": "function"
    },
    {
      "inputs": [
        {
          "internalType": "uint256",
          "name": "_optionId",
          "type": "uint256"
        },
        {
          "internalType": "address",
          "name": "_to",
          "type": "address"
        },
        {
          "internalType": "uint256",
          "name": "_amount",
          "type": "uint256"
        },
        {
          "internalType": "bytes",
          "name": "data",
          "type": "bytes"
        }
      ],
      "name": "mint",
      "outputs": [],
      "stateMutability": "nonpayable",
      "type": "function"
    }
  ],
  "bytecode": "0x60806040523480156200001157600080fd5b50604051620010fa380380620010fa8339818101604052810190620000379190620001d5565b620000576200004b6200009f60201b60201c565b620000a760201b60201c565b80600260006101000a81548173ffffffffffffffffffffffffffffffffffffffff021916908373ffffffffffffffffffffffffffffffffffffffff1602179055505062000207565b600033905090565b60008060009054906101000a900473ffffffffffffffffffffffffffffffffffffffff169050816000806101000a81548173ffffffffffffffffffffffffffffffffffffffff021916908373ffffffffffffffffffffffffffffffffffffffff1602179055508173ffffffffffffffffffffffffffffffffffffffff168173ffffffffffffffffffffffffffffffffffffffff167f8be0079c531659141344cd1fd0a4f28419497f9722a3daafe3b4186f6b6457e060405160405180910390a35050565b600080fd5b600073ffffffffffffffffffffffffffffffffffffffff82169050919050565b60006200019d8262000170565b9050919050565b620001af8162000190565b8114620001bb57600080fd5b50565b600081519050620001cf81620001a4565b92915050565b600060208284031215620001ee57620001ed6200016b565b5b6000620001fe84828501620001be565b91505092915050565b610ee380620002176000396000f3fe608060405234801561001057600080fd5b50600436106100575760003560e01c8063715018a61461005c5780638da5cb5b14610066578063c0ef153314610084578063c77b66c2146100a0578063f2fde38b146100bc575b600080fd5b6100646100d8565b005b61006e610160565b60405161007b91906106bf565b60405180910390f35b61009e6004803603810190610099919061087d565b610189565b005b6100ba60048036038101906100b591906109ba565b610231565b005b6100d660048036038101906100d19190610a3d565b610400565b005b6100e06104f8565b73ffffffffffffffffffffffffffffffffffffffff166100fe610160565b73ffffffffffffffffffffffffffffffffffffffff1614610154576040517f08c379a000000000000000000000000000000000000000000000000000000000815260040161014b90610ac7565b60405180910390fd5b61015e6000610500565b565b60008060009054906101000a900473ffffffffffffffffffffffffffffffffffffffff16905090565b6101916104f8565b73ffffffffffffffffffffffffffffffffffffffff166101af610160565b73ffffffffffffffffffffffffffffffffffffffff1614610205576040517f08c379a00000000000000000000000000000000000000000000000000000000081526004016101fc90610ac7565b60405180910390fd5b8060036000848152602001908152602001600020908051906020019061022c929190610614565b505050565b6102396104f8565b73ffffffffffffffffffffffffffffffffffffffff16610257610160565b73ffffffffffffffffffffffffffffffffffffffff16146102ad576040517f08c379a00000000000000000000000000000000000000000000000000000000081526004016102a490610ac7565b60405180910390fd5b60006003600086815260200190815260200160002080548060200260200160405190810160405280929190818152602001828054801561030c57602002820191906000526020600020905b8154815260200190600101908083116102f8575b5050505050905060005b838110156103f857600082835161032b6105c4565b6103359190610b16565b8151811061034657610345610b47565b5b60200260200101519050600260009054906101000a900473ffffffffffffffffffffffffffffffffffffffff1673ffffffffffffffffffffffffffffffffffffffff1663731133e987836001886040518563ffffffff1660e01b81526004016103b29493929190610c52565b600060405180830381600087803b1580156103cc57600080fd5b505af11580156103e0573d6000803e3d6000fd5b505050505080806103f090610ccd565b915050610316565b505050505050565b6104086104f8565b73ffffffffffffffffffffffffffffffffffffffff16610426610160565b73ffffffffffffffffffffffffffffffffffffffff161461047c576040517f08c379a000000000000000000000000000000000000000000000000000000000815260040161047390610ac7565b60405180910390fd5b600073ffffffffffffffffffffffffffffffffffffffff168173ffffffffffffffffffffffffffffffffffffffff1614156104ec576040517f08c379a00000000000000000000000000000000000000000000000000000000081526004016104e390610d88565b60405180910390fd5b6104f581610500565b50565b600033905090565b60008060009054906101000a900473ffffffffffffffffffffffffffffffffffffffff169050816000806101000a81548173ffffffffffffffffffffffffffffffffffffffff021916908373ffffffffffffffffffffffffffffffffffffffff1602179055508173ffffffffffffffffffffffffffffffffffffffff168173ffffffffffffffffffffffffffffffffffffffff167f8be0079c531659141344cd1fd0a4f28419497f9722a3daafe3b4186f6b6457e060405160405180910390a35050565b6000806001436105d49190610da8565b40336001546040516020016105eb93929190610e70565b6040516020818303038152906040528051906020012060001c9050806001819055508091505090565b828054828255906000526020600020908101928215610650579160200282015b8281111561064f578251825591602001919060010190610634565b5b50905061065d9190610661565b5090565b5b8082111561067a576000816000905550600101610662565b5090565b600073ffffffffffffffffffffffffffffffffffffffff82169050919050565b60006106a98261067e565b9050919050565b6106b98161069e565b82525050565b60006020820190506106d460008301846106b0565b92915050565b6000604051905090565b600080fd5b600080fd5b6000819050919050565b610701816106ee565b811461070c57600080fd5b50565b60008135905061071e816106f8565b92915050565b600080fd5b6000601f19601f8301169050919050565b7f4e487b7100000000000000000000000000000000000000000000000000000000600052604160045260246000fd5b61077282610729565b810181811067ffffffffffffffff821117156107915761079061073a565b5b80604052505050565b60006107a46106da565b90506107b08282610769565b919050565b600067ffffffffffffffff8211156107d0576107cf61073a565b5b602082029050602081019050919050565b600080fd5b60006107f96107f4846107b5565b61079a565b9050808382526020820190506020840283018581111561081c5761081b6107e1565b5b835b818110156108455780610831888261070f565b84526020840193505060208101905061081e565b5050509392505050565b600082601f83011261086457610863610724565b5b81356108748482602086016107e6565b91505092915050565b60008060408385031215610894576108936106e4565b5b60006108a28582860161070f565b925050602083013567ffffffffffffffff8111156108c3576108c26106e9565b5b6108cf8582860161084f565b9150509250929050565b6108e28161069e565b81146108ed57600080fd5b50565b6000813590506108ff816108d9565b92915050565b600080fd5b600067ffffffffffffffff8211156109255761092461073a565b5b61092e82610729565b9050602081019050919050565b82818337600083830152505050565b600061095d6109588461090a565b61079a565b90508281526020810184848401111561097957610978610905565b5b61098484828561093b565b509392505050565b600082601f8301126109a1576109a0610724565b5b81356109b184826020860161094a565b91505092915050565b600080600080608085870312156109d4576109d36106e4565b5b60006109e28782880161070f565b94505060206109f3878288016108f0565b9350506040610a048782880161070f565b925050606085013567ffffffffffffffff811115610a2557610a246106e9565b5b610a318782880161098c565b91505092959194509250565b600060208284031215610a5357610a526106e4565b5b6000610a61848285016108f0565b91505092915050565b600082825260208201905092915050565b7f4f776e61626c653a2063616c6c6572206973206e6f7420746865206f776e6572600082015250565b6000610ab1602083610a6a565b9150610abc82610a7b565b602082019050919050565b60006020820190508181036000830152610ae081610aa4565b9050919050565b7f4e487b7100000000000000000000000000000000000000000000000000000000600052601260045260246000fd5b6000610b21826106ee565b9150610b2c836106ee565b925082610b3c57610b3b610ae7565b5b828206905092915050565b7f4e487b7100000000000000000000000000000000000000000000000000000000600052603260045260246000fd5b610b7f816106ee565b82525050565b6000819050919050565b6000819050919050565b6000610bb4610baf610baa84610b85565b610b8f565b6106ee565b9050919050565b610bc481610b99565b82525050565b600081519050919050565b600082825260208201905092915050565b60005b83811015610c04578082015181840152602081019050610be9565b83811115610c13576000848401525b50505050565b6000610c2482610bca565b610c2e8185610bd5565b9350610c3e818560208601610be6565b610c4781610729565b840191505092915050565b6000608082019050610c6760008301876106b0565b610c746020830186610b76565b610c816040830185610bbb565b8181036060830152610c938184610c19565b905095945050505050565b7f4e487b7100000000000000000000000000000000000000000000000000000000600052601160045260246000fd5b6000610cd8826106ee565b91507fffffffffffffffffffffffffffffffffffffffffffffffffffffffffffffffff821415610d0b57610d0a610c9e565b5b600182019050919050565b7f4f776e61626c653a206e6577206f776e657220697320746865207a65726f206160008201527f6464726573730000000000000000000000000000000000000000000000000000602082015250565b6000610d72602683610a6a565b9150610d7d82610d16565b604082019050919050565b60006020820190508181036000830152610da181610d65565b9050919050565b6000610db3826106ee565b9150610dbe836106ee565b925082821015610dd157610dd0610c9e565b5b828203905092915050565b6000819050919050565b6000819050919050565b610e01610dfc82610ddc565b610de6565b82525050565b60008160601b9050919050565b6000610e1f82610e07565b9050919050565b6000610e3182610e14565b9050919050565b610e49610e448261069e565b610e26565b82525050565b6000819050919050565b610e6a610e65826106ee565b610e4f565b82525050565b6000610e7c8286610df0565b602082019150610e8c8285610e38565b601482019150610e9c8284610e59565b60208201915081905094935050505056fea26469706673582212200d09fd504ab23b1137cc33f1d778696bc9b2900bcbde4c52e09ec467946d520664736f6c63430008090033",
  "immutableReferences": {},
  "source": "// SPDX-License-Identifier: MIT\npragma solidity ^0.8.2;\n\nimport \"./interfaces/IERC1155Factory.sol\";\nimport \"./MagicWeapon.sol\";\nimport \"./utils/RNG.sol\";\nimport \"@openzeppelin/contracts/access/Ownable.sol\";\n\ncontract MagicWeaponFactory is Ownable, RNG, IERC1155Factory {\n    MagicWeapon private weapon;\n    // Association of magic weapon level (option id) to token ids\n    mapping(uint256 => uint256[]) optionTokenIds;\n\n    constructor(address _nftAddress) {\n        weapon = MagicWeapon(_nftAddress);\n    }\n\n    function setOptionIds(uint256 _optionId, uint256[] memory _tokenIds)\n        public\n        onlyOwner\n    {\n        optionTokenIds[_optionId] = _tokenIds;\n    }\n\n    function mint(\n        uint256 _optionId,\n        address _to,\n        uint256 _amount,\n        bytes memory data\n    ) public override onlyOwner {\n        uint256[] memory tokenIds = optionTokenIds[_optionId];\n        for (uint256 i = 0; i < _amount; i++) {\n            uint256 tokenId = tokenIds[_random() % tokenIds.length];\n            weapon.mint(_to, tokenId, 1, data);\n        }\n    }\n}\n",
  "sourcePath": "/home/ec2-user/contract-main/legendofbeasts/contracts/MagicWeaponFactory.sol",
  "compiler": {
    "name": "solc",
    "version": "0.8.9+commit.e5eed63a.Emscripten.clang"
  },
  "schemaVersion": "3.4.4",
  "updatedAt": "2022-01-25T03:34:29.553Z",
  "networkType": "ethereum",
  "devdoc": {
    "kind": "dev",
    "methods": {
      "owner()": {
        "details": "Returns the address of the current owner."
      },
      "renounceOwnership()": {
        "details": "Leaves the contract without owner. It will not be possible to call `onlyOwner` functions anymore. Can only be called by the current owner. NOTE: Renouncing ownership will leave the contract without an owner, thereby removing any functionality that is only available to the owner."
      },
      "transferOwnership(address)": {
        "details": "Transfers ownership of the contract to a new account (`newOwner`). Can only be called by the current owner."
      }
    },
    "version": 1
  },
  "userdoc": {
    "kind": "user",
    "methods": {},
    "version": 1
  }
}